{"abi":[{"inputs":[],"stateMutability":"nonpayable","type":"constructor"},{"inputs":[],"name":"appointmentCount","outputs":[{"internalType":"uint256","name":"","type":"uint256"}],"stateMutability":"view","type":"function"},{"inputs":[{"internalType":"uint256","name":"","type":"uint256"}],"name":"appointmentList","outputs":[{"internalType":"address","name":"","type":"address"}],"stateMutability":"view","type":"function"},{"inputs":[],"name":"doctorCount","outputs":[{"internalType":"uint256","name":"","type":"uint256"}],"stateMutability":"view","type":"function"},{"inputs":[{"internalType":"uint256","name":"","type":"uint256"}],"name":"doctorList","outputs":[{"internalType":"address","name":"","type":"address"}],"stateMutability":"view","type":"function"},{"inputs":[{"internalType":"string","name":"_ic","type":"string"},{"internalType":"string","name":"_name","type":"string"},{"internalType":"string","name":"_phone","type":"string"},{"internalType":"string","name":"_gender","type":"string"},{"internalType":"string","name":"_dob","type":"string"},{"internalType":"string","name":"_height","type":"string"},{"internalType":"string","name":"_weight","type":"string"},{"internalType":"string","name":"_houseaddr","type":"string"},{"internalType":"string","name":"_bloodgroup","type":"string"},{"internalType":"string","name":"_allergies","type":"string"},{"internalType":"string","name":"_medication","type":"string"},{"internalType":"string","name":"_emergencyName","type":"string"},{"internalType":"string","name":"_emergencyContact","type":"string"}],"name":"editDetails","outputs":[],"stateMutability":"nonpayable","type":"function"},{"inputs":[{"internalType":"string","name":"_ic","type":"string"},{"internalType":"string","name":"_name","type":"string"},{"internalType":"string","name":"_phone","type":"string"},{"internalType":"string","name":"_gender","type":"string"},{"internalType":"string","name":"_dob","type":"string"},{"internalType":"string","name":"_qualification","type":"string"},{"internalType":"string","name":"_major","type":"string"}],"name":"editDoctor","outputs":[],"stateMutability":"nonpayable","type":"function"},{"inputs":[],"name":"getAppointmentCount","outputs":[{"internalType":"uint256","name":"","type":"uint256"}],"stateMutability":"view","type":"function"},{"inputs":[{"internalType":"address","name":"_address","type":"address"}],"name":"getAppointmentPerPatient","outputs":[{"internalType":"uint256","name":"","type":"uint256"}],"stateMutability":"view","type":"function"},{"inputs":[],"name":"getAppointments","outputs":[{"internalType":"address[]","name":"","type":"address[]"}],"stateMutability":"view","type":"function"},{"inputs":[],"name":"getDoctorCount","outputs":[{"internalType":"uint256","name":"","type":"uint256"}],"stateMutability":"view","type":"function"},{"inputs":[],"name":"getDoctors","outputs":[{"internalType":"address[]","name":"","type":"address[]"}],"stateMutability":"view","type":"function"},{"inputs":[],"name":"getPatientCount","outputs":[{"internalType":"uint256","name":"","type":"uint256"}],"stateMutability":"view","type":"function"},{"inputs":[],"name":"getPatients","outputs":[{"internalType":"address[]","name":"","type":"address[]"}],"stateMutability":"view","type":"function"},{"inputs":[],"name":"getPermissionGrantedCount","outputs":[{"internalType":"uint256","name":"","type":"uint256"}],"stateMutability":"view","type":"function"},{"inputs":[{"internalType":"address","name":"_address","type":"address"}],"name":"givePermission","outputs":[{"internalType":"bool","name":"success","type":"bool"}],"stateMutability":"nonpayable","type":"function"},{"inputs":[],"name":"owner","outputs":[{"internalType":"address","name":"","type":"address"}],"stateMutability":"view","type":"function"},{"inputs":[],"name":"patientCount","outputs":[{"internalType":"uint256","name":"","type":"uint256"}],"stateMutability":"view","type":"function"},{"inputs":[{"internalType":"uint256","name":"","type":"uint256"}],"name":"patientList","outputs":[{"internalType":"address","name":"","type":"address"}],"stateMutability":"view","type":"function"},{"inputs":[{"internalType":"address","name":"","type":"address"}],"name":"patients","outputs":[{"internalType":"string","name":"ic","type":"string"},{"internalType":"string","name":"name","type":"string"},{"internalType":"string","name":"phone","type":"string"},{"internalType":"string","name":"gender","type":"string"},{"internalType":"string","name":"dob","type":"string"},{"internalType":"string","name":"height","type":"string"},{"internalType":"string","name":"weight","type":"string"},{"internalType":"string","name":"houseaddr","type":"string"},{"internalType":"string","name":"bloodgroup","type":"string"},{"internalType":"string","name":"allergies","type":"string"},{"internalType":"string","name":"medication","type":"string"},{"internalType":"string","name":"emergencyName","type":"string"},{"internalType":"string","name":"emergencyContact","type":"string"},{"internalType":"address","name":"addr","type":"address"},{"internalType":"uint256","name":"date","type":"uint256"}],"stateMutability":"view","type":"function"},{"inputs":[],"name":"permissionGrantedCount","outputs":[{"internalType":"uint256","name":"","type":"uint256"}],"stateMutability":"view","type":"function"},{"inputs":[{"internalType":"address","name":"_address","type":"address"}],"name":"revokePermission","outputs":[{"internalType":"bool","name":"success","type":"bool"}],"stateMutability":"nonpayable","type":"function"},{"inputs":[{"internalType":"address","name":"_address","type":"address"}],"name":"searchAppointment","outputs":[{"internalType":"address","name":"","type":"address"},{"internalType":"string","name":"","type":"string"},{"internalType":"string","name":"","type":"string"},{"internalType":"string","name":"","type":"string"},{"internalType":"string","name":"","type":"string"},{"internalType":"string","name":"","type":"string"},{"internalType":"string","name":"","type":"string"},{"internalType":"string","name":"","type":"string"}],"stateMutability":"view","type":"function"},{"inputs":[{"internalType":"address","name":"_address","type":"address"}],"name":"searchAppointmentDate","outputs":[{"internalType":"uint256","name":"","type":"uint256"}],"stateMutability":"view","type":"function"},{"inputs":[{"internalType":"address","name":"_address","type":"address"}],"name":"searchDoctor","outputs":[{"internalType":"string","name":"","type":"string"},{"internalType":"string","name":"","type":"string"},{"internalType":"string","name":"","type":"string"},{"internalType":"string","name":"","type":"string"},{"internalType":"string","name":"","type":"string"},{"internalType":"string","name":"","type":"string"},{"internalType":"string","name":"","type":"string"}],"stateMutability":"view","type":"function"},{"inputs":[{"internalType":"address","name":"_address","type":"address"}],"name":"searchDoctorDate","outputs":[{"internalType":"uint256","name":"","type":"uint256"}],"stateMutability":"view","type":"function"},{"inputs":[{"internalType":"address","name":"_address","type":"address"}],"name":"searchPatientDemographic","outputs":[{"internalType":"string","name":"","type":"string"},{"internalType":"string","name":"","type":"string"},{"internalType":"string","name":"","type":"string"},{"internalType":"string","name":"","type":"string"},{"internalType":"string","name":"","type":"string"},{"internalType":"string","name":"","type":"string"},{"internalType":"string","name":"","type":"string"}],"stateMutability":"view","type":"function"},{"inputs":[{"internalType":"address","name":"_address","type":"address"}],"name":"searchPatientMedical","outputs":[{"internalType":"string","name":"","type":"string"},{"internalType":"string","name":"","type":"string"},{"internalType":"string","name":"","type":"string"},{"internalType":"string","name":"","type":"string"},{"internalType":"string","name":"","type":"string"},{"internalType":"string","name":"","type":"string"}],"stateMutability":"view","type":"function"},{"inputs":[{"internalType":"address","name":"_address","type":"address"}],"name":"searchRecordDate","outputs":[{"internalType":"uint256","name":"","type":"uint256"}],"stateMutability":"view","type":"function"},{"inputs":[{"internalType":"address","name":"_addr","type":"address"},{"components":[{"internalType":"string","name":"date","type":"string"},{"internalType":"string","name":"time","type":"string"},{"internalType":"string","name":"prescription","type":"string"},{"internalType":"string","name":"description","type":"string"},{"internalType":"string","name":"diagnosis","type":"string"},{"internalType":"string","name":"status","type":"string"}],"internalType":"struct Record.AppointmentDetails","name":"details","type":"tuple"}],"name":"setAppointment","outputs":[],"stateMutability":"nonpayable","type":"function"},{"inputs":[{"internalType":"string","name":"_ic","type":"string"},{"internalType":"string","name":"_name","type":"string"},{"internalType":"string","name":"_phone","type":"string"},{"internalType":"string","name":"_gender","type":"string"},{"internalType":"string","name":"_dob","type":"string"},{"internalType":"string","name":"_height","type":"string"},{"internalType":"string","name":"_weight","type":"string"},{"internalType":"string","name":"_houseaddr","type":"string"},{"internalType":"string","name":"_bloodgroup","type":"string"},{"internalType":"string","name":"_allergies","type":"string"},{"internalType":"string","name":"_medication","type":"string"},{"internalType":"string","name":"_emergencyName","type":"string"},{"internalType":"string","name":"_emergencyContact","type":"string"}],"name":"setDetails","outputs":[],"stateMutability":"nonpayable","type":"function"},{"inputs":[{"internalType":"string","name":"_ic","type":"string"},{"internalType":"string","name":"_name","type":"string"},{"internalType":"string","name":"_phone","type":"string"},{"internalType":"string","name":"_gender","type":"string"},{"internalType":"string","name":"_dob","type":"string"},{"internalType":"string","name":"_qualification","type":"string"},{"internalType":"string","name":"_major","type":"string"}],"name":"setDoctor","outputs":[],"stateMutability":"nonpayable","type":"function"},{"inputs":[{"internalType":"address","name":"_addr","type":"address"},{"components":[{"internalType":"string","name":"date","type":"string"},{"internalType":"string","name":"time","type":"string"},{"internalType":"string","name":"prescription","type":"string"},{"internalType":"string","name":"description","type":"string"},{"internalType":"string","name":"diagnosis","type":"string"},{"internalType":"string","name":"status","type":"string"}],"internalType":"struct Record.AppointmentDetails","name":"details","type":"tuple"}],"name":"updateAppointment","outputs":[],"stateMutability":"nonpayable","type":"function"}],"evm":{"bytecode":{"linkReferences":{},"object":"608080604052346034575f600b555f600c555f600d555f600e553360018060a01b03195f5416175f5561544890816100398239f35b5f80fdfe60806040526004361015610011575f80fd5b5f3560e01c80621feeeb146145715780630869cfbc14614391578063127ca4b41461432d57806312ad1c37146142b057806324c24b2b14610a6757806329e4afbb146101785780632a825ba0146140d25780633622b7f6146132975780633bc982801461310f5780633d391f70146130b45780634c14b38d14612fe5578063625961fc14612f1257806378522bc414612ef557806379111c1c14612ef55780638b945c6d1461269a5780638da5cb5b14612673578063920419821461244a57806396b80d08146123cd57806399a363c614611472578063a0303c4114610a4a578063a3bf5b9a14611428578063a5aca8bc14610cb0578063b13d5d9414610c27578063babb1d4114610bc3578063bd6f972b14610a84578063c0cb24ba14610a67578063c190665b14610a4a578063c3dfb22f1461035b578063caee6c8514610249578063e6fce0d2146101d1578063e93a15b9146101995763eebc3fb214610178575f80fd5b34610195575f366003190112610195576020600d54604051908152f35b5f80fd5b34610195576020366003190112610195576001600160a01b036101ba614d02565b165f52600a602052602060405f2054604051908152f35b3461019557602036600319011261019557600435600354811015610195576003548110156102355760035f527fc2575a0e9e593c00f959f8c92f12db2869c3395a3b0502d05e2516446f71f85b01546040516001600160a01b039091168152602090f35b634e487b7160e01b5f52603260045260245ffd5b34610195576020366003190112610195576001600160a01b0361026a614d02565b16805f52600960205261028360ff60405f2054166153c6565b5f52600560205260405f206040519061029b82614d34565b6102a481614f44565b82526103576102b560018301614f44565b91602084019283526102c960028201614f44565b93604081019485526102dd60038301614f44565b90606081019182526102f160048401614f44565b6080820190815261030460058501614f44565b9160a08101928352600861031a60068701614f44565b60c0830181905260078701546001600160a01b031660e0840152950154610100820152519551965192519051915160405197889791949188615206565b0390f35b346101955761036936614dc6565b90335f52600960205260ff60405f205416156109f95760018060a01b03165f52600660205260405f208151916002820183516001600160401b038111610668576103b38254614f0c565b601f81116109b4575b50602094601f8211600114610953579481929394955f92610948575b50508160011b915f199060031b1c19161790555b6020810151916003810183516001600160401b038111610668576104108254614f0c565b601f8111610903575b50602094601f82116001146108a2579481929394955f92610897575b50508160011b915f199060031b1c19161790555b6080820151916006820183516001600160401b0381116106685761046d8254614f0c565b601f8111610852575b50602094601f82116001146107f1579481929394955f926107e6575b50508160011b915f199060031b1c19161790555b6040810151916004810183516001600160401b038111610668576104ca8254614f0c565b601f81116107a1575b50602094601f8211600114610740579481929394955f92610735575b50508160011b915f199060031b1c19161790555b6060820151916005820183516001600160401b038111610668576105278254614f0c565b601f81116106f0575b506020601f821160011461068757908060a0949392600796975f9261067c575b50508160011b915f199060031b1c19161790555b0151910181516001600160401b038111610668576105828254614f0c565b601f8111610623575b50602092601f82116001146105c757928192935f926105bc575b50505f19600383901b1c191660019190911b179055005b0151905083806105a5565b601f19821693835f52805f20915f5b86811061060b57508360019596106105f3575b505050811b019055005b01515f1960f88460031b161c191690558380806105e9565b919260206001819286850151815501940192016105d6565b825f5260205f20601f830160051c8101916020841061065e575b601f0160051c01905b818110610653575061058b565b5f8155600101610646565b909150819061063d565b634e487b7160e01b5f52604160045260245ffd5b015190508780610550565b601f19821695835f52815f20965f5b8181106106d8575096600192849260a09796956007999a106106c0575b505050811b019055610564565b01515f1960f88460031b161c191690558780806106b3565b83830151895560019098019760209384019301610696565b825f5260205f20601f830160051c8101916020841061072b575b601f0160051c01905b8181106107205750610530565b5f8155600101610713565b909150819061070a565b0151905085806104ef565b601f19821695835f52805f20915f5b88811061078957508360019596979810610771575b505050811b019055610503565b01515f1960f88460031b161c19169055858080610764565b9192602060018192868501518155019401920161074f565b825f5260205f20601f830160051c810191602084106107dc575b601f0160051c01905b8181106107d157506104d3565b5f81556001016107c4565b90915081906107bb565b015190508580610492565b601f19821695835f52805f20915f5b88811061083a57508360019596979810610822575b505050811b0190556104a6565b01515f1960f88460031b161c19169055858080610815565b91926020600181928685015181550194019201610800565b825f5260205f20601f830160051c8101916020841061088d575b601f0160051c01905b8181106108825750610476565b5f8155600101610875565b909150819061086c565b015190508580610435565b601f19821695835f52805f20915f5b8881106108eb575083600195969798106108d3575b505050811b019055610449565b01515f1960f88460031b161c191690558580806108c6565b919260206001819286850151815501940192016108b1565b825f5260205f20601f830160051c8101916020841061093e575b601f0160051c01905b8181106109335750610419565b5f8155600101610926565b909150819061091d565b0151905085806103d8565b601f19821695835f52805f20915f5b88811061099c57508360019596979810610984575b505050811b0190556103ec565b01515f1960f88460031b161c19169055858080610977565b91926020600181928685015181550194019201610962565b825f5260205f20601f830160051c810191602084106109ef575b601f0160051c01905b8181106109e457506103bc565b5f81556001016109d7565b90915081906109ce565b60405162461bcd60e51b8152602060048201526024808201527f4f6e6c7920646f63746f72732063616e20757064617465206170706f696e746d604482015263656e747360e01b6064820152608490fd5b34610195575f366003190112610195576020600b54604051908152f35b34610195575f366003190112610195576020600e54604051908152f35b34610195576020366003190112610195576001600160a01b03610aa5614d02565b165f52600460205260206101c060405f20600e60405191610ac583614d18565b610ace81614f44565b8352610adc60018201614f44565b85840152610aec60028201614f44565b6040840152610afd60038201614f44565b6060840152610b0e60048201614f44565b6080840152610b1f60058201614f44565b60a0840152610b3060068201614f44565b60c0840152610b4160078201614f44565b60e0840152610b5260088201614f44565b610100840152610b6460098201614f44565b610120840152610b76600a8201614f44565b610140840152610b88600b8201614f44565b610160840152610b9a600c8201614f44565b610180840152600d8101546001600160a01b03166101a084015201549101819052604051908152f35b3461019557602036600319011261019557600435600154811015610195576001548110156102355760015f527fb10e2d527612073b26eecdfd717e6a320cf44b4afac2b0732d9fcbe2b7fa0cf601546040516001600160a01b039091168152602090f35b34610195575f3660031901126101955760405180602060025491828152019060025f527f405787fa12a823e0f2b7631cc41b3ba8828b3321ca811111fa75cd3aa3bb5ace905f5b818110610c915761035785610c8581870382614d50565b6040519182918261501d565b82546001600160a01b0316845260209093019260019283019201610c6e565b3461019557610cbe36615284565b9495939095929192335f526009602052610cde60ff60405f2054166153c6565b335f52600560205260405f20948051906001600160401b038211610668578190610d088854614f0c565b601f81116113d8575b50602090601f8311600114611375575f9261136a575b50508160011b915f199060031b1c19161785555b805160018601916001600160401b038211610668578190610d5c8454614f0c565b601f811161131a575b50602090601f83116001146112b7575f926112ac575b50508160011b915f199060031b1c19161790555b805160028501916001600160401b038211610668578190610db08454614f0c565b601f811161125c575b50602090601f83116001146111f9575f926111ee575b50508160011b915f199060031b1c19161790555b805160038401916001600160401b038211610668578190610e048454614f0c565b601f811161119e575b50602090601f831160011461113b575f92611130575b50508160011b915f199060031b1c19161790555b805160048301916001600160401b038211610668578190610e588454614f0c565b601f81116110e0575b50602090601f831160011461107d575f92611072575b50508160011b915f199060031b1c19161790555b6005810183516001600160401b03811161066857610ea98254614f0c565b601f811161102d575b506020601f8211600114610fc8578190600695965f92610fbd575b50508160011b915f199060031b1c19161790555b0181516001600160401b03811161066857610efc8254614f0c565b601f8111610f78575b50602092601f8211600114610f3557928192935f926105bc5750505f19600383901b1c191660019190911b179055005b601f19821693835f52805f20915f5b868110610f6057508360019596106105f357505050811b019055005b91926020600181928685015181550194019201610f44565b825f5260205f20601f830160051c81019160208410610fb3575b601f0160051c01905b818110610fa85750610f05565b5f8155600101610f9b565b9091508190610f92565b015190508680610ecd565b601f19821695835f52815f20965f5b8181106110155750916006969791846001959410610ffd575b505050811b019055610ee1565b01515f1960f88460031b161c19169055868080610ff0565b83830151895560019098019760209384019301610fd7565b825f5260205f20601f830160051c81019160208410611068575b601f0160051c01905b81811061105d5750610eb2565b5f8155600101611050565b9091508190611047565b015190508680610e77565b5f8581528281209350601f198516905b8181106110c857509084600195949392106110b0575b505050811b019055610e8b565b01515f1960f88460031b161c191690558680806110a3565b9293602060018192878601518155019501930161108d565b909150835f5260205f20601f840160051c81019160208510611126575b90601f859493920160051c01905b8181106111185750610e61565b5f815584935060010161110b565b90915081906110fd565b015190508780610e23565b5f8581528281209350601f198516905b818110611186575090846001959493921061116e575b505050811b019055610e37565b01515f1960f88460031b161c19169055878080611161565b9293602060018192878601518155019501930161114b565b909150835f5260205f20601f840160051c810191602085106111e4575b90601f859493920160051c01905b8181106111d65750610e0d565b5f81558493506001016111c9565b90915081906111bb565b015190508880610dcf565b5f8581528281209350601f198516905b818110611244575090846001959493921061122c575b505050811b019055610de3565b01515f1960f88460031b161c1916905588808061121f565b92936020600181928786015181550195019301611209565b909150835f5260205f20601f840160051c810191602085106112a2575b90601f859493920160051c01905b8181106112945750610db9565b5f8155849350600101611287565b9091508190611279565b015190508980610d7b565b5f8581528281209350601f198516905b81811061130257509084600195949392106112ea575b505050811b019055610d8f565b01515f1960f88460031b161c191690558980806112dd565b929360206001819287860151815501950193016112c7565b909150835f5260205f20601f840160051c81019160208510611360575b90601f859493920160051c01905b8181106113525750610d65565b5f8155849350600101611345565b9091508190611337565b015190508980610d27565b5f8981528281209350601f198516905b8181106113c057509084600195949392106113a8575b505050811b018555610d3b565b01515f1960f88460031b161c1916905589808061139b565b92936020600181928786015181550195019301611385565b909150875f5260205f20601f840160051c8101916020851061141e575b90601f859493920160051c01905b8181106114105750610d11565b5f8155849350600101611403565b90915081906113f5565b3461019557602036600319011261019557611441614d02565b335f52600760205260405f209060018060a01b03165f5260205260405f2060ff198154169055602060405160018152f35b346101955761149d6114833661505f565b9b60409b919b9a929a999399989498979597519d8e614d18565b8d5260208d015260408c015260608b015260808a015260a089015260c088015260e08701526101008601526101208501526101408401526101608301526101808201908152336101a0830152426101c0830152335f52600460205260405f2082519283516001600160401b038111610668576115198354614f0c565b601f811161238c575b506020601f82116001146123285781929394955f9261231d575b50508160011b915f199060031b1c19161782555b6001820160208201518051906001600160401b0382116106685781906115768454614f0c565b601f81116122cd575b50602090601f831160011461226a575f9261225f575b50508160011b915f199060031b1c19161790555b6002820160408201518051906001600160401b0382116106685781906115cf8454614f0c565b601f811161220f575b50602090601f83116001146121ac575f926121a1575b50508160011b915f199060031b1c19161790555b6003820160608201518051906001600160401b0382116106685781906116288454614f0c565b601f8111612151575b50602090601f83116001146120ee575f926120e3575b50508160011b915f199060031b1c19161790555b6004820160808201518051906001600160401b0382116106685781906116818454614f0c565b601f8111612093575b50602090601f8311600114612030575f92612025575b50508160011b915f199060031b1c19161790555b6005820160a08201518051906001600160401b0382116106685781906116da8454614f0c565b601f8111611fd5575b50602090601f8311600114611f72575f92611f67575b50508160011b915f199060031b1c19161790555b6006820160c08201518051906001600160401b0382116106685781906117338454614f0c565b601f8111611f17575b50602090601f8311600114611eb4575f92611ea9575b50508160011b915f199060031b1c19161790555b6007820160e08201518051906001600160401b03821161066857819061178c8454614f0c565b601f8111611e59575b50602090601f8311600114611df6575f92611deb575b50508160011b915f199060031b1c19161790555b600882016101008201518051906001600160401b0382116106685781906117e68454614f0c565b601f8111611d9b575b50602090601f8311600114611d38575f92611d2d575b50508160011b915f199060031b1c19161790555b600982016101208201518051906001600160401b0382116106685781906118408454614f0c565b601f8111611cdd575b50602090601f8311600114611c7a575f92611c6f575b50508160011b915f199060031b1c19161790555b600a82016101408201518051906001600160401b03821161066857819061189a8454614f0c565b601f8111611c1f575b50602090601f8311600114611bbc575f92611bb1575b50508160011b915f199060031b1c19161790555b600b82016101608201518051906001600160401b0382116106685781906118f48454614f0c565b601f8111611b61575b50602090601f8311600114611afe575f92611af3575b50508160011b915f199060031b1c19161790555b600c820192519283516001600160401b038111610668576119488254614f0c565b601f8111611aae575b506020601f8211600114611a445790806101c0949392600e96975f92611a39575b50508160011b915f199060031b1c19161790555b6101a0810151600d850180546001600160a01b0319166001600160a01b03929092169190911790550151910155600154600160401b811015610668578060016119d492016001556001615008565b81546001600160a01b0360039290921b91821b1916339182901b179091555f908152600860209081526040808320805460ff19908116600190811790925560078452828520909352922080549091169091179055600b54611a3490615368565b600b55005b015190508780611972565b601f19821695835f52815f20965f5b818110611a9657509660019284926101c0979695600e999a10611a7e575b505050811b019055611986565b01515f1960f88460031b161c19169055878080611a71565b83830151895560019098019760209384019301611a53565b825f5260205f20601f830160051c81019160208410611ae9575b601f0160051c01905b818110611ade5750611951565b5f8155600101611ad1565b9091508190611ac8565b015190508680611913565b5f8581528281209350601f198516905b818110611b495750908460019594939210611b31575b505050811b019055611927565b01515f1960f88460031b161c19169055868080611b24565b92936020600181928786015181550195019301611b0e565b909150835f5260205f20601f840160051c81019160208510611ba7575b90601f859493920160051c01905b818110611b9957506118fd565b5f8155849350600101611b8c565b9091508190611b7e565b0151905086806118b9565b5f8581528281209350601f198516905b818110611c075750908460019594939210611bef575b505050811b0190556118cd565b01515f1960f88460031b161c19169055868080611be2565b92936020600181928786015181550195019301611bcc565b909150835f5260205f20601f840160051c81019160208510611c65575b90601f859493920160051c01905b818110611c5757506118a3565b5f8155849350600101611c4a565b9091508190611c3c565b01519050868061185f565b5f8581528281209350601f198516905b818110611cc55750908460019594939210611cad575b505050811b019055611873565b01515f1960f88460031b161c19169055868080611ca0565b92936020600181928786015181550195019301611c8a565b909150835f5260205f20601f840160051c81019160208510611d23575b90601f859493920160051c01905b818110611d155750611849565b5f8155849350600101611d08565b9091508190611cfa565b015190508680611805565b5f8581528281209350601f198516905b818110611d835750908460019594939210611d6b575b505050811b019055611819565b01515f1960f88460031b161c19169055868080611d5e565b92936020600181928786015181550195019301611d48565b909150835f5260205f20601f840160051c81019160208510611de1575b90601f859493920160051c01905b818110611dd357506117ef565b5f8155849350600101611dc6565b9091508190611db8565b0151905086806117ab565b5f8581528281209350601f198516905b818110611e415750908460019594939210611e29575b505050811b0190556117bf565b01515f1960f88460031b161c19169055868080611e1c565b92936020600181928786015181550195019301611e06565b909150835f5260205f20601f840160051c81019160208510611e9f575b90601f859493920160051c01905b818110611e915750611795565b5f8155849350600101611e84565b9091508190611e76565b015190508680611752565b5f8581528281209350601f198516905b818110611eff5750908460019594939210611ee7575b505050811b019055611766565b01515f1960f88460031b161c19169055868080611eda565b92936020600181928786015181550195019301611ec4565b909150835f5260205f20601f840160051c81019160208510611f5d575b90601f859493920160051c01905b818110611f4f575061173c565b5f8155849350600101611f42565b9091508190611f34565b0151905086806116f9565b5f8581528281209350601f198516905b818110611fbd5750908460019594939210611fa5575b505050811b01905561170d565b01515f1960f88460031b161c19169055868080611f98565b92936020600181928786015181550195019301611f82565b909150835f5260205f20601f840160051c8101916020851061201b575b90601f859493920160051c01905b81811061200d57506116e3565b5f8155849350600101612000565b9091508190611ff2565b0151905086806116a0565b5f8581528281209350601f198516905b81811061207b5750908460019594939210612063575b505050811b0190556116b4565b01515f1960f88460031b161c19169055868080612056565b92936020600181928786015181550195019301612040565b909150835f5260205f20601f840160051c810191602085106120d9575b90601f859493920160051c01905b8181106120cb575061168a565b5f81558493506001016120be565b90915081906120b0565b015190508680611647565b5f8581528281209350601f198516905b8181106121395750908460019594939210612121575b505050811b01905561165b565b01515f1960f88460031b161c19169055868080612114565b929360206001819287860151815501950193016120fe565b909150835f5260205f20601f840160051c81019160208510612197575b90601f859493920160051c01905b8181106121895750611631565b5f815584935060010161217c565b909150819061216e565b0151905086806115ee565b5f8581528281209350601f198516905b8181106121f757509084600195949392106121df575b505050811b019055611602565b01515f1960f88460031b161c191690558680806121d2565b929360206001819287860151815501950193016121bc565b909150835f5260205f20601f840160051c81019160208510612255575b90601f859493920160051c01905b81811061224757506115d8565b5f815584935060010161223a565b909150819061222c565b015190508680611595565b5f8581528281209350601f198516905b8181106122b5575090846001959493921061229d575b505050811b0190556115a9565b01515f1960f88460031b161c19169055868080612290565b9293602060018192878601518155019501930161227a565b909150835f5260205f20601f840160051c81019160208510612313575b90601f859493920160051c01905b818110612305575061157f565b5f81558493506001016122f8565b90915081906122ea565b01519050858061153c565b835f52805f20905f5b601f1984168110612374575060019394959683601f1981161061235c575b505050811b018255611550565b01515f1960f88460031b161c1916905585808061234f565b9091602060018192858b015181550193019101612331565b835f5260205f20601f830160051c8101602084106123c6575b601f830160051c820181106123bb575050611522565b5f81556001016123a5565b50806123a5565b34610195575f3660031901126101955760405180602060035491828152019060035f527fc2575a0e9e593c00f959f8c92f12db2869c3395a3b0502d05e2516446f71f85b905f5b81811061242b5761035785610c8581870382614d50565b82546001600160a01b0316845260209093019260019283019201612414565b34610195576020366003190112610195576001600160a01b0361246b614d02565b165f52600660205260405f2060405161248381614d34565b81546001600160a01b03908116825260018301541660208201526124a960028301614f44565b60408201908152916124bd60038201614f44565b60608301908152906124d160048201614f44565b608084019081526124e460058301614f44565b60a08501908152906124f860068401614f44565b60c0860190815261250b60078501614f44565b9360e0870194855260080154610100870152600160a01b600190038651165f52600560205260405f209560405161254181614d34565b61254a88614f44565b815261255860018901614f44565b602082019081529761256c60028201614f44565b604083015261257d60038201614f44565b606083015261258e60048201614f44565b608083015261259f60058201614f44565b60a08301526125b060068201614f44565b60c0830152600160a01b6001900360078201541660e083015260080154906101000152600160a01b600190039051169551965194519051915192519351946040519788978852602088016101009052610100880161260d91614fe4565b878103604089015261261e91614fe4565b868103606088015261262f91614fe4565b858103608087015261264091614fe4565b84810360a086015261265191614fe4565b83810360c085015261266291614fe4565b82810360e084015261035791614fe4565b34610195575f366003190112610195575f546040516001600160a01b039091168152602090f35b34610195576126a836615284565b9495939095929192335f52600960205260ff60405f205416612eb057335f52600560205260405f20948051906001600160401b0382116106685781906126ee8854614f0c565b601f8111612e60575b50602090601f8311600114612dfd575f92612df2575b50508160011b915f199060031b1c19161785555b805160018601916001600160401b0382116106685781906127428454614f0c565b601f8111612da2575b50602090601f8311600114612d3f575f92612d34575b50508160011b915f199060031b1c19161790555b805160028501916001600160401b0382116106685781906127968454614f0c565b601f8111612ce4575b50602090601f8311600114612c81575f92612c76575b50508160011b915f199060031b1c19161790555b805160038401916001600160401b0382116106685781906127ea8454614f0c565b601f8111612c26575b50602090601f8311600114612bc3575f92612bb8575b50508160011b915f199060031b1c19161790555b805160048301916001600160401b03821161066857819061283e8454614f0c565b601f8111612b68575b50602090601f8311600114612b05575f92612afa575b50508160011b915f199060031b1c19161790555b6005810183516001600160401b0381116106685761288f8254614f0c565b601f8111612ab5575b50602094601f8211600114612a54579481929394955f92612a49575b50508160011b915f199060031b1c19161790555b6006810182516001600160401b038111610668576128e68254614f0c565b601f8111612a04575b506020601f82116001146129a357819293945f92612998575b50508160011b915f199060031b1c19161790555b6007810180546001600160a01b0319163317905542600890910155600254600160401b8110156106685780600161295892016002556002615008565b81549060031b9033821b9160018060a01b03901b1916179055335f52600960205260405f20600160ff19825416179055612993600c54615368565b600c55005b015190508480612908565b601f19821690835f52805f20915f5b8181106129ec575095836001959697106129d4575b505050811b01905561291c565b01515f1960f88460031b161c191690558480806129c7565b9192602060018192868b0151815501940192016129b2565b825f5260205f20601f830160051c81019160208410612a3f575b601f0160051c01905b818110612a3457506128ef565b5f8155600101612a27565b9091508190612a1e565b0151905085806128b4565b601f19821695835f52805f20915f5b888110612a9d57508360019596979810612a85575b505050811b0190556128c8565b01515f1960f88460031b161c19169055858080612a78565b91926020600181928685015181550194019201612a63565b825f5260205f20601f830160051c81019160208410612af0575b601f0160051c01905b818110612ae55750612898565b5f8155600101612ad8565b9091508190612acf565b01519050868061285d565b5f8581528281209350601f198516905b818110612b505750908460019594939210612b38575b505050811b019055612871565b01515f1960f88460031b161c19169055868080612b2b565b92936020600181928786015181550195019301612b15565b909150835f5260205f20601f840160051c81019160208510612bae575b90601f859493920160051c01905b818110612ba05750612847565b5f8155849350600101612b93565b9091508190612b85565b015190508780612809565b5f8581528281209350601f198516905b818110612c0e5750908460019594939210612bf6575b505050811b01905561281d565b01515f1960f88460031b161c19169055878080612be9565b92936020600181928786015181550195019301612bd3565b909150835f5260205f20601f840160051c81019160208510612c6c575b90601f859493920160051c01905b818110612c5e57506127f3565b5f8155849350600101612c51565b9091508190612c43565b0151905088806127b5565b5f8581528281209350601f198516905b818110612ccc5750908460019594939210612cb4575b505050811b0190556127c9565b01515f1960f88460031b161c19169055888080612ca7565b92936020600181928786015181550195019301612c91565b909150835f5260205f20601f840160051c81019160208510612d2a575b90601f859493920160051c01905b818110612d1c575061279f565b5f8155849350600101612d0f565b9091508190612d01565b015190508980612761565b5f8581528281209350601f198516905b818110612d8a5750908460019594939210612d72575b505050811b019055612775565b01515f1960f88460031b161c19169055898080612d65565b92936020600181928786015181550195019301612d4f565b909150835f5260205f20601f840160051c81019160208510612de8575b90601f859493920160051c01905b818110612dda575061274b565b5f8155849350600101612dcd565b9091508190612dbf565b01519050898061270d565b5f8981528281209350601f198516905b818110612e485750908460019594939210612e30575b505050811b018555612721565b01515f1960f88460031b161c19169055898080612e23565b92936020600181928786015181550195019301612e0d565b909150875f5260205f20601f840160051c81019160208510612ea6575b90601f859493920160051c01905b818110612e9857506126f7565b5f8155849350600101612e8b565b9091508190612e7d565b60405162461bcd60e51b815260206004820152601b60248201527f416c72656164792061207265676973746572656420646f63746f7200000000006044820152606490fd5b34610195575f366003190112610195576020600c54604051908152f35b34610195576020366003190112610195576001600160a01b03612f33614d02565b165f526005602052602061010060405f20600860405191612f5383614d34565b612f5c81614f44565b8352612f6a60018201614f44565b85840152612f7a60028201614f44565b6040840152612f8b60038201614f44565b6060840152612f9c60048201614f44565b6080840152612fad60058201614f44565b60a0840152612fbe60068201614f44565b60c084015260078101546001600160a01b031660e084015201549101819052604051908152f35b34610195576020366003190112610195576001600160a01b03613006614d02565b165f526006602052602061010060405f2060086040519161302683614d34565b80546001600160a01b0390811684526001820154168584015261304b60028201614f44565b604084015261305c60038201614f44565b606084015261306d60048201614f44565b608084015261307e60058201614f44565b60a084015261308f60068201614f44565b60c08401526130a060078201614f44565b60e084015201549182910152604051908152f35b34610195576020366003190112610195576130cd614d02565b335f52600760205260405f209060018060a01b03165f5260205260405f20600160ff19825416179055613101600e54615368565b600e55602060405160018152f35b34610195576020366003190112610195576001600160a01b03613130614d02565b165f8181526007602090815260408083203384529091529020546131569060ff1661538a565b5f52600460205260405f2060405161316d81614d18565b61317682614f44565b815261035761318760018401614f44565b916020810192835261319b60028501614f44565b93604082019485526131af60038201614f44565b91606081019283526131c360048301614f44565b608082019081526131d660058401614f44565b9160a08101928352600e6131ec60068601614f44565b9460c0830195865261320060078201614f44565b60e084015261321160088201614f44565b61010084015261322360098201614f44565b610120840152613235600a8201614f44565b610140840152613247600b8201614f44565b610160840152613259600c8201614f44565b610180840152600d8101546001600160a01b03166101a084015201546101c08201525195519651935190519151925160405197889791959188615206565b34610195576132a53661505f565b9a9b99909b989198979297969396959495335f52600860205260ff60405f2054161561408d57335f52600460205260405f209a8051906001600160401b038211610668578c82916132f68254614f0c565b601f8111614033575b50602091601f8411600114613fd057505f92613fc5575b50508160011b915f199060031b1c1916178b555b805160018c01916001600160401b03821161066857819061334b8454614f0c565b601f8111613f75575b50602090601f8311600114613f12575f92613f07575b50508160011b915f199060031b1c19161790555b805160028b01916001600160401b03821161066857819061339f8454614f0c565b601f8111613eb7575b50602090601f8311600114613e54575f92613e49575b50508160011b915f199060031b1c19161790555b805160038a01916001600160401b0382116106685781906133f38454614f0c565b601f8111613df9575b50602090601f8311600114613d96575f92613d8b575b50508160011b915f199060031b1c19161790555b805160048901916001600160401b0382116106685781906134478454614f0c565b601f8111613d3b575b50602090601f8311600114613cd8575f92613ccd575b50508160011b915f199060031b1c19161790555b805160058801916001600160401b03821161066857819061349b8454614f0c565b601f8111613c7d575b50602090601f8311600114613c1a575f92613c0f575b50508160011b915f199060031b1c19161790555b805160068701916001600160401b0382116106685781906134ef8454614f0c565b601f8111613bbf575b50602090601f8311600114613b5c575f92613b51575b50508160011b915f199060031b1c19161790555b805160078601916001600160401b0382116106685781906135438454614f0c565b601f8111613b01575b50602090601f8311600114613a9e575f92613a93575b50508160011b915f199060031b1c19161790555b805160088501916001600160401b0382116106685781906135978454614f0c565b601f8111613a43575b50602090601f83116001146139e0575f926139d5575b50508160011b915f199060031b1c19161790555b805160098401916001600160401b0382116106685781906135eb8454614f0c565b601f8111613985575b50602090601f8311600114613922575f92613917575b50508160011b915f199060031b1c19161790555b8051600a8301916001600160401b03821161066857819061363f8454614f0c565b601f81116138c7575b50602090601f8311600114613864575f92613859575b50508160011b915f199060031b1c19161790555b600b810183516001600160401b038111610668576136908254614f0c565b601f8111613814575b506020601f82116001146137af578190600c95965f926137a4575b50508160011b915f199060031b1c19161790555b0181516001600160401b038111610668576136e38254614f0c565b601f811161375f575b50602092601f821160011461371c57928192935f926105bc5750505f19600383901b1c191660019190911b179055005b601f19821693835f52805f20915f5b86811061374757508360019596106105f357505050811b019055005b9192602060018192868501518155019401920161372b565b825f5260205f20601f830160051c8101916020841061379a575b601f0160051c01905b81811061378f57506136ec565b5f8155600101613782565b9091508190613779565b0151905086806136b4565b601f19821695835f52815f20965f5b8181106137fc575091600c9697918460019594106137e4575b505050811b0190556136c8565b01515f1960f88460031b161c191690558680806137d7565b838301518955600190980197602093840193016137be565b825f5260205f20601f830160051c8101916020841061384f575b601f0160051c01905b8181106138445750613699565b5f8155600101613837565b909150819061382e565b01519050868061365e565b5f8581528281209350601f198516905b8181106138af5750908460019594939210613897575b505050811b019055613672565b01515f1960f88460031b161c1916905586808061388a565b92936020600181928786015181550195019301613874565b909150835f5260205f20601f840160051c8101916020851061390d575b90601f859493920160051c01905b8181106138ff5750613648565b5f81558493506001016138f2565b90915081906138e4565b01519050878061360a565b5f8581528281209350601f198516905b81811061396d5750908460019594939210613955575b505050811b01905561361e565b01515f1960f88460031b161c19169055878080613948565b92936020600181928786015181550195019301613932565b909150835f5260205f20601f840160051c810191602085106139cb575b90601f859493920160051c01905b8181106139bd57506135f4565b5f81558493506001016139b0565b90915081906139a2565b0151905088806135b6565b5f8581528281209350601f198516905b818110613a2b5750908460019594939210613a13575b505050811b0190556135ca565b01515f1960f88460031b161c19169055888080613a06565b929360206001819287860151815501950193016139f0565b909150835f5260205f20601f840160051c81019160208510613a89575b90601f859493920160051c01905b818110613a7b57506135a0565b5f8155849350600101613a6e565b9091508190613a60565b015190508980613562565b5f8581528281209350601f198516905b818110613ae95750908460019594939210613ad1575b505050811b019055613576565b01515f1960f88460031b161c19169055898080613ac4565b92936020600181928786015181550195019301613aae565b909150835f5260205f20601f840160051c81019160208510613b47575b90601f859493920160051c01905b818110613b39575061354c565b5f8155849350600101613b2c565b9091508190613b1e565b015190508a8061350e565b5f8581528281209350601f198516905b818110613ba75750908460019594939210613b8f575b505050811b019055613522565b01515f1960f88460031b161c191690558a8080613b82565b92936020600181928786015181550195019301613b6c565b909150835f5260205f20601f840160051c81019160208510613c05575b90601f859493920160051c01905b818110613bf757506134f8565b5f8155849350600101613bea565b9091508190613bdc565b015190508b806134ba565b5f8581528281209350601f198516905b818110613c655750908460019594939210613c4d575b505050811b0190556134ce565b01515f1960f88460031b161c191690558b8080613c40565b92936020600181928786015181550195019301613c2a565b909150835f5260205f20601f840160051c81019160208510613cc3575b90601f859493920160051c01905b818110613cb557506134a4565b5f8155849350600101613ca8565b9091508190613c9a565b015190508c80613466565b5f8581528281209350601f198516905b818110613d235750908460019594939210613d0b575b505050811b01905561347a565b01515f1960f88460031b161c191690558c8080613cfe565b92936020600181928786015181550195019301613ce8565b909150835f5260205f20601f840160051c81019160208510613d81575b90601f859493920160051c01905b818110613d735750613450565b5f8155849350600101613d66565b9091508190613d58565b015190508d80613412565b5f8581528281209350601f198516905b818110613de15750908460019594939210613dc9575b505050811b019055613426565b01515f1960f88460031b161c191690558d8080613dbc565b92936020600181928786015181550195019301613da6565b909150835f5260205f20601f840160051c81019160208510613e3f575b90601f859493920160051c01905b818110613e3157506133fc565b5f8155849350600101613e24565b9091508190613e16565b015190508e806133be565b5f8581528281209350601f198516905b818110613e9f5750908460019594939210613e87575b505050811b0190556133d2565b01515f1960f88460031b161c191690558e8080613e7a565b92936020600181928786015181550195019301613e64565b909150835f5260205f20601f840160051c81019160208510613efd575b90601f859493920160051c01905b818110613eef57506133a8565b5f8155849350600101613ee2565b9091508190613ed4565b015190508f8061336a565b5f8581528281209350601f198516905b818110613f5d5750908460019594939210613f45575b505050811b01905561337e565b01515f1960f88460031b161c191690558f8080613f38565b92936020600181928786015181550195019301613f22565b909150835f5260205f20601f840160051c81019160208510613fbb575b90601f859493920160051c01905b818110613fad5750613354565b5f8155849350600101613fa0565b9091508190613f92565b015190508f80613316565b5f9081528281209350601f198516905b81811061401b5750908460019594939210614003575b505050811b018b5561332a565b01515f1960f88460031b161c191690558f8080613ff6565b92936020600181928786015181550195019301613fe0565b919092505f5260205f20601f840160051c81019160208510614083575b918f9291601f8695930160051c01905b81811061406d57506132ff565b90925060019193505f815501918e918493614060565b9091508190614050565b60405162461bcd60e51b815260206004820152601860248201527f4e6f74206120726567697374657265642070617469656e7400000000000000006044820152606490fd5b34610195576020366003190112610195576001600160a01b036140f3614d02565b165f8181526007602090815260408083203384529091529020546141199060ff1661538a565b5f52600460205261426a60405f206103576040519161413783614d18565b61414081614f44565b835261414e60018201614f44565b602084015261415f60028201614f44565b604084015261417060038201614f44565b606084015261418160048201614f44565b608084015261419260058201614f44565b60a08401526141a360068201614f44565b60c08401526142a26141b760078301614f44565b60e085019081526142946141cd60088501614f44565b9561010081019687526142866141e560098701614f44565b9361012083019485526142786141fd600a8901614f44565b916101408501928352614212600b8a01614f44565b9461016081019586526101c0600e61422c600c8d01614f44565b9b8c61018085015260018060a01b03600d820154166101a08501520154910152519951955191519351956040519b8c9b60c08d5260c08d0190614fe4565b908b820360208d0152614fe4565b9089820360408b0152614fe4565b908782036060890152614fe4565b908582036080870152614fe4565b9083820360a0850152614fe4565b34610195575f3660031901126101955760405180602060015491828152019060015f527fb10e2d527612073b26eecdfd717e6a320cf44b4afac2b0732d9fcbe2b7fa0cf6905f5b81811061430e5761035785610c8581870382614d50565b82546001600160a01b03168452602090930192600192830192016142f7565b3461019557602036600319011261019557600435600254811015610195576002548110156102355760025f527f405787fa12a823e0f2b7631cc41b3ba8828b3321ca811111fa75cd3aa3bb5ace01546040516001600160a01b039091168152602090f35b34610195576020366003190112610195576001600160a01b036143b2614d02565b165f52600460205260405f206143c781614f44565b906143d460018201614f44565b906143e160028201614f44565b6143ed60038301614f44565b6143f960048401614f44565b61440560058501614f44565b61441160068601614f44565b61441d60078701614f44565b61442960088801614f44565b9061443660098901614f44565b92614443600a8a01614f44565b94614450600b8b01614f44565b9661445d600c8c01614f44565b98600160a01b60019003600d8d0154169b600e01549a6040519e8f9e8f916101e083526101e0830161448e91614fe4565b828103602084015261449f91614fe4565b9080820390604001526144b191614fe4565b8d810360608f01526144c291614fe4565b8c810360808e01526144d391614fe4565b8b810360a08d01526144e491614fe4565b8a810360c08c01526144f591614fe4565b89810360e08b015261450691614fe4565b8881036101008a015261451891614fe4565b87810361012089015261452a91614fe4565b86810361014088015261453c91614fe4565b85810361016087015261454e91614fe4565b84810361018086015261456091614fe4565b916101a08401526101c08301520390f35b346101955761457f36614dc6565b90335f52600960205260ff60405f20541615614cb1576001600160a01b03165f81815260066020526040902080546001600160a01b031990811633178255600182018054909116831790558251805191939160028501916001600160401b0382116106685781906145f08454614f0c565b601f8111614c61575b50602090601f8311600114614bfe575f92614bf3575b50508160011b915f199060031b1c19161790555b6020810151805160038501916001600160401b0382116106685781906146498454614f0c565b601f8111614ba3575b50602090601f8311600114614b40575f92614b35575b50508160011b915f199060031b1c19161790555b6080810151805160068501916001600160401b0382116106685781906146a28454614f0c565b601f8111614ae5575b50602090601f8311600114614a82575f92614a77575b50508160011b915f199060031b1c19161790555b6040810151805160048501916001600160401b0382116106685781906146fb8454614f0c565b601f8111614a27575b50602090601f83116001146149c4575f926149b9575b50508160011b915f199060031b1c19161790555b6060810151805160058501916001600160401b038211610668576147528354614f0c565b601f8111614974575b50602090601f831160011461490d5760a0949392915f9183614902575b50508160011b915f199060031b1c19161790555b0151916007810183516001600160401b038111610668576147ad8254614f0c565b601f81116148bd575b50602094601f821160011461485c579481929394955f92614851575b50508160011b915f199060031b1c19161790555b600842910155600354600160401b8110156106685780600161480d92016003556003615008565b81546001600160a01b0360039290921b91821b19169083901b179055600d5461483590615368565b600d555f52600a60205260405f2061484d8154615368565b9055005b0151905085806147d2565b601f19821695835f52805f20915f5b8881106148a55750836001959697981061488d575b505050811b0190556147e6565b01515f1960f88460031b161c19169055858080614880565b9192602060018192868501518155019401920161486b565b825f5260205f20601f830160051c810191602084106148f8575b601f0160051c01905b8181106148ed57506147b6565b5f81556001016148e0565b90915081906148d7565b015190508780614778565b90601f19831691845f52815f20925f5b81811061495c575091600193918560a09897969410614944575b505050811b01905561478c565b01515f1960f88460031b161c19169055878080614937565b9293602060018192878601518155019501930161491d565b835f5260205f20601f840160051c810191602085106149af575b601f0160051c01905b8181106149a4575061475b565b5f8155600101614997565b909150819061498e565b01519050868061471a565b5f8581528281209350601f198516905b818110614a0f57509084600195949392106149f7575b505050811b01905561472e565b01515f1960f88460031b161c191690558680806149ea565b929360206001819287860151815501950193016149d4565b909150835f5260205f20601f840160051c81019160208510614a6d575b90601f859493920160051c01905b818110614a5f5750614704565b5f8155849350600101614a52565b9091508190614a44565b0151905086806146c1565b5f8581528281209350601f198516905b818110614acd5750908460019594939210614ab5575b505050811b0190556146d5565b01515f1960f88460031b161c19169055868080614aa8565b92936020600181928786015181550195019301614a92565b909150835f5260205f20601f840160051c81019160208510614b2b575b90601f859493920160051c01905b818110614b1d57506146ab565b5f8155849350600101614b10565b9091508190614b02565b015190508680614668565b5f8581528281209350601f198516905b818110614b8b5750908460019594939210614b73575b505050811b01905561467c565b01515f1960f88460031b161c19169055868080614b66565b92936020600181928786015181550195019301614b50565b909150835f5260205f20601f840160051c81019160208510614be9575b90601f859493920160051c01905b818110614bdb5750614652565b5f8155849350600101614bce565b9091508190614bc0565b01519050868061460f565b5f8581528281209350601f198516905b818110614c495750908460019594939210614c31575b505050811b019055614623565b01515f1960f88460031b161c19169055868080614c24565b92936020600181928786015181550195019301614c0e565b909150835f5260205f20601f840160051c81019160208510614ca7575b90601f859493920160051c01905b818110614c9957506145f9565b5f8155849350600101614c8c565b9091508190614c7e565b60405162461bcd60e51b8152602060048201526024808201527f4f6e6c7920646f63746f72732063616e20637265617465206170706f696e746d604482015263656e747360e01b6064820152608490fd5b600435906001600160a01b038216820361019557565b6101e081019081106001600160401b0382111761066857604052565b61012081019081106001600160401b0382111761066857604052565b90601f801991011681019081106001600160401b0382111761066857604052565b81601f82011215610195578035906001600160401b0382116106685760405192614da5601f8401601f191660200185614d50565b8284526020838301011161019557815f926020809301838601378301015290565b906040600319830112610195576004356001600160a01b038116810361019557916024356001600160401b0381116101955760c08183036003190112610195576040519160c083018381106001600160401b038211176106685760405281600401356001600160401b03811161019557816004614e4592850101614d71565b835260248201356001600160401b03811161019557816004614e6992850101614d71565b602084015260448201356001600160401b03811161019557816004614e9092850101614d71565b604084015260648201356001600160401b03811161019557816004614eb792850101614d71565b606084015260848201356001600160401b03811161019557816004614ede92850101614d71565b608084015260a4820135916001600160401b03831161019557614f049201600401614d71565b60a082015290565b90600182811c92168015614f3a575b6020831014614f2657565b634e487b7160e01b5f52602260045260245ffd5b91607f1691614f1b565b9060405191825f825492614f5784614f0c565b8084529360018116908115614fc25750600114614f7e575b50614f7c92500383614d50565b565b90505f9291925260205f20905f915b818310614fa6575050906020614f7c928201015f614f6f565b6020919350806001915483858901015201910190918492614f8d565b905060209250614f7c94915060ff191682840152151560051b8201015f614f6f565b805180835260209291819084018484015e5f828201840152601f01601f1916010190565b8054821015610235575f5260205f2001905f90565b60206040818301928281528451809452019201905f5b8181106150405750505090565b82516001600160a01b0316845260209384019390920191600101615033565b6101a0600319820112610195576004356001600160401b038111610195578161508a91600401614d71565b916024356001600160401b03811161019557826150a991600401614d71565b916044356001600160401b03811161019557816150c891600401614d71565b916064356001600160401b03811161019557826150e791600401614d71565b916084356001600160401b038111610195578161510691600401614d71565b9160a4356001600160401b038111610195578261512591600401614d71565b9160c4356001600160401b038111610195578161514491600401614d71565b9160e4356001600160401b038111610195578261516391600401614d71565b91610104356001600160401b038111610195578161518391600401614d71565b91610124356001600160401b03811161019557826151a391600401614d71565b91610144356001600160401b03811161019557816151c391600401614d71565b91610164356001600160401b03811161019557826151e391600401614d71565b9161018435906001600160401b0382116101955761520391600401614d71565b90565b95926152769461524c61525a9261523e615268966152306152039d9b9760e08e8181520190614fe4565b8c810360208e015290614fe4565b908a820360408c0152614fe4565b9088820360608a0152614fe4565b908682036080880152614fe4565b9084820360a0860152614fe4565b9160c0818403910152614fe4565b60e0600319820112610195576004356001600160401b03811161019557816152ae91600401614d71565b916024356001600160401b03811161019557826152cd91600401614d71565b916044356001600160401b03811161019557816152ec91600401614d71565b916064356001600160401b038111610195578261530b91600401614d71565b916084356001600160401b038111610195578161532a91600401614d71565b9160a4356001600160401b038111610195578261534991600401614d71565b9160c435906001600160401b0382116101955761520391600401614d71565b5f1981146153765760010190565b634e487b7160e01b5f52601160045260245ffd5b1561539157565b60405162461bcd60e51b815260206004820152600d60248201526c1058d8d95cdcc819195b9a5959609a1b6044820152606490fd5b156153cd57565b60405162461bcd60e51b815260206004820152601760248201527f4e6f742061207265676973746572656420646f63746f720000000000000000006044820152606490fdfea2646970667358221220d8ae796b452f4ccb21294ef6116d5c26aefd38cb0ddf357166be705d3585853064736f6c634300081c0033","opcodes":"PUSH1 0x80 DUP1 PUSH1 0x40 MSTORE CALLVALUE PUSH1 0x34 JUMPI PUSH0 PUSH1 0xB SSTORE PUSH0 PUSH1 0xC SSTORE PUSH0 PUSH1 0xD SSTORE PUSH0 PUSH1 0xE SSTORE CALLER PUSH1 0x1 DUP1 PUSH1 0xA0 SHL SUB NOT PUSH0 SLOAD AND OR PUSH0 SSTORE PUSH2 0x5448 SWAP1 DUP2 PUSH2 0x39 DUP3 CODECOPY RETURN JUMPDEST PUSH0 DUP1 REVERT INVALID PUSH1 0x80 PUSH1 0x40 MSTORE PUSH1 0x4 CALLDATASIZE LT ISZERO PUSH2 0x11 JUMPI PUSH0 DUP1 REVERT JUMPDEST PUSH0 CALLDATALOAD PUSH1 0xE0 SHR DUP1 PUSH3 0x1FEEEB EQ PUSH2 0x4571 JUMPI DUP1 PUSH4 0x869CFBC EQ PUSH2 0x4391 JUMPI DUP1 PUSH4 0x127CA4B4 EQ PUSH2 0x432D JUMPI DUP1 PUSH4 0x12AD1C37 EQ PUSH2 0x42B0 JUMPI DUP1 PUSH4 0x24C24B2B EQ PUSH2 0xA67 JUMPI DUP1 PUSH4 0x29E4AFBB EQ PUSH2 0x178 JUMPI DUP1 PUSH4 0x2A825BA0 EQ PUSH2 0x40D2 JUMPI DUP1 PUSH4 0x3622B7F6 EQ PUSH2 0x3297 JUMPI DUP1 PUSH4 0x3BC98280 EQ PUSH2 0x310F JUMPI DUP1 PUSH4 0x3D391F70 EQ PUSH2 0x30B4 JUMPI DUP1 PUSH4 0x4C14B38D EQ PUSH2 0x2FE5 JUMPI DUP1 PUSH4 0x625961FC EQ PUSH2 0x2F12 JUMPI DUP1 PUSH4 0x78522BC4 EQ PUSH2 0x2EF5 JUMPI DUP1 PUSH4 0x79111C1C EQ PUSH2 0x2EF5 JUMPI DUP1 PUSH4 0x8B945C6D EQ PUSH2 0x269A JUMPI DUP1 PUSH4 0x8DA5CB5B EQ PUSH2 0x2673 JUMPI DUP1 PUSH4 0x92041982 EQ PUSH2 0x244A JUMPI DUP1 PUSH4 0x96B80D08 EQ PUSH2 0x23CD JUMPI DUP1 PUSH4 0x99A363C6 EQ PUSH2 0x1472 JUMPI DUP1 PUSH4 0xA0303C41 EQ PUSH2 0xA4A JUMPI DUP1 PUSH4 0xA3BF5B9A EQ PUSH2 0x1428 JUMPI DUP1 PUSH4 0xA5ACA8BC EQ PUSH2 0xCB0 JUMPI DUP1 PUSH4 0xB13D5D94 EQ PUSH2 0xC27 JUMPI DUP1 PUSH4 0xBABB1D41 EQ PUSH2 0xBC3 JUMPI DUP1 PUSH4 0xBD6F972B EQ PUSH2 0xA84 JUMPI DUP1 PUSH4 0xC0CB24BA EQ PUSH2 0xA67 JUMPI DUP1 PUSH4 0xC190665B EQ PUSH2 0xA4A JUMPI DUP1 PUSH4 0xC3DFB22F EQ PUSH2 0x35B JUMPI DUP1 PUSH4 0xCAEE6C85 EQ PUSH2 0x249 JUMPI DUP1 PUSH4 0xE6FCE0D2 EQ PUSH2 0x1D1 JUMPI DUP1 PUSH4 0xE93A15B9 EQ PUSH2 0x199 JUMPI PUSH4 0xEEBC3FB2 EQ PUSH2 0x178 JUMPI PUSH0 DUP1 REVERT JUMPDEST CALLVALUE PUSH2 0x195 JUMPI PUSH0 CALLDATASIZE PUSH1 0x3 NOT ADD SLT PUSH2 0x195 JUMPI PUSH1 0x20 PUSH1 0xD SLOAD PUSH1 0x40 MLOAD SWAP1 DUP2 MSTORE RETURN JUMPDEST PUSH0 DUP1 REVERT JUMPDEST CALLVALUE PUSH2 0x195 JUMPI PUSH1 0x20 CALLDATASIZE PUSH1 0x3 NOT ADD SLT PUSH2 0x195 JUMPI PUSH1 0x1 PUSH1 0x1 PUSH1 0xA0 SHL SUB PUSH2 0x1BA PUSH2 0x4D02 JUMP JUMPDEST AND PUSH0 MSTORE PUSH1 0xA PUSH1 0x20 MSTORE PUSH1 0x20 PUSH1 0x40 PUSH0 KECCAK256 SLOAD PUSH1 0x40 MLOAD SWAP1 DUP2 MSTORE RETURN JUMPDEST CALLVALUE PUSH2 0x195 JUMPI PUSH1 0x20 CALLDATASIZE PUSH1 0x3 NOT ADD SLT PUSH2 0x195 JUMPI PUSH1 0x4 CALLDATALOAD PUSH1 0x3 SLOAD DUP2 LT ISZERO PUSH2 0x195 JUMPI PUSH1 0x3 SLOAD DUP2 LT ISZERO PUSH2 0x235 JUMPI PUSH1 0x3 PUSH0 MSTORE PUSH32 0xC2575A0E9E593C00F959F8C92F12DB2869C3395A3B0502D05E2516446F71F85B ADD SLOAD PUSH1 0x40 MLOAD PUSH1 0x1 PUSH1 0x1 PUSH1 0xA0 SHL SUB SWAP1 SWAP2 AND DUP2 MSTORE PUSH1 0x20 SWAP1 RETURN JUMPDEST PUSH4 0x4E487B71 PUSH1 0xE0 SHL PUSH0 MSTORE PUSH1 0x32 PUSH1 0x4 MSTORE PUSH1 0x24 PUSH0 REVERT JUMPDEST CALLVALUE PUSH2 0x195 JUMPI PUSH1 0x20 CALLDATASIZE PUSH1 0x3 NOT ADD SLT PUSH2 0x195 JUMPI PUSH1 0x1 PUSH1 0x1 PUSH1 0xA0 SHL SUB PUSH2 0x26A PUSH2 0x4D02 JUMP JUMPDEST AND DUP1 PUSH0 MSTORE PUSH1 0x9 PUSH1 0x20 MSTORE PUSH2 0x283 PUSH1 0xFF PUSH1 0x40 PUSH0 KECCAK256 SLOAD AND PUSH2 0x53C6 JUMP JUMPDEST PUSH0 MSTORE PUSH1 0x5 PUSH1 0x20 MSTORE PUSH1 0x40 PUSH0 KECCAK256 PUSH1 0x40 MLOAD SWAP1 PUSH2 0x29B DUP3 PUSH2 0x4D34 JUMP JUMPDEST PUSH2 0x2A4 DUP2 PUSH2 0x4F44 JUMP JUMPDEST DUP3 MSTORE PUSH2 0x357 PUSH2 0x2B5 PUSH1 0x1 DUP4 ADD PUSH2 0x4F44 JUMP JUMPDEST SWAP2 PUSH1 0x20 DUP5 ADD SWAP3 DUP4 MSTORE PUSH2 0x2C9 PUSH1 0x2 DUP3 ADD PUSH2 0x4F44 JUMP JUMPDEST SWAP4 PUSH1 0x40 DUP2 ADD SWAP5 DUP6 MSTORE PUSH2 0x2DD PUSH1 0x3 DUP4 ADD PUSH2 0x4F44 JUMP JUMPDEST SWAP1 PUSH1 0x60 DUP2 ADD SWAP2 DUP3 MSTORE PUSH2 0x2F1 PUSH1 0x4 DUP5 ADD PUSH2 0x4F44 JUMP JUMPDEST PUSH1 0x80 DUP3 ADD SWAP1 DUP2 MSTORE PUSH2 0x304 PUSH1 0x5 DUP6 ADD PUSH2 0x4F44 JUMP JUMPDEST SWAP2 PUSH1 0xA0 DUP2 ADD SWAP3 DUP4 MSTORE PUSH1 0x8 PUSH2 0x31A PUSH1 0x6 DUP8 ADD PUSH2 0x4F44 JUMP JUMPDEST PUSH1 0xC0 DUP4 ADD DUP2 SWAP1 MSTORE PUSH1 0x7 DUP8 ADD SLOAD PUSH1 0x1 PUSH1 0x1 PUSH1 0xA0 SHL SUB AND PUSH1 0xE0 DUP5 ADD MSTORE SWAP6 ADD SLOAD PUSH2 0x100 DUP3 ADD MSTORE MLOAD SWAP6 MLOAD SWAP7 MLOAD SWAP3 MLOAD SWAP1 MLOAD SWAP2 MLOAD PUSH1 0x40 MLOAD SWAP8 DUP9 SWAP8 SWAP2 SWAP5 SWAP2 DUP9 PUSH2 0x5206 JUMP JUMPDEST SUB SWAP1 RETURN JUMPDEST CALLVALUE PUSH2 0x195 JUMPI PUSH2 0x369 CALLDATASIZE PUSH2 0x4DC6 JUMP JUMPDEST SWAP1 CALLER PUSH0 MSTORE PUSH1 0x9 PUSH1 0x20 MSTORE PUSH1 0xFF PUSH1 0x40 PUSH0 KECCAK256 SLOAD AND ISZERO PUSH2 0x9F9 JUMPI PUSH1 0x1 DUP1 PUSH1 0xA0 SHL SUB AND PUSH0 MSTORE PUSH1 0x6 PUSH1 0x20 MSTORE PUSH1 0x40 PUSH0 KECCAK256 DUP2 MLOAD SWAP2 PUSH1 0x2 DUP3 ADD DUP4 MLOAD PUSH1 0x1 PUSH1 0x1 PUSH1 0x40 SHL SUB DUP2 GT PUSH2 0x668 JUMPI PUSH2 0x3B3 DUP3 SLOAD PUSH2 0x4F0C JUMP JUMPDEST PUSH1 0x1F DUP2 GT PUSH2 0x9B4 JUMPI JUMPDEST POP PUSH1 0x20 SWAP5 PUSH1 0x1F DUP3 GT PUSH1 0x1 EQ PUSH2 0x953 JUMPI SWAP5 DUP2 SWAP3 SWAP4 SWAP5 SWAP6 PUSH0 SWAP3 PUSH2 0x948 JUMPI JUMPDEST POP POP DUP2 PUSH1 0x1 SHL SWAP2 PUSH0 NOT SWAP1 PUSH1 0x3 SHL SHR NOT AND OR SWAP1 SSTORE JUMPDEST PUSH1 0x20 DUP2 ADD MLOAD SWAP2 PUSH1 0x3 DUP2 ADD DUP4 MLOAD PUSH1 0x1 PUSH1 0x1 PUSH1 0x40 SHL SUB DUP2 GT PUSH2 0x668 JUMPI PUSH2 0x410 DUP3 SLOAD PUSH2 0x4F0C JUMP JUMPDEST PUSH1 0x1F DUP2 GT PUSH2 0x903 JUMPI JUMPDEST POP PUSH1 0x20 SWAP5 PUSH1 0x1F DUP3 GT PUSH1 0x1 EQ PUSH2 0x8A2 JUMPI SWAP5 DUP2 SWAP3 SWAP4 SWAP5 SWAP6 PUSH0 SWAP3 PUSH2 0x897 JUMPI JUMPDEST POP POP DUP2 PUSH1 0x1 SHL SWAP2 PUSH0 NOT SWAP1 PUSH1 0x3 SHL SHR NOT AND OR SWAP1 SSTORE JUMPDEST PUSH1 0x80 DUP3 ADD MLOAD SWAP2 PUSH1 0x6 DUP3 ADD DUP4 MLOAD PUSH1 0x1 PUSH1 0x1 PUSH1 0x40 SHL SUB DUP2 GT PUSH2 0x668 JUMPI PUSH2 0x46D DUP3 SLOAD PUSH2 0x4F0C JUMP JUMPDEST PUSH1 0x1F DUP2 GT PUSH2 0x852 JUMPI JUMPDEST POP PUSH1 0x20 SWAP5 PUSH1 0x1F DUP3 GT PUSH1 0x1 EQ PUSH2 0x7F1 JUMPI SWAP5 DUP2 SWAP3 SWAP4 SWAP5 SWAP6 PUSH0 SWAP3 PUSH2 0x7E6 JUMPI JUMPDEST POP POP DUP2 PUSH1 0x1 SHL SWAP2 PUSH0 NOT SWAP1 PUSH1 0x3 SHL SHR NOT AND OR SWAP1 SSTORE JUMPDEST PUSH1 0x40 DUP2 ADD MLOAD SWAP2 PUSH1 0x4 DUP2 ADD DUP4 MLOAD PUSH1 0x1 PUSH1 0x1 PUSH1 0x40 SHL SUB DUP2 GT PUSH2 0x668 JUMPI PUSH2 0x4CA DUP3 SLOAD PUSH2 0x4F0C JUMP JUMPDEST PUSH1 0x1F DUP2 GT PUSH2 0x7A1 JUMPI JUMPDEST POP PUSH1 0x20 SWAP5 PUSH1 0x1F DUP3 GT PUSH1 0x1 EQ PUSH2 0x740 JUMPI SWAP5 DUP2 SWAP3 SWAP4 SWAP5 SWAP6 PUSH0 SWAP3 PUSH2 0x735 JUMPI JUMPDEST POP POP DUP2 PUSH1 0x1 SHL SWAP2 PUSH0 NOT SWAP1 PUSH1 0x3 SHL SHR NOT AND OR SWAP1 SSTORE JUMPDEST PUSH1 0x60 DUP3 ADD MLOAD SWAP2 PUSH1 0x5 DUP3 ADD DUP4 MLOAD PUSH1 0x1 PUSH1 0x1 PUSH1 0x40 SHL SUB DUP2 GT PUSH2 0x668 JUMPI PUSH2 0x527 DUP3 SLOAD PUSH2 0x4F0C JUMP JUMPDEST PUSH1 0x1F DUP2 GT PUSH2 0x6F0 JUMPI JUMPDEST POP PUSH1 0x20 PUSH1 0x1F DUP3 GT PUSH1 0x1 EQ PUSH2 0x687 JUMPI SWAP1 DUP1 PUSH1 0xA0 SWAP5 SWAP4 SWAP3 PUSH1 0x7 SWAP7 SWAP8 PUSH0 SWAP3 PUSH2 0x67C JUMPI JUMPDEST POP POP DUP2 PUSH1 0x1 SHL SWAP2 PUSH0 NOT SWAP1 PUSH1 0x3 SHL SHR NOT AND OR SWAP1 SSTORE JUMPDEST ADD MLOAD SWAP2 ADD DUP2 MLOAD PUSH1 0x1 PUSH1 0x1 PUSH1 0x40 SHL SUB DUP2 GT PUSH2 0x668 JUMPI PUSH2 0x582 DUP3 SLOAD PUSH2 0x4F0C JUMP JUMPDEST PUSH1 0x1F DUP2 GT PUSH2 0x623 JUMPI JUMPDEST POP PUSH1 0x20 SWAP3 PUSH1 0x1F DUP3 GT PUSH1 0x1 EQ PUSH2 0x5C7 JUMPI SWAP3 DUP2 SWAP3 SWAP4 PUSH0 SWAP3 PUSH2 0x5BC JUMPI JUMPDEST POP POP PUSH0 NOT PUSH1 0x3 DUP4 SWAP1 SHL SHR NOT AND PUSH1 0x1 SWAP2 SWAP1 SWAP2 SHL OR SWAP1 SSTORE STOP JUMPDEST ADD MLOAD SWAP1 POP DUP4 DUP1 PUSH2 0x5A5 JUMP JUMPDEST PUSH1 0x1F NOT DUP3 AND SWAP4 DUP4 PUSH0 MSTORE DUP1 PUSH0 KECCAK256 SWAP2 PUSH0 JUMPDEST DUP7 DUP2 LT PUSH2 0x60B JUMPI POP DUP4 PUSH1 0x1 SWAP6 SWAP7 LT PUSH2 0x5F3 JUMPI JUMPDEST POP POP POP DUP2 SHL ADD SWAP1 SSTORE STOP JUMPDEST ADD MLOAD PUSH0 NOT PUSH1 0xF8 DUP5 PUSH1 0x3 SHL AND SHR NOT AND SWAP1 SSTORE DUP4 DUP1 DUP1 PUSH2 0x5E9 JUMP JUMPDEST SWAP2 SWAP3 PUSH1 0x20 PUSH1 0x1 DUP2 SWAP3 DUP7 DUP6 ADD MLOAD DUP2 SSTORE ADD SWAP5 ADD SWAP3 ADD PUSH2 0x5D6 JUMP JUMPDEST DUP3 PUSH0 MSTORE PUSH1 0x20 PUSH0 KECCAK256 PUSH1 0x1F DUP4 ADD PUSH1 0x5 SHR DUP2 ADD SWAP2 PUSH1 0x20 DUP5 LT PUSH2 0x65E JUMPI JUMPDEST PUSH1 0x1F ADD PUSH1 0x5 SHR ADD SWAP1 JUMPDEST DUP2 DUP2 LT PUSH2 0x653 JUMPI POP PUSH2 0x58B JUMP JUMPDEST PUSH0 DUP2 SSTORE PUSH1 0x1 ADD PUSH2 0x646 JUMP JUMPDEST SWAP1 SWAP2 POP DUP2 SWAP1 PUSH2 0x63D JUMP JUMPDEST PUSH4 0x4E487B71 PUSH1 0xE0 SHL PUSH0 MSTORE PUSH1 0x41 PUSH1 0x4 MSTORE PUSH1 0x24 PUSH0 REVERT JUMPDEST ADD MLOAD SWAP1 POP DUP8 DUP1 PUSH2 0x550 JUMP JUMPDEST PUSH1 0x1F NOT DUP3 AND SWAP6 DUP4 PUSH0 MSTORE DUP2 PUSH0 KECCAK256 SWAP7 PUSH0 JUMPDEST DUP2 DUP2 LT PUSH2 0x6D8 JUMPI POP SWAP7 PUSH1 0x1 SWAP3 DUP5 SWAP3 PUSH1 0xA0 SWAP8 SWAP7 SWAP6 PUSH1 0x7 SWAP10 SWAP11 LT PUSH2 0x6C0 JUMPI JUMPDEST POP POP POP DUP2 SHL ADD SWAP1 SSTORE PUSH2 0x564 JUMP JUMPDEST ADD MLOAD PUSH0 NOT PUSH1 0xF8 DUP5 PUSH1 0x3 SHL AND SHR NOT AND SWAP1 SSTORE DUP8 DUP1 DUP1 PUSH2 0x6B3 JUMP JUMPDEST DUP4 DUP4 ADD MLOAD DUP10 SSTORE PUSH1 0x1 SWAP1 SWAP9 ADD SWAP8 PUSH1 0x20 SWAP4 DUP5 ADD SWAP4 ADD PUSH2 0x696 JUMP JUMPDEST DUP3 PUSH0 MSTORE PUSH1 0x20 PUSH0 KECCAK256 PUSH1 0x1F DUP4 ADD PUSH1 0x5 SHR DUP2 ADD SWAP2 PUSH1 0x20 DUP5 LT PUSH2 0x72B JUMPI JUMPDEST PUSH1 0x1F ADD PUSH1 0x5 SHR ADD SWAP1 JUMPDEST DUP2 DUP2 LT PUSH2 0x720 JUMPI POP PUSH2 0x530 JUMP JUMPDEST PUSH0 DUP2 SSTORE PUSH1 0x1 ADD PUSH2 0x713 JUMP JUMPDEST SWAP1 SWAP2 POP DUP2 SWAP1 PUSH2 0x70A JUMP JUMPDEST ADD MLOAD SWAP1 POP DUP6 DUP1 PUSH2 0x4EF JUMP JUMPDEST PUSH1 0x1F NOT DUP3 AND SWAP6 DUP4 PUSH0 MSTORE DUP1 PUSH0 KECCAK256 SWAP2 PUSH0 JUMPDEST DUP9 DUP2 LT PUSH2 0x789 JUMPI POP DUP4 PUSH1 0x1 SWAP6 SWAP7 SWAP8 SWAP9 LT PUSH2 0x771 JUMPI JUMPDEST POP POP POP DUP2 SHL ADD SWAP1 SSTORE PUSH2 0x503 JUMP JUMPDEST ADD MLOAD PUSH0 NOT PUSH1 0xF8 DUP5 PUSH1 0x3 SHL AND SHR NOT AND SWAP1 SSTORE DUP6 DUP1 DUP1 PUSH2 0x764 JUMP JUMPDEST SWAP2 SWAP3 PUSH1 0x20 PUSH1 0x1 DUP2 SWAP3 DUP7 DUP6 ADD MLOAD DUP2 SSTORE ADD SWAP5 ADD SWAP3 ADD PUSH2 0x74F JUMP JUMPDEST DUP3 PUSH0 MSTORE PUSH1 0x20 PUSH0 KECCAK256 PUSH1 0x1F DUP4 ADD PUSH1 0x5 SHR DUP2 ADD SWAP2 PUSH1 0x20 DUP5 LT PUSH2 0x7DC JUMPI JUMPDEST PUSH1 0x1F ADD PUSH1 0x5 SHR ADD SWAP1 JUMPDEST DUP2 DUP2 LT PUSH2 0x7D1 JUMPI POP PUSH2 0x4D3 JUMP JUMPDEST PUSH0 DUP2 SSTORE PUSH1 0x1 ADD PUSH2 0x7C4 JUMP JUMPDEST SWAP1 SWAP2 POP DUP2 SWAP1 PUSH2 0x7BB JUMP JUMPDEST ADD MLOAD SWAP1 POP DUP6 DUP1 PUSH2 0x492 JUMP JUMPDEST PUSH1 0x1F NOT DUP3 AND SWAP6 DUP4 PUSH0 MSTORE DUP1 PUSH0 KECCAK256 SWAP2 PUSH0 JUMPDEST DUP9 DUP2 LT PUSH2 0x83A JUMPI POP DUP4 PUSH1 0x1 SWAP6 SWAP7 SWAP8 SWAP9 LT PUSH2 0x822 JUMPI JUMPDEST POP POP POP DUP2 SHL ADD SWAP1 SSTORE PUSH2 0x4A6 JUMP JUMPDEST ADD MLOAD PUSH0 NOT PUSH1 0xF8 DUP5 PUSH1 0x3 SHL AND SHR NOT AND SWAP1 SSTORE DUP6 DUP1 DUP1 PUSH2 0x815 JUMP JUMPDEST SWAP2 SWAP3 PUSH1 0x20 PUSH1 0x1 DUP2 SWAP3 DUP7 DUP6 ADD MLOAD DUP2 SSTORE ADD SWAP5 ADD SWAP3 ADD PUSH2 0x800 JUMP JUMPDEST DUP3 PUSH0 MSTORE PUSH1 0x20 PUSH0 KECCAK256 PUSH1 0x1F DUP4 ADD PUSH1 0x5 SHR DUP2 ADD SWAP2 PUSH1 0x20 DUP5 LT PUSH2 0x88D JUMPI JUMPDEST PUSH1 0x1F ADD PUSH1 0x5 SHR ADD SWAP1 JUMPDEST DUP2 DUP2 LT PUSH2 0x882 JUMPI POP PUSH2 0x476 JUMP JUMPDEST PUSH0 DUP2 SSTORE PUSH1 0x1 ADD PUSH2 0x875 JUMP JUMPDEST SWAP1 SWAP2 POP DUP2 SWAP1 PUSH2 0x86C JUMP JUMPDEST ADD MLOAD SWAP1 POP DUP6 DUP1 PUSH2 0x435 JUMP JUMPDEST PUSH1 0x1F NOT DUP3 AND SWAP6 DUP4 PUSH0 MSTORE DUP1 PUSH0 KECCAK256 SWAP2 PUSH0 JUMPDEST DUP9 DUP2 LT PUSH2 0x8EB JUMPI POP DUP4 PUSH1 0x1 SWAP6 SWAP7 SWAP8 SWAP9 LT PUSH2 0x8D3 JUMPI JUMPDEST POP POP POP DUP2 SHL ADD SWAP1 SSTORE PUSH2 0x449 JUMP JUMPDEST ADD MLOAD PUSH0 NOT PUSH1 0xF8 DUP5 PUSH1 0x3 SHL AND SHR NOT AND SWAP1 SSTORE DUP6 DUP1 DUP1 PUSH2 0x8C6 JUMP JUMPDEST SWAP2 SWAP3 PUSH1 0x20 PUSH1 0x1 DUP2 SWAP3 DUP7 DUP6 ADD MLOAD DUP2 SSTORE ADD SWAP5 ADD SWAP3 ADD PUSH2 0x8B1 JUMP JUMPDEST DUP3 PUSH0 MSTORE PUSH1 0x20 PUSH0 KECCAK256 PUSH1 0x1F DUP4 ADD PUSH1 0x5 SHR DUP2 ADD SWAP2 PUSH1 0x20 DUP5 LT PUSH2 0x93E JUMPI JUMPDEST PUSH1 0x1F ADD PUSH1 0x5 SHR ADD SWAP1 JUMPDEST DUP2 DUP2 LT PUSH2 0x933 JUMPI POP PUSH2 0x419 JUMP JUMPDEST PUSH0 DUP2 SSTORE PUSH1 0x1 ADD PUSH2 0x926 JUMP JUMPDEST SWAP1 SWAP2 POP DUP2 SWAP1 PUSH2 0x91D JUMP JUMPDEST ADD MLOAD SWAP1 POP DUP6 DUP1 PUSH2 0x3D8 JUMP JUMPDEST PUSH1 0x1F NOT DUP3 AND SWAP6 DUP4 PUSH0 MSTORE DUP1 PUSH0 KECCAK256 SWAP2 PUSH0 JUMPDEST DUP9 DUP2 LT PUSH2 0x99C JUMPI POP DUP4 PUSH1 0x1 SWAP6 SWAP7 SWAP8 SWAP9 LT PUSH2 0x984 JUMPI JUMPDEST POP POP POP DUP2 SHL ADD SWAP1 SSTORE PUSH2 0x3EC JUMP JUMPDEST ADD MLOAD PUSH0 NOT PUSH1 0xF8 DUP5 PUSH1 0x3 SHL AND SHR NOT AND SWAP1 SSTORE DUP6 DUP1 DUP1 PUSH2 0x977 JUMP JUMPDEST SWAP2 SWAP3 PUSH1 0x20 PUSH1 0x1 DUP2 SWAP3 DUP7 DUP6 ADD MLOAD DUP2 SSTORE ADD SWAP5 ADD SWAP3 ADD PUSH2 0x962 JUMP JUMPDEST DUP3 PUSH0 MSTORE PUSH1 0x20 PUSH0 KECCAK256 PUSH1 0x1F DUP4 ADD PUSH1 0x5 SHR DUP2 ADD SWAP2 PUSH1 0x20 DUP5 LT PUSH2 0x9EF JUMPI JUMPDEST PUSH1 0x1F ADD PUSH1 0x5 SHR ADD SWAP1 JUMPDEST DUP2 DUP2 LT PUSH2 0x9E4 JUMPI POP PUSH2 0x3BC JUMP JUMPDEST PUSH0 DUP2 SSTORE PUSH1 0x1 ADD PUSH2 0x9D7 JUMP JUMPDEST SWAP1 SWAP2 POP DUP2 SWAP1 PUSH2 0x9CE JUMP JUMPDEST PUSH1 0x40 MLOAD PUSH3 0x461BCD PUSH1 0xE5 SHL DUP2 MSTORE PUSH1 0x20 PUSH1 0x4 DUP3 ADD MSTORE PUSH1 0x24 DUP1 DUP3 ADD MSTORE PUSH32 0x4F6E6C7920646F63746F72732063616E20757064617465206170706F696E746D PUSH1 0x44 DUP3 ADD MSTORE PUSH4 0x656E7473 PUSH1 0xE0 SHL PUSH1 0x64 DUP3 ADD MSTORE PUSH1 0x84 SWAP1 REVERT JUMPDEST CALLVALUE PUSH2 0x195 JUMPI PUSH0 CALLDATASIZE PUSH1 0x3 NOT ADD SLT PUSH2 0x195 JUMPI PUSH1 0x20 PUSH1 0xB SLOAD PUSH1 0x40 MLOAD SWAP1 DUP2 MSTORE RETURN JUMPDEST CALLVALUE PUSH2 0x195 JUMPI PUSH0 CALLDATASIZE PUSH1 0x3 NOT ADD SLT PUSH2 0x195 JUMPI PUSH1 0x20 PUSH1 0xE SLOAD PUSH1 0x40 MLOAD SWAP1 DUP2 MSTORE RETURN JUMPDEST CALLVALUE PUSH2 0x195 JUMPI PUSH1 0x20 CALLDATASIZE PUSH1 0x3 NOT ADD SLT PUSH2 0x195 JUMPI PUSH1 0x1 PUSH1 0x1 PUSH1 0xA0 SHL SUB PUSH2 0xAA5 PUSH2 0x4D02 JUMP JUMPDEST AND PUSH0 MSTORE PUSH1 0x4 PUSH1 0x20 MSTORE PUSH1 0x20 PUSH2 0x1C0 PUSH1 0x40 PUSH0 KECCAK256 PUSH1 0xE PUSH1 0x40 MLOAD SWAP2 PUSH2 0xAC5 DUP4 PUSH2 0x4D18 JUMP JUMPDEST PUSH2 0xACE DUP2 PUSH2 0x4F44 JUMP JUMPDEST DUP4 MSTORE PUSH2 0xADC PUSH1 0x1 DUP3 ADD PUSH2 0x4F44 JUMP JUMPDEST DUP6 DUP5 ADD MSTORE PUSH2 0xAEC PUSH1 0x2 DUP3 ADD PUSH2 0x4F44 JUMP JUMPDEST PUSH1 0x40 DUP5 ADD MSTORE PUSH2 0xAFD PUSH1 0x3 DUP3 ADD PUSH2 0x4F44 JUMP JUMPDEST PUSH1 0x60 DUP5 ADD MSTORE PUSH2 0xB0E PUSH1 0x4 DUP3 ADD PUSH2 0x4F44 JUMP JUMPDEST PUSH1 0x80 DUP5 ADD MSTORE PUSH2 0xB1F PUSH1 0x5 DUP3 ADD PUSH2 0x4F44 JUMP JUMPDEST PUSH1 0xA0 DUP5 ADD MSTORE PUSH2 0xB30 PUSH1 0x6 DUP3 ADD PUSH2 0x4F44 JUMP JUMPDEST PUSH1 0xC0 DUP5 ADD MSTORE PUSH2 0xB41 PUSH1 0x7 DUP3 ADD PUSH2 0x4F44 JUMP JUMPDEST PUSH1 0xE0 DUP5 ADD MSTORE PUSH2 0xB52 PUSH1 0x8 DUP3 ADD PUSH2 0x4F44 JUMP JUMPDEST PUSH2 0x100 DUP5 ADD MSTORE PUSH2 0xB64 PUSH1 0x9 DUP3 ADD PUSH2 0x4F44 JUMP JUMPDEST PUSH2 0x120 DUP5 ADD MSTORE PUSH2 0xB76 PUSH1 0xA DUP3 ADD PUSH2 0x4F44 JUMP JUMPDEST PUSH2 0x140 DUP5 ADD MSTORE PUSH2 0xB88 PUSH1 0xB DUP3 ADD PUSH2 0x4F44 JUMP JUMPDEST PUSH2 0x160 DUP5 ADD MSTORE PUSH2 0xB9A PUSH1 0xC DUP3 ADD PUSH2 0x4F44 JUMP JUMPDEST PUSH2 0x180 DUP5 ADD MSTORE PUSH1 0xD DUP2 ADD SLOAD PUSH1 0x1 PUSH1 0x1 PUSH1 0xA0 SHL SUB AND PUSH2 0x1A0 DUP5 ADD MSTORE ADD SLOAD SWAP2 ADD DUP2 SWAP1 MSTORE PUSH1 0x40 MLOAD SWAP1 DUP2 MSTORE RETURN JUMPDEST CALLVALUE PUSH2 0x195 JUMPI PUSH1 0x20 CALLDATASIZE PUSH1 0x3 NOT ADD SLT PUSH2 0x195 JUMPI PUSH1 0x4 CALLDATALOAD PUSH1 0x1 SLOAD DUP2 LT ISZERO PUSH2 0x195 JUMPI PUSH1 0x1 SLOAD DUP2 LT ISZERO PUSH2 0x235 JUMPI PUSH1 0x1 PUSH0 MSTORE PUSH32 0xB10E2D527612073B26EECDFD717E6A320CF44B4AFAC2B0732D9FCBE2B7FA0CF6 ADD SLOAD PUSH1 0x40 MLOAD PUSH1 0x1 PUSH1 0x1 PUSH1 0xA0 SHL SUB SWAP1 SWAP2 AND DUP2 MSTORE PUSH1 0x20 SWAP1 RETURN JUMPDEST CALLVALUE PUSH2 0x195 JUMPI PUSH0 CALLDATASIZE PUSH1 0x3 NOT ADD SLT PUSH2 0x195 JUMPI PUSH1 0x40 MLOAD DUP1 PUSH1 0x20 PUSH1 0x2 SLOAD SWAP2 DUP3 DUP2 MSTORE ADD SWAP1 PUSH1 0x2 PUSH0 MSTORE PUSH32 0x405787FA12A823E0F2B7631CC41B3BA8828B3321CA811111FA75CD3AA3BB5ACE SWAP1 PUSH0 JUMPDEST DUP2 DUP2 LT PUSH2 0xC91 JUMPI PUSH2 0x357 DUP6 PUSH2 0xC85 DUP2 DUP8 SUB DUP3 PUSH2 0x4D50 JUMP JUMPDEST PUSH1 0x40 MLOAD SWAP2 DUP3 SWAP2 DUP3 PUSH2 0x501D JUMP JUMPDEST DUP3 SLOAD PUSH1 0x1 PUSH1 0x1 PUSH1 0xA0 SHL SUB AND DUP5 MSTORE PUSH1 0x20 SWAP1 SWAP4 ADD SWAP3 PUSH1 0x1 SWAP3 DUP4 ADD SWAP3 ADD PUSH2 0xC6E JUMP JUMPDEST CALLVALUE PUSH2 0x195 JUMPI PUSH2 0xCBE CALLDATASIZE PUSH2 0x5284 JUMP JUMPDEST SWAP5 SWAP6 SWAP4 SWAP1 SWAP6 SWAP3 SWAP2 SWAP3 CALLER PUSH0 MSTORE PUSH1 0x9 PUSH1 0x20 MSTORE PUSH2 0xCDE PUSH1 0xFF PUSH1 0x40 PUSH0 KECCAK256 SLOAD AND PUSH2 0x53C6 JUMP JUMPDEST CALLER PUSH0 MSTORE PUSH1 0x5 PUSH1 0x20 MSTORE PUSH1 0x40 PUSH0 KECCAK256 SWAP5 DUP1 MLOAD SWAP1 PUSH1 0x1 PUSH1 0x1 PUSH1 0x40 SHL SUB DUP3 GT PUSH2 0x668 JUMPI DUP2 SWAP1 PUSH2 0xD08 DUP9 SLOAD PUSH2 0x4F0C JUMP JUMPDEST PUSH1 0x1F DUP2 GT PUSH2 0x13D8 JUMPI JUMPDEST POP PUSH1 0x20 SWAP1 PUSH1 0x1F DUP4 GT PUSH1 0x1 EQ PUSH2 0x1375 JUMPI PUSH0 SWAP3 PUSH2 0x136A JUMPI JUMPDEST POP POP DUP2 PUSH1 0x1 SHL SWAP2 PUSH0 NOT SWAP1 PUSH1 0x3 SHL SHR NOT AND OR DUP6 SSTORE JUMPDEST DUP1 MLOAD PUSH1 0x1 DUP7 ADD SWAP2 PUSH1 0x1 PUSH1 0x1 PUSH1 0x40 SHL SUB DUP3 GT PUSH2 0x668 JUMPI DUP2 SWAP1 PUSH2 0xD5C DUP5 SLOAD PUSH2 0x4F0C JUMP JUMPDEST PUSH1 0x1F DUP2 GT PUSH2 0x131A JUMPI JUMPDEST POP PUSH1 0x20 SWAP1 PUSH1 0x1F DUP4 GT PUSH1 0x1 EQ PUSH2 0x12B7 JUMPI PUSH0 SWAP3 PUSH2 0x12AC JUMPI JUMPDEST POP POP DUP2 PUSH1 0x1 SHL SWAP2 PUSH0 NOT SWAP1 PUSH1 0x3 SHL SHR NOT AND OR SWAP1 SSTORE JUMPDEST DUP1 MLOAD PUSH1 0x2 DUP6 ADD SWAP2 PUSH1 0x1 PUSH1 0x1 PUSH1 0x40 SHL SUB DUP3 GT PUSH2 0x668 JUMPI DUP2 SWAP1 PUSH2 0xDB0 DUP5 SLOAD PUSH2 0x4F0C JUMP JUMPDEST PUSH1 0x1F DUP2 GT PUSH2 0x125C JUMPI JUMPDEST POP PUSH1 0x20 SWAP1 PUSH1 0x1F DUP4 GT PUSH1 0x1 EQ PUSH2 0x11F9 JUMPI PUSH0 SWAP3 PUSH2 0x11EE JUMPI JUMPDEST POP POP DUP2 PUSH1 0x1 SHL SWAP2 PUSH0 NOT SWAP1 PUSH1 0x3 SHL SHR NOT AND OR SWAP1 SSTORE JUMPDEST DUP1 MLOAD PUSH1 0x3 DUP5 ADD SWAP2 PUSH1 0x1 PUSH1 0x1 PUSH1 0x40 SHL SUB DUP3 GT PUSH2 0x668 JUMPI DUP2 SWAP1 PUSH2 0xE04 DUP5 SLOAD PUSH2 0x4F0C JUMP JUMPDEST PUSH1 0x1F DUP2 GT PUSH2 0x119E JUMPI JUMPDEST POP PUSH1 0x20 SWAP1 PUSH1 0x1F DUP4 GT PUSH1 0x1 EQ PUSH2 0x113B JUMPI PUSH0 SWAP3 PUSH2 0x1130 JUMPI JUMPDEST POP POP DUP2 PUSH1 0x1 SHL SWAP2 PUSH0 NOT SWAP1 PUSH1 0x3 SHL SHR NOT AND OR SWAP1 SSTORE JUMPDEST DUP1 MLOAD PUSH1 0x4 DUP4 ADD SWAP2 PUSH1 0x1 PUSH1 0x1 PUSH1 0x40 SHL SUB DUP3 GT PUSH2 0x668 JUMPI DUP2 SWAP1 PUSH2 0xE58 DUP5 SLOAD PUSH2 0x4F0C JUMP JUMPDEST PUSH1 0x1F DUP2 GT PUSH2 0x10E0 JUMPI JUMPDEST POP PUSH1 0x20 SWAP1 PUSH1 0x1F DUP4 GT PUSH1 0x1 EQ PUSH2 0x107D JUMPI PUSH0 SWAP3 PUSH2 0x1072 JUMPI JUMPDEST POP POP DUP2 PUSH1 0x1 SHL SWAP2 PUSH0 NOT SWAP1 PUSH1 0x3 SHL SHR NOT AND OR SWAP1 SSTORE JUMPDEST PUSH1 0x5 DUP2 ADD DUP4 MLOAD PUSH1 0x1 PUSH1 0x1 PUSH1 0x40 SHL SUB DUP2 GT PUSH2 0x668 JUMPI PUSH2 0xEA9 DUP3 SLOAD PUSH2 0x4F0C JUMP JUMPDEST PUSH1 0x1F DUP2 GT PUSH2 0x102D JUMPI JUMPDEST POP PUSH1 0x20 PUSH1 0x1F DUP3 GT PUSH1 0x1 EQ PUSH2 0xFC8 JUMPI DUP2 SWAP1 PUSH1 0x6 SWAP6 SWAP7 PUSH0 SWAP3 PUSH2 0xFBD JUMPI JUMPDEST POP POP DUP2 PUSH1 0x1 SHL SWAP2 PUSH0 NOT SWAP1 PUSH1 0x3 SHL SHR NOT AND OR SWAP1 SSTORE JUMPDEST ADD DUP2 MLOAD PUSH1 0x1 PUSH1 0x1 PUSH1 0x40 SHL SUB DUP2 GT PUSH2 0x668 JUMPI PUSH2 0xEFC DUP3 SLOAD PUSH2 0x4F0C JUMP JUMPDEST PUSH1 0x1F DUP2 GT PUSH2 0xF78 JUMPI JUMPDEST POP PUSH1 0x20 SWAP3 PUSH1 0x1F DUP3 GT PUSH1 0x1 EQ PUSH2 0xF35 JUMPI SWAP3 DUP2 SWAP3 SWAP4 PUSH0 SWAP3 PUSH2 0x5BC JUMPI POP POP PUSH0 NOT PUSH1 0x3 DUP4 SWAP1 SHL SHR NOT AND PUSH1 0x1 SWAP2 SWAP1 SWAP2 SHL OR SWAP1 SSTORE STOP JUMPDEST PUSH1 0x1F NOT DUP3 AND SWAP4 DUP4 PUSH0 MSTORE DUP1 PUSH0 KECCAK256 SWAP2 PUSH0 JUMPDEST DUP7 DUP2 LT PUSH2 0xF60 JUMPI POP DUP4 PUSH1 0x1 SWAP6 SWAP7 LT PUSH2 0x5F3 JUMPI POP POP POP DUP2 SHL ADD SWAP1 SSTORE STOP JUMPDEST SWAP2 SWAP3 PUSH1 0x20 PUSH1 0x1 DUP2 SWAP3 DUP7 DUP6 ADD MLOAD DUP2 SSTORE ADD SWAP5 ADD SWAP3 ADD PUSH2 0xF44 JUMP JUMPDEST DUP3 PUSH0 MSTORE PUSH1 0x20 PUSH0 KECCAK256 PUSH1 0x1F DUP4 ADD PUSH1 0x5 SHR DUP2 ADD SWAP2 PUSH1 0x20 DUP5 LT PUSH2 0xFB3 JUMPI JUMPDEST PUSH1 0x1F ADD PUSH1 0x5 SHR ADD SWAP1 JUMPDEST DUP2 DUP2 LT PUSH2 0xFA8 JUMPI POP PUSH2 0xF05 JUMP JUMPDEST PUSH0 DUP2 SSTORE PUSH1 0x1 ADD PUSH2 0xF9B JUMP JUMPDEST SWAP1 SWAP2 POP DUP2 SWAP1 PUSH2 0xF92 JUMP JUMPDEST ADD MLOAD SWAP1 POP DUP7 DUP1 PUSH2 0xECD JUMP JUMPDEST PUSH1 0x1F NOT DUP3 AND SWAP6 DUP4 PUSH0 MSTORE DUP2 PUSH0 KECCAK256 SWAP7 PUSH0 JUMPDEST DUP2 DUP2 LT PUSH2 0x1015 JUMPI POP SWAP2 PUSH1 0x6 SWAP7 SWAP8 SWAP2 DUP5 PUSH1 0x1 SWAP6 SWAP5 LT PUSH2 0xFFD JUMPI JUMPDEST POP POP POP DUP2 SHL ADD SWAP1 SSTORE PUSH2 0xEE1 JUMP JUMPDEST ADD MLOAD PUSH0 NOT PUSH1 0xF8 DUP5 PUSH1 0x3 SHL AND SHR NOT AND SWAP1 SSTORE DUP7 DUP1 DUP1 PUSH2 0xFF0 JUMP JUMPDEST DUP4 DUP4 ADD MLOAD DUP10 SSTORE PUSH1 0x1 SWAP1 SWAP9 ADD SWAP8 PUSH1 0x20 SWAP4 DUP5 ADD SWAP4 ADD PUSH2 0xFD7 JUMP JUMPDEST DUP3 PUSH0 MSTORE PUSH1 0x20 PUSH0 KECCAK256 PUSH1 0x1F DUP4 ADD PUSH1 0x5 SHR DUP2 ADD SWAP2 PUSH1 0x20 DUP5 LT PUSH2 0x1068 JUMPI JUMPDEST PUSH1 0x1F ADD PUSH1 0x5 SHR ADD SWAP1 JUMPDEST DUP2 DUP2 LT PUSH2 0x105D JUMPI POP PUSH2 0xEB2 JUMP JUMPDEST PUSH0 DUP2 SSTORE PUSH1 0x1 ADD PUSH2 0x1050 JUMP JUMPDEST SWAP1 SWAP2 POP DUP2 SWAP1 PUSH2 0x1047 JUMP JUMPDEST ADD MLOAD SWAP1 POP DUP7 DUP1 PUSH2 0xE77 JUMP JUMPDEST PUSH0 DUP6 DUP2 MSTORE DUP3 DUP2 KECCAK256 SWAP4 POP PUSH1 0x1F NOT DUP6 AND SWAP1 JUMPDEST DUP2 DUP2 LT PUSH2 0x10C8 JUMPI POP SWAP1 DUP5 PUSH1 0x1 SWAP6 SWAP5 SWAP4 SWAP3 LT PUSH2 0x10B0 JUMPI JUMPDEST POP POP POP DUP2 SHL ADD SWAP1 SSTORE PUSH2 0xE8B JUMP JUMPDEST ADD MLOAD PUSH0 NOT PUSH1 0xF8 DUP5 PUSH1 0x3 SHL AND SHR NOT AND SWAP1 SSTORE DUP7 DUP1 DUP1 PUSH2 0x10A3 JUMP JUMPDEST SWAP3 SWAP4 PUSH1 0x20 PUSH1 0x1 DUP2 SWAP3 DUP8 DUP7 ADD MLOAD DUP2 SSTORE ADD SWAP6 ADD SWAP4 ADD PUSH2 0x108D JUMP JUMPDEST SWAP1 SWAP2 POP DUP4 PUSH0 MSTORE PUSH1 0x20 PUSH0 KECCAK256 PUSH1 0x1F DUP5 ADD PUSH1 0x5 SHR DUP2 ADD SWAP2 PUSH1 0x20 DUP6 LT PUSH2 0x1126 JUMPI JUMPDEST SWAP1 PUSH1 0x1F DUP6 SWAP5 SWAP4 SWAP3 ADD PUSH1 0x5 SHR ADD SWAP1 JUMPDEST DUP2 DUP2 LT PUSH2 0x1118 JUMPI POP PUSH2 0xE61 JUMP JUMPDEST PUSH0 DUP2 SSTORE DUP5 SWAP4 POP PUSH1 0x1 ADD PUSH2 0x110B JUMP JUMPDEST SWAP1 SWAP2 POP DUP2 SWAP1 PUSH2 0x10FD JUMP JUMPDEST ADD MLOAD SWAP1 POP DUP8 DUP1 PUSH2 0xE23 JUMP JUMPDEST PUSH0 DUP6 DUP2 MSTORE DUP3 DUP2 KECCAK256 SWAP4 POP PUSH1 0x1F NOT DUP6 AND SWAP1 JUMPDEST DUP2 DUP2 LT PUSH2 0x1186 JUMPI POP SWAP1 DUP5 PUSH1 0x1 SWAP6 SWAP5 SWAP4 SWAP3 LT PUSH2 0x116E JUMPI JUMPDEST POP POP POP DUP2 SHL ADD SWAP1 SSTORE PUSH2 0xE37 JUMP JUMPDEST ADD MLOAD PUSH0 NOT PUSH1 0xF8 DUP5 PUSH1 0x3 SHL AND SHR NOT AND SWAP1 SSTORE DUP8 DUP1 DUP1 PUSH2 0x1161 JUMP JUMPDEST SWAP3 SWAP4 PUSH1 0x20 PUSH1 0x1 DUP2 SWAP3 DUP8 DUP7 ADD MLOAD DUP2 SSTORE ADD SWAP6 ADD SWAP4 ADD PUSH2 0x114B JUMP JUMPDEST SWAP1 SWAP2 POP DUP4 PUSH0 MSTORE PUSH1 0x20 PUSH0 KECCAK256 PUSH1 0x1F DUP5 ADD PUSH1 0x5 SHR DUP2 ADD SWAP2 PUSH1 0x20 DUP6 LT PUSH2 0x11E4 JUMPI JUMPDEST SWAP1 PUSH1 0x1F DUP6 SWAP5 SWAP4 SWAP3 ADD PUSH1 0x5 SHR ADD SWAP1 JUMPDEST DUP2 DUP2 LT PUSH2 0x11D6 JUMPI POP PUSH2 0xE0D JUMP JUMPDEST PUSH0 DUP2 SSTORE DUP5 SWAP4 POP PUSH1 0x1 ADD PUSH2 0x11C9 JUMP JUMPDEST SWAP1 SWAP2 POP DUP2 SWAP1 PUSH2 0x11BB JUMP JUMPDEST ADD MLOAD SWAP1 POP DUP9 DUP1 PUSH2 0xDCF JUMP JUMPDEST PUSH0 DUP6 DUP2 MSTORE DUP3 DUP2 KECCAK256 SWAP4 POP PUSH1 0x1F NOT DUP6 AND SWAP1 JUMPDEST DUP2 DUP2 LT PUSH2 0x1244 JUMPI POP SWAP1 DUP5 PUSH1 0x1 SWAP6 SWAP5 SWAP4 SWAP3 LT PUSH2 0x122C JUMPI JUMPDEST POP POP POP DUP2 SHL ADD SWAP1 SSTORE PUSH2 0xDE3 JUMP JUMPDEST ADD MLOAD PUSH0 NOT PUSH1 0xF8 DUP5 PUSH1 0x3 SHL AND SHR NOT AND SWAP1 SSTORE DUP9 DUP1 DUP1 PUSH2 0x121F JUMP JUMPDEST SWAP3 SWAP4 PUSH1 0x20 PUSH1 0x1 DUP2 SWAP3 DUP8 DUP7 ADD MLOAD DUP2 SSTORE ADD SWAP6 ADD SWAP4 ADD PUSH2 0x1209 JUMP JUMPDEST SWAP1 SWAP2 POP DUP4 PUSH0 MSTORE PUSH1 0x20 PUSH0 KECCAK256 PUSH1 0x1F DUP5 ADD PUSH1 0x5 SHR DUP2 ADD SWAP2 PUSH1 0x20 DUP6 LT PUSH2 0x12A2 JUMPI JUMPDEST SWAP1 PUSH1 0x1F DUP6 SWAP5 SWAP4 SWAP3 ADD PUSH1 0x5 SHR ADD SWAP1 JUMPDEST DUP2 DUP2 LT PUSH2 0x1294 JUMPI POP PUSH2 0xDB9 JUMP JUMPDEST PUSH0 DUP2 SSTORE DUP5 SWAP4 POP PUSH1 0x1 ADD PUSH2 0x1287 JUMP JUMPDEST SWAP1 SWAP2 POP DUP2 SWAP1 PUSH2 0x1279 JUMP JUMPDEST ADD MLOAD SWAP1 POP DUP10 DUP1 PUSH2 0xD7B JUMP JUMPDEST PUSH0 DUP6 DUP2 MSTORE DUP3 DUP2 KECCAK256 SWAP4 POP PUSH1 0x1F NOT DUP6 AND SWAP1 JUMPDEST DUP2 DUP2 LT PUSH2 0x1302 JUMPI POP SWAP1 DUP5 PUSH1 0x1 SWAP6 SWAP5 SWAP4 SWAP3 LT PUSH2 0x12EA JUMPI JUMPDEST POP POP POP DUP2 SHL ADD SWAP1 SSTORE PUSH2 0xD8F JUMP JUMPDEST ADD MLOAD PUSH0 NOT PUSH1 0xF8 DUP5 PUSH1 0x3 SHL AND SHR NOT AND SWAP1 SSTORE DUP10 DUP1 DUP1 PUSH2 0x12DD JUMP JUMPDEST SWAP3 SWAP4 PUSH1 0x20 PUSH1 0x1 DUP2 SWAP3 DUP8 DUP7 ADD MLOAD DUP2 SSTORE ADD SWAP6 ADD SWAP4 ADD PUSH2 0x12C7 JUMP JUMPDEST SWAP1 SWAP2 POP DUP4 PUSH0 MSTORE PUSH1 0x20 PUSH0 KECCAK256 PUSH1 0x1F DUP5 ADD PUSH1 0x5 SHR DUP2 ADD SWAP2 PUSH1 0x20 DUP6 LT PUSH2 0x1360 JUMPI JUMPDEST SWAP1 PUSH1 0x1F DUP6 SWAP5 SWAP4 SWAP3 ADD PUSH1 0x5 SHR ADD SWAP1 JUMPDEST DUP2 DUP2 LT PUSH2 0x1352 JUMPI POP PUSH2 0xD65 JUMP JUMPDEST PUSH0 DUP2 SSTORE DUP5 SWAP4 POP PUSH1 0x1 ADD PUSH2 0x1345 JUMP JUMPDEST SWAP1 SWAP2 POP DUP2 SWAP1 PUSH2 0x1337 JUMP JUMPDEST ADD MLOAD SWAP1 POP DUP10 DUP1 PUSH2 0xD27 JUMP JUMPDEST PUSH0 DUP10 DUP2 MSTORE DUP3 DUP2 KECCAK256 SWAP4 POP PUSH1 0x1F NOT DUP6 AND SWAP1 JUMPDEST DUP2 DUP2 LT PUSH2 0x13C0 JUMPI POP SWAP1 DUP5 PUSH1 0x1 SWAP6 SWAP5 SWAP4 SWAP3 LT PUSH2 0x13A8 JUMPI JUMPDEST POP POP POP DUP2 SHL ADD DUP6 SSTORE PUSH2 0xD3B JUMP JUMPDEST ADD MLOAD PUSH0 NOT PUSH1 0xF8 DUP5 PUSH1 0x3 SHL AND SHR NOT AND SWAP1 SSTORE DUP10 DUP1 DUP1 PUSH2 0x139B JUMP JUMPDEST SWAP3 SWAP4 PUSH1 0x20 PUSH1 0x1 DUP2 SWAP3 DUP8 DUP7 ADD MLOAD DUP2 SSTORE ADD SWAP6 ADD SWAP4 ADD PUSH2 0x1385 JUMP JUMPDEST SWAP1 SWAP2 POP DUP8 PUSH0 MSTORE PUSH1 0x20 PUSH0 KECCAK256 PUSH1 0x1F DUP5 ADD PUSH1 0x5 SHR DUP2 ADD SWAP2 PUSH1 0x20 DUP6 LT PUSH2 0x141E JUMPI JUMPDEST SWAP1 PUSH1 0x1F DUP6 SWAP5 SWAP4 SWAP3 ADD PUSH1 0x5 SHR ADD SWAP1 JUMPDEST DUP2 DUP2 LT PUSH2 0x1410 JUMPI POP PUSH2 0xD11 JUMP JUMPDEST PUSH0 DUP2 SSTORE DUP5 SWAP4 POP PUSH1 0x1 ADD PUSH2 0x1403 JUMP JUMPDEST SWAP1 SWAP2 POP DUP2 SWAP1 PUSH2 0x13F5 JUMP JUMPDEST CALLVALUE PUSH2 0x195 JUMPI PUSH1 0x20 CALLDATASIZE PUSH1 0x3 NOT ADD SLT PUSH2 0x195 JUMPI PUSH2 0x1441 PUSH2 0x4D02 JUMP JUMPDEST CALLER PUSH0 MSTORE PUSH1 0x7 PUSH1 0x20 MSTORE PUSH1 0x40 PUSH0 KECCAK256 SWAP1 PUSH1 0x1 DUP1 PUSH1 0xA0 SHL SUB AND PUSH0 MSTORE PUSH1 0x20 MSTORE PUSH1 0x40 PUSH0 KECCAK256 PUSH1 0xFF NOT DUP2 SLOAD AND SWAP1 SSTORE PUSH1 0x20 PUSH1 0x40 MLOAD PUSH1 0x1 DUP2 MSTORE RETURN JUMPDEST CALLVALUE PUSH2 0x195 JUMPI PUSH2 0x149D PUSH2 0x1483 CALLDATASIZE PUSH2 0x505F JUMP JUMPDEST SWAP12 PUSH1 0x40 SWAP12 SWAP2 SWAP12 SWAP11 SWAP3 SWAP11 SWAP10 SWAP4 SWAP10 SWAP9 SWAP5 SWAP9 SWAP8 SWAP6 SWAP8 MLOAD SWAP14 DUP15 PUSH2 0x4D18 JUMP JUMPDEST DUP14 MSTORE PUSH1 0x20 DUP14 ADD MSTORE PUSH1 0x40 DUP13 ADD MSTORE PUSH1 0x60 DUP12 ADD MSTORE PUSH1 0x80 DUP11 ADD MSTORE PUSH1 0xA0 DUP10 ADD MSTORE PUSH1 0xC0 DUP9 ADD MSTORE PUSH1 0xE0 DUP8 ADD MSTORE PUSH2 0x100 DUP7 ADD MSTORE PUSH2 0x120 DUP6 ADD MSTORE PUSH2 0x140 DUP5 ADD MSTORE PUSH2 0x160 DUP4 ADD MSTORE PUSH2 0x180 DUP3 ADD SWAP1 DUP2 MSTORE CALLER PUSH2 0x1A0 DUP4 ADD MSTORE TIMESTAMP PUSH2 0x1C0 DUP4 ADD MSTORE CALLER PUSH0 MSTORE PUSH1 0x4 PUSH1 0x20 MSTORE PUSH1 0x40 PUSH0 KECCAK256 DUP3 MLOAD SWAP3 DUP4 MLOAD PUSH1 0x1 PUSH1 0x1 PUSH1 0x40 SHL SUB DUP2 GT PUSH2 0x668 JUMPI PUSH2 0x1519 DUP4 SLOAD PUSH2 0x4F0C JUMP JUMPDEST PUSH1 0x1F DUP2 GT PUSH2 0x238C JUMPI JUMPDEST POP PUSH1 0x20 PUSH1 0x1F DUP3 GT PUSH1 0x1 EQ PUSH2 0x2328 JUMPI DUP2 SWAP3 SWAP4 SWAP5 SWAP6 PUSH0 SWAP3 PUSH2 0x231D JUMPI JUMPDEST POP POP DUP2 PUSH1 0x1 SHL SWAP2 PUSH0 NOT SWAP1 PUSH1 0x3 SHL SHR NOT AND OR DUP3 SSTORE JUMPDEST PUSH1 0x1 DUP3 ADD PUSH1 0x20 DUP3 ADD MLOAD DUP1 MLOAD SWAP1 PUSH1 0x1 PUSH1 0x1 PUSH1 0x40 SHL SUB DUP3 GT PUSH2 0x668 JUMPI DUP2 SWAP1 PUSH2 0x1576 DUP5 SLOAD PUSH2 0x4F0C JUMP JUMPDEST PUSH1 0x1F DUP2 GT PUSH2 0x22CD JUMPI JUMPDEST POP PUSH1 0x20 SWAP1 PUSH1 0x1F DUP4 GT PUSH1 0x1 EQ PUSH2 0x226A JUMPI PUSH0 SWAP3 PUSH2 0x225F JUMPI JUMPDEST POP POP DUP2 PUSH1 0x1 SHL SWAP2 PUSH0 NOT SWAP1 PUSH1 0x3 SHL SHR NOT AND OR SWAP1 SSTORE JUMPDEST PUSH1 0x2 DUP3 ADD PUSH1 0x40 DUP3 ADD MLOAD DUP1 MLOAD SWAP1 PUSH1 0x1 PUSH1 0x1 PUSH1 0x40 SHL SUB DUP3 GT PUSH2 0x668 JUMPI DUP2 SWAP1 PUSH2 0x15CF DUP5 SLOAD PUSH2 0x4F0C JUMP JUMPDEST PUSH1 0x1F DUP2 GT PUSH2 0x220F JUMPI JUMPDEST POP PUSH1 0x20 SWAP1 PUSH1 0x1F DUP4 GT PUSH1 0x1 EQ PUSH2 0x21AC JUMPI PUSH0 SWAP3 PUSH2 0x21A1 JUMPI JUMPDEST POP POP DUP2 PUSH1 0x1 SHL SWAP2 PUSH0 NOT SWAP1 PUSH1 0x3 SHL SHR NOT AND OR SWAP1 SSTORE JUMPDEST PUSH1 0x3 DUP3 ADD PUSH1 0x60 DUP3 ADD MLOAD DUP1 MLOAD SWAP1 PUSH1 0x1 PUSH1 0x1 PUSH1 0x40 SHL SUB DUP3 GT PUSH2 0x668 JUMPI DUP2 SWAP1 PUSH2 0x1628 DUP5 SLOAD PUSH2 0x4F0C JUMP JUMPDEST PUSH1 0x1F DUP2 GT PUSH2 0x2151 JUMPI JUMPDEST POP PUSH1 0x20 SWAP1 PUSH1 0x1F DUP4 GT PUSH1 0x1 EQ PUSH2 0x20EE JUMPI PUSH0 SWAP3 PUSH2 0x20E3 JUMPI JUMPDEST POP POP DUP2 PUSH1 0x1 SHL SWAP2 PUSH0 NOT SWAP1 PUSH1 0x3 SHL SHR NOT AND OR SWAP1 SSTORE JUMPDEST PUSH1 0x4 DUP3 ADD PUSH1 0x80 DUP3 ADD MLOAD DUP1 MLOAD SWAP1 PUSH1 0x1 PUSH1 0x1 PUSH1 0x40 SHL SUB DUP3 GT PUSH2 0x668 JUMPI DUP2 SWAP1 PUSH2 0x1681 DUP5 SLOAD PUSH2 0x4F0C JUMP JUMPDEST PUSH1 0x1F DUP2 GT PUSH2 0x2093 JUMPI JUMPDEST POP PUSH1 0x20 SWAP1 PUSH1 0x1F DUP4 GT PUSH1 0x1 EQ PUSH2 0x2030 JUMPI PUSH0 SWAP3 PUSH2 0x2025 JUMPI JUMPDEST POP POP DUP2 PUSH1 0x1 SHL SWAP2 PUSH0 NOT SWAP1 PUSH1 0x3 SHL SHR NOT AND OR SWAP1 SSTORE JUMPDEST PUSH1 0x5 DUP3 ADD PUSH1 0xA0 DUP3 ADD MLOAD DUP1 MLOAD SWAP1 PUSH1 0x1 PUSH1 0x1 PUSH1 0x40 SHL SUB DUP3 GT PUSH2 0x668 JUMPI DUP2 SWAP1 PUSH2 0x16DA DUP5 SLOAD PUSH2 0x4F0C JUMP JUMPDEST PUSH1 0x1F DUP2 GT PUSH2 0x1FD5 JUMPI JUMPDEST POP PUSH1 0x20 SWAP1 PUSH1 0x1F DUP4 GT PUSH1 0x1 EQ PUSH2 0x1F72 JUMPI PUSH0 SWAP3 PUSH2 0x1F67 JUMPI JUMPDEST POP POP DUP2 PUSH1 0x1 SHL SWAP2 PUSH0 NOT SWAP1 PUSH1 0x3 SHL SHR NOT AND OR SWAP1 SSTORE JUMPDEST PUSH1 0x6 DUP3 ADD PUSH1 0xC0 DUP3 ADD MLOAD DUP1 MLOAD SWAP1 PUSH1 0x1 PUSH1 0x1 PUSH1 0x40 SHL SUB DUP3 GT PUSH2 0x668 JUMPI DUP2 SWAP1 PUSH2 0x1733 DUP5 SLOAD PUSH2 0x4F0C JUMP JUMPDEST PUSH1 0x1F DUP2 GT PUSH2 0x1F17 JUMPI JUMPDEST POP PUSH1 0x20 SWAP1 PUSH1 0x1F DUP4 GT PUSH1 0x1 EQ PUSH2 0x1EB4 JUMPI PUSH0 SWAP3 PUSH2 0x1EA9 JUMPI JUMPDEST POP POP DUP2 PUSH1 0x1 SHL SWAP2 PUSH0 NOT SWAP1 PUSH1 0x3 SHL SHR NOT AND OR SWAP1 SSTORE JUMPDEST PUSH1 0x7 DUP3 ADD PUSH1 0xE0 DUP3 ADD MLOAD DUP1 MLOAD SWAP1 PUSH1 0x1 PUSH1 0x1 PUSH1 0x40 SHL SUB DUP3 GT PUSH2 0x668 JUMPI DUP2 SWAP1 PUSH2 0x178C DUP5 SLOAD PUSH2 0x4F0C JUMP JUMPDEST PUSH1 0x1F DUP2 GT PUSH2 0x1E59 JUMPI JUMPDEST POP PUSH1 0x20 SWAP1 PUSH1 0x1F DUP4 GT PUSH1 0x1 EQ PUSH2 0x1DF6 JUMPI PUSH0 SWAP3 PUSH2 0x1DEB JUMPI JUMPDEST POP POP DUP2 PUSH1 0x1 SHL SWAP2 PUSH0 NOT SWAP1 PUSH1 0x3 SHL SHR NOT AND OR SWAP1 SSTORE JUMPDEST PUSH1 0x8 DUP3 ADD PUSH2 0x100 DUP3 ADD MLOAD DUP1 MLOAD SWAP1 PUSH1 0x1 PUSH1 0x1 PUSH1 0x40 SHL SUB DUP3 GT PUSH2 0x668 JUMPI DUP2 SWAP1 PUSH2 0x17E6 DUP5 SLOAD PUSH2 0x4F0C JUMP JUMPDEST PUSH1 0x1F DUP2 GT PUSH2 0x1D9B JUMPI JUMPDEST POP PUSH1 0x20 SWAP1 PUSH1 0x1F DUP4 GT PUSH1 0x1 EQ PUSH2 0x1D38 JUMPI PUSH0 SWAP3 PUSH2 0x1D2D JUMPI JUMPDEST POP POP DUP2 PUSH1 0x1 SHL SWAP2 PUSH0 NOT SWAP1 PUSH1 0x3 SHL SHR NOT AND OR SWAP1 SSTORE JUMPDEST PUSH1 0x9 DUP3 ADD PUSH2 0x120 DUP3 ADD MLOAD DUP1 MLOAD SWAP1 PUSH1 0x1 PUSH1 0x1 PUSH1 0x40 SHL SUB DUP3 GT PUSH2 0x668 JUMPI DUP2 SWAP1 PUSH2 0x1840 DUP5 SLOAD PUSH2 0x4F0C JUMP JUMPDEST PUSH1 0x1F DUP2 GT PUSH2 0x1CDD JUMPI JUMPDEST POP PUSH1 0x20 SWAP1 PUSH1 0x1F DUP4 GT PUSH1 0x1 EQ PUSH2 0x1C7A JUMPI PUSH0 SWAP3 PUSH2 0x1C6F JUMPI JUMPDEST POP POP DUP2 PUSH1 0x1 SHL SWAP2 PUSH0 NOT SWAP1 PUSH1 0x3 SHL SHR NOT AND OR SWAP1 SSTORE JUMPDEST PUSH1 0xA DUP3 ADD PUSH2 0x140 DUP3 ADD MLOAD DUP1 MLOAD SWAP1 PUSH1 0x1 PUSH1 0x1 PUSH1 0x40 SHL SUB DUP3 GT PUSH2 0x668 JUMPI DUP2 SWAP1 PUSH2 0x189A DUP5 SLOAD PUSH2 0x4F0C JUMP JUMPDEST PUSH1 0x1F DUP2 GT PUSH2 0x1C1F JUMPI JUMPDEST POP PUSH1 0x20 SWAP1 PUSH1 0x1F DUP4 GT PUSH1 0x1 EQ PUSH2 0x1BBC JUMPI PUSH0 SWAP3 PUSH2 0x1BB1 JUMPI JUMPDEST POP POP DUP2 PUSH1 0x1 SHL SWAP2 PUSH0 NOT SWAP1 PUSH1 0x3 SHL SHR NOT AND OR SWAP1 SSTORE JUMPDEST PUSH1 0xB DUP3 ADD PUSH2 0x160 DUP3 ADD MLOAD DUP1 MLOAD SWAP1 PUSH1 0x1 PUSH1 0x1 PUSH1 0x40 SHL SUB DUP3 GT PUSH2 0x668 JUMPI DUP2 SWAP1 PUSH2 0x18F4 DUP5 SLOAD PUSH2 0x4F0C JUMP JUMPDEST PUSH1 0x1F DUP2 GT PUSH2 0x1B61 JUMPI JUMPDEST POP PUSH1 0x20 SWAP1 PUSH1 0x1F DUP4 GT PUSH1 0x1 EQ PUSH2 0x1AFE JUMPI PUSH0 SWAP3 PUSH2 0x1AF3 JUMPI JUMPDEST POP POP DUP2 PUSH1 0x1 SHL SWAP2 PUSH0 NOT SWAP1 PUSH1 0x3 SHL SHR NOT AND OR SWAP1 SSTORE JUMPDEST PUSH1 0xC DUP3 ADD SWAP3 MLOAD SWAP3 DUP4 MLOAD PUSH1 0x1 PUSH1 0x1 PUSH1 0x40 SHL SUB DUP2 GT PUSH2 0x668 JUMPI PUSH2 0x1948 DUP3 SLOAD PUSH2 0x4F0C JUMP JUMPDEST PUSH1 0x1F DUP2 GT PUSH2 0x1AAE JUMPI JUMPDEST POP PUSH1 0x20 PUSH1 0x1F DUP3 GT PUSH1 0x1 EQ PUSH2 0x1A44 JUMPI SWAP1 DUP1 PUSH2 0x1C0 SWAP5 SWAP4 SWAP3 PUSH1 0xE SWAP7 SWAP8 PUSH0 SWAP3 PUSH2 0x1A39 JUMPI JUMPDEST POP POP DUP2 PUSH1 0x1 SHL SWAP2 PUSH0 NOT SWAP1 PUSH1 0x3 SHL SHR NOT AND OR SWAP1 SSTORE JUMPDEST PUSH2 0x1A0 DUP2 ADD MLOAD PUSH1 0xD DUP6 ADD DUP1 SLOAD PUSH1 0x1 PUSH1 0x1 PUSH1 0xA0 SHL SUB NOT AND PUSH1 0x1 PUSH1 0x1 PUSH1 0xA0 SHL SUB SWAP3 SWAP1 SWAP3 AND SWAP2 SWAP1 SWAP2 OR SWAP1 SSTORE ADD MLOAD SWAP2 ADD SSTORE PUSH1 0x1 SLOAD PUSH1 0x1 PUSH1 0x40 SHL DUP2 LT ISZERO PUSH2 0x668 JUMPI DUP1 PUSH1 0x1 PUSH2 0x19D4 SWAP3 ADD PUSH1 0x1 SSTORE PUSH1 0x1 PUSH2 0x5008 JUMP JUMPDEST DUP2 SLOAD PUSH1 0x1 PUSH1 0x1 PUSH1 0xA0 SHL SUB PUSH1 0x3 SWAP3 SWAP1 SWAP3 SHL SWAP2 DUP3 SHL NOT AND CALLER SWAP2 DUP3 SWAP1 SHL OR SWAP1 SWAP2 SSTORE PUSH0 SWAP1 DUP2 MSTORE PUSH1 0x8 PUSH1 0x20 SWAP1 DUP2 MSTORE PUSH1 0x40 DUP1 DUP4 KECCAK256 DUP1 SLOAD PUSH1 0xFF NOT SWAP1 DUP2 AND PUSH1 0x1 SWAP1 DUP2 OR SWAP1 SWAP3 SSTORE PUSH1 0x7 DUP5 MSTORE DUP3 DUP6 KECCAK256 SWAP1 SWAP4 MSTORE SWAP3 KECCAK256 DUP1 SLOAD SWAP1 SWAP2 AND SWAP1 SWAP2 OR SWAP1 SSTORE PUSH1 0xB SLOAD PUSH2 0x1A34 SWAP1 PUSH2 0x5368 JUMP JUMPDEST PUSH1 0xB SSTORE STOP JUMPDEST ADD MLOAD SWAP1 POP DUP8 DUP1 PUSH2 0x1972 JUMP JUMPDEST PUSH1 0x1F NOT DUP3 AND SWAP6 DUP4 PUSH0 MSTORE DUP2 PUSH0 KECCAK256 SWAP7 PUSH0 JUMPDEST DUP2 DUP2 LT PUSH2 0x1A96 JUMPI POP SWAP7 PUSH1 0x1 SWAP3 DUP5 SWAP3 PUSH2 0x1C0 SWAP8 SWAP7 SWAP6 PUSH1 0xE SWAP10 SWAP11 LT PUSH2 0x1A7E JUMPI JUMPDEST POP POP POP DUP2 SHL ADD SWAP1 SSTORE PUSH2 0x1986 JUMP JUMPDEST ADD MLOAD PUSH0 NOT PUSH1 0xF8 DUP5 PUSH1 0x3 SHL AND SHR NOT AND SWAP1 SSTORE DUP8 DUP1 DUP1 PUSH2 0x1A71 JUMP JUMPDEST DUP4 DUP4 ADD MLOAD DUP10 SSTORE PUSH1 0x1 SWAP1 SWAP9 ADD SWAP8 PUSH1 0x20 SWAP4 DUP5 ADD SWAP4 ADD PUSH2 0x1A53 JUMP JUMPDEST DUP3 PUSH0 MSTORE PUSH1 0x20 PUSH0 KECCAK256 PUSH1 0x1F DUP4 ADD PUSH1 0x5 SHR DUP2 ADD SWAP2 PUSH1 0x20 DUP5 LT PUSH2 0x1AE9 JUMPI JUMPDEST PUSH1 0x1F ADD PUSH1 0x5 SHR ADD SWAP1 JUMPDEST DUP2 DUP2 LT PUSH2 0x1ADE JUMPI POP PUSH2 0x1951 JUMP JUMPDEST PUSH0 DUP2 SSTORE PUSH1 0x1 ADD PUSH2 0x1AD1 JUMP JUMPDEST SWAP1 SWAP2 POP DUP2 SWAP1 PUSH2 0x1AC8 JUMP JUMPDEST ADD MLOAD SWAP1 POP DUP7 DUP1 PUSH2 0x1913 JUMP JUMPDEST PUSH0 DUP6 DUP2 MSTORE DUP3 DUP2 KECCAK256 SWAP4 POP PUSH1 0x1F NOT DUP6 AND SWAP1 JUMPDEST DUP2 DUP2 LT PUSH2 0x1B49 JUMPI POP SWAP1 DUP5 PUSH1 0x1 SWAP6 SWAP5 SWAP4 SWAP3 LT PUSH2 0x1B31 JUMPI JUMPDEST POP POP POP DUP2 SHL ADD SWAP1 SSTORE PUSH2 0x1927 JUMP JUMPDEST ADD MLOAD PUSH0 NOT PUSH1 0xF8 DUP5 PUSH1 0x3 SHL AND SHR NOT AND SWAP1 SSTORE DUP7 DUP1 DUP1 PUSH2 0x1B24 JUMP JUMPDEST SWAP3 SWAP4 PUSH1 0x20 PUSH1 0x1 DUP2 SWAP3 DUP8 DUP7 ADD MLOAD DUP2 SSTORE ADD SWAP6 ADD SWAP4 ADD PUSH2 0x1B0E JUMP JUMPDEST SWAP1 SWAP2 POP DUP4 PUSH0 MSTORE PUSH1 0x20 PUSH0 KECCAK256 PUSH1 0x1F DUP5 ADD PUSH1 0x5 SHR DUP2 ADD SWAP2 PUSH1 0x20 DUP6 LT PUSH2 0x1BA7 JUMPI JUMPDEST SWAP1 PUSH1 0x1F DUP6 SWAP5 SWAP4 SWAP3 ADD PUSH1 0x5 SHR ADD SWAP1 JUMPDEST DUP2 DUP2 LT PUSH2 0x1B99 JUMPI POP PUSH2 0x18FD JUMP JUMPDEST PUSH0 DUP2 SSTORE DUP5 SWAP4 POP PUSH1 0x1 ADD PUSH2 0x1B8C JUMP JUMPDEST SWAP1 SWAP2 POP DUP2 SWAP1 PUSH2 0x1B7E JUMP JUMPDEST ADD MLOAD SWAP1 POP DUP7 DUP1 PUSH2 0x18B9 JUMP JUMPDEST PUSH0 DUP6 DUP2 MSTORE DUP3 DUP2 KECCAK256 SWAP4 POP PUSH1 0x1F NOT DUP6 AND SWAP1 JUMPDEST DUP2 DUP2 LT PUSH2 0x1C07 JUMPI POP SWAP1 DUP5 PUSH1 0x1 SWAP6 SWAP5 SWAP4 SWAP3 LT PUSH2 0x1BEF JUMPI JUMPDEST POP POP POP DUP2 SHL ADD SWAP1 SSTORE PUSH2 0x18CD JUMP JUMPDEST ADD MLOAD PUSH0 NOT PUSH1 0xF8 DUP5 PUSH1 0x3 SHL AND SHR NOT AND SWAP1 SSTORE DUP7 DUP1 DUP1 PUSH2 0x1BE2 JUMP JUMPDEST SWAP3 SWAP4 PUSH1 0x20 PUSH1 0x1 DUP2 SWAP3 DUP8 DUP7 ADD MLOAD DUP2 SSTORE ADD SWAP6 ADD SWAP4 ADD PUSH2 0x1BCC JUMP JUMPDEST SWAP1 SWAP2 POP DUP4 PUSH0 MSTORE PUSH1 0x20 PUSH0 KECCAK256 PUSH1 0x1F DUP5 ADD PUSH1 0x5 SHR DUP2 ADD SWAP2 PUSH1 0x20 DUP6 LT PUSH2 0x1C65 JUMPI JUMPDEST SWAP1 PUSH1 0x1F DUP6 SWAP5 SWAP4 SWAP3 ADD PUSH1 0x5 SHR ADD SWAP1 JUMPDEST DUP2 DUP2 LT PUSH2 0x1C57 JUMPI POP PUSH2 0x18A3 JUMP JUMPDEST PUSH0 DUP2 SSTORE DUP5 SWAP4 POP PUSH1 0x1 ADD PUSH2 0x1C4A JUMP JUMPDEST SWAP1 SWAP2 POP DUP2 SWAP1 PUSH2 0x1C3C JUMP JUMPDEST ADD MLOAD SWAP1 POP DUP7 DUP1 PUSH2 0x185F JUMP JUMPDEST PUSH0 DUP6 DUP2 MSTORE DUP3 DUP2 KECCAK256 SWAP4 POP PUSH1 0x1F NOT DUP6 AND SWAP1 JUMPDEST DUP2 DUP2 LT PUSH2 0x1CC5 JUMPI POP SWAP1 DUP5 PUSH1 0x1 SWAP6 SWAP5 SWAP4 SWAP3 LT PUSH2 0x1CAD JUMPI JUMPDEST POP POP POP DUP2 SHL ADD SWAP1 SSTORE PUSH2 0x1873 JUMP JUMPDEST ADD MLOAD PUSH0 NOT PUSH1 0xF8 DUP5 PUSH1 0x3 SHL AND SHR NOT AND SWAP1 SSTORE DUP7 DUP1 DUP1 PUSH2 0x1CA0 JUMP JUMPDEST SWAP3 SWAP4 PUSH1 0x20 PUSH1 0x1 DUP2 SWAP3 DUP8 DUP7 ADD MLOAD DUP2 SSTORE ADD SWAP6 ADD SWAP4 ADD PUSH2 0x1C8A JUMP JUMPDEST SWAP1 SWAP2 POP DUP4 PUSH0 MSTORE PUSH1 0x20 PUSH0 KECCAK256 PUSH1 0x1F DUP5 ADD PUSH1 0x5 SHR DUP2 ADD SWAP2 PUSH1 0x20 DUP6 LT PUSH2 0x1D23 JUMPI JUMPDEST SWAP1 PUSH1 0x1F DUP6 SWAP5 SWAP4 SWAP3 ADD PUSH1 0x5 SHR ADD SWAP1 JUMPDEST DUP2 DUP2 LT PUSH2 0x1D15 JUMPI POP PUSH2 0x1849 JUMP JUMPDEST PUSH0 DUP2 SSTORE DUP5 SWAP4 POP PUSH1 0x1 ADD PUSH2 0x1D08 JUMP JUMPDEST SWAP1 SWAP2 POP DUP2 SWAP1 PUSH2 0x1CFA JUMP JUMPDEST ADD MLOAD SWAP1 POP DUP7 DUP1 PUSH2 0x1805 JUMP JUMPDEST PUSH0 DUP6 DUP2 MSTORE DUP3 DUP2 KECCAK256 SWAP4 POP PUSH1 0x1F NOT DUP6 AND SWAP1 JUMPDEST DUP2 DUP2 LT PUSH2 0x1D83 JUMPI POP SWAP1 DUP5 PUSH1 0x1 SWAP6 SWAP5 SWAP4 SWAP3 LT PUSH2 0x1D6B JUMPI JUMPDEST POP POP POP DUP2 SHL ADD SWAP1 SSTORE PUSH2 0x1819 JUMP JUMPDEST ADD MLOAD PUSH0 NOT PUSH1 0xF8 DUP5 PUSH1 0x3 SHL AND SHR NOT AND SWAP1 SSTORE DUP7 DUP1 DUP1 PUSH2 0x1D5E JUMP JUMPDEST SWAP3 SWAP4 PUSH1 0x20 PUSH1 0x1 DUP2 SWAP3 DUP8 DUP7 ADD MLOAD DUP2 SSTORE ADD SWAP6 ADD SWAP4 ADD PUSH2 0x1D48 JUMP JUMPDEST SWAP1 SWAP2 POP DUP4 PUSH0 MSTORE PUSH1 0x20 PUSH0 KECCAK256 PUSH1 0x1F DUP5 ADD PUSH1 0x5 SHR DUP2 ADD SWAP2 PUSH1 0x20 DUP6 LT PUSH2 0x1DE1 JUMPI JUMPDEST SWAP1 PUSH1 0x1F DUP6 SWAP5 SWAP4 SWAP3 ADD PUSH1 0x5 SHR ADD SWAP1 JUMPDEST DUP2 DUP2 LT PUSH2 0x1DD3 JUMPI POP PUSH2 0x17EF JUMP JUMPDEST PUSH0 DUP2 SSTORE DUP5 SWAP4 POP PUSH1 0x1 ADD PUSH2 0x1DC6 JUMP JUMPDEST SWAP1 SWAP2 POP DUP2 SWAP1 PUSH2 0x1DB8 JUMP JUMPDEST ADD MLOAD SWAP1 POP DUP7 DUP1 PUSH2 0x17AB JUMP JUMPDEST PUSH0 DUP6 DUP2 MSTORE DUP3 DUP2 KECCAK256 SWAP4 POP PUSH1 0x1F NOT DUP6 AND SWAP1 JUMPDEST DUP2 DUP2 LT PUSH2 0x1E41 JUMPI POP SWAP1 DUP5 PUSH1 0x1 SWAP6 SWAP5 SWAP4 SWAP3 LT PUSH2 0x1E29 JUMPI JUMPDEST POP POP POP DUP2 SHL ADD SWAP1 SSTORE PUSH2 0x17BF JUMP JUMPDEST ADD MLOAD PUSH0 NOT PUSH1 0xF8 DUP5 PUSH1 0x3 SHL AND SHR NOT AND SWAP1 SSTORE DUP7 DUP1 DUP1 PUSH2 0x1E1C JUMP JUMPDEST SWAP3 SWAP4 PUSH1 0x20 PUSH1 0x1 DUP2 SWAP3 DUP8 DUP7 ADD MLOAD DUP2 SSTORE ADD SWAP6 ADD SWAP4 ADD PUSH2 0x1E06 JUMP JUMPDEST SWAP1 SWAP2 POP DUP4 PUSH0 MSTORE PUSH1 0x20 PUSH0 KECCAK256 PUSH1 0x1F DUP5 ADD PUSH1 0x5 SHR DUP2 ADD SWAP2 PUSH1 0x20 DUP6 LT PUSH2 0x1E9F JUMPI JUMPDEST SWAP1 PUSH1 0x1F DUP6 SWAP5 SWAP4 SWAP3 ADD PUSH1 0x5 SHR ADD SWAP1 JUMPDEST DUP2 DUP2 LT PUSH2 0x1E91 JUMPI POP PUSH2 0x1795 JUMP JUMPDEST PUSH0 DUP2 SSTORE DUP5 SWAP4 POP PUSH1 0x1 ADD PUSH2 0x1E84 JUMP JUMPDEST SWAP1 SWAP2 POP DUP2 SWAP1 PUSH2 0x1E76 JUMP JUMPDEST ADD MLOAD SWAP1 POP DUP7 DUP1 PUSH2 0x1752 JUMP JUMPDEST PUSH0 DUP6 DUP2 MSTORE DUP3 DUP2 KECCAK256 SWAP4 POP PUSH1 0x1F NOT DUP6 AND SWAP1 JUMPDEST DUP2 DUP2 LT PUSH2 0x1EFF JUMPI POP SWAP1 DUP5 PUSH1 0x1 SWAP6 SWAP5 SWAP4 SWAP3 LT PUSH2 0x1EE7 JUMPI JUMPDEST POP POP POP DUP2 SHL ADD SWAP1 SSTORE PUSH2 0x1766 JUMP JUMPDEST ADD MLOAD PUSH0 NOT PUSH1 0xF8 DUP5 PUSH1 0x3 SHL AND SHR NOT AND SWAP1 SSTORE DUP7 DUP1 DUP1 PUSH2 0x1EDA JUMP JUMPDEST SWAP3 SWAP4 PUSH1 0x20 PUSH1 0x1 DUP2 SWAP3 DUP8 DUP7 ADD MLOAD DUP2 SSTORE ADD SWAP6 ADD SWAP4 ADD PUSH2 0x1EC4 JUMP JUMPDEST SWAP1 SWAP2 POP DUP4 PUSH0 MSTORE PUSH1 0x20 PUSH0 KECCAK256 PUSH1 0x1F DUP5 ADD PUSH1 0x5 SHR DUP2 ADD SWAP2 PUSH1 0x20 DUP6 LT PUSH2 0x1F5D JUMPI JUMPDEST SWAP1 PUSH1 0x1F DUP6 SWAP5 SWAP4 SWAP3 ADD PUSH1 0x5 SHR ADD SWAP1 JUMPDEST DUP2 DUP2 LT PUSH2 0x1F4F JUMPI POP PUSH2 0x173C JUMP JUMPDEST PUSH0 DUP2 SSTORE DUP5 SWAP4 POP PUSH1 0x1 ADD PUSH2 0x1F42 JUMP JUMPDEST SWAP1 SWAP2 POP DUP2 SWAP1 PUSH2 0x1F34 JUMP JUMPDEST ADD MLOAD SWAP1 POP DUP7 DUP1 PUSH2 0x16F9 JUMP JUMPDEST PUSH0 DUP6 DUP2 MSTORE DUP3 DUP2 KECCAK256 SWAP4 POP PUSH1 0x1F NOT DUP6 AND SWAP1 JUMPDEST DUP2 DUP2 LT PUSH2 0x1FBD JUMPI POP SWAP1 DUP5 PUSH1 0x1 SWAP6 SWAP5 SWAP4 SWAP3 LT PUSH2 0x1FA5 JUMPI JUMPDEST POP POP POP DUP2 SHL ADD SWAP1 SSTORE PUSH2 0x170D JUMP JUMPDEST ADD MLOAD PUSH0 NOT PUSH1 0xF8 DUP5 PUSH1 0x3 SHL AND SHR NOT AND SWAP1 SSTORE DUP7 DUP1 DUP1 PUSH2 0x1F98 JUMP JUMPDEST SWAP3 SWAP4 PUSH1 0x20 PUSH1 0x1 DUP2 SWAP3 DUP8 DUP7 ADD MLOAD DUP2 SSTORE ADD SWAP6 ADD SWAP4 ADD PUSH2 0x1F82 JUMP JUMPDEST SWAP1 SWAP2 POP DUP4 PUSH0 MSTORE PUSH1 0x20 PUSH0 KECCAK256 PUSH1 0x1F DUP5 ADD PUSH1 0x5 SHR DUP2 ADD SWAP2 PUSH1 0x20 DUP6 LT PUSH2 0x201B JUMPI JUMPDEST SWAP1 PUSH1 0x1F DUP6 SWAP5 SWAP4 SWAP3 ADD PUSH1 0x5 SHR ADD SWAP1 JUMPDEST DUP2 DUP2 LT PUSH2 0x200D JUMPI POP PUSH2 0x16E3 JUMP JUMPDEST PUSH0 DUP2 SSTORE DUP5 SWAP4 POP PUSH1 0x1 ADD PUSH2 0x2000 JUMP JUMPDEST SWAP1 SWAP2 POP DUP2 SWAP1 PUSH2 0x1FF2 JUMP JUMPDEST ADD MLOAD SWAP1 POP DUP7 DUP1 PUSH2 0x16A0 JUMP JUMPDEST PUSH0 DUP6 DUP2 MSTORE DUP3 DUP2 KECCAK256 SWAP4 POP PUSH1 0x1F NOT DUP6 AND SWAP1 JUMPDEST DUP2 DUP2 LT PUSH2 0x207B JUMPI POP SWAP1 DUP5 PUSH1 0x1 SWAP6 SWAP5 SWAP4 SWAP3 LT PUSH2 0x2063 JUMPI JUMPDEST POP POP POP DUP2 SHL ADD SWAP1 SSTORE PUSH2 0x16B4 JUMP JUMPDEST ADD MLOAD PUSH0 NOT PUSH1 0xF8 DUP5 PUSH1 0x3 SHL AND SHR NOT AND SWAP1 SSTORE DUP7 DUP1 DUP1 PUSH2 0x2056 JUMP JUMPDEST SWAP3 SWAP4 PUSH1 0x20 PUSH1 0x1 DUP2 SWAP3 DUP8 DUP7 ADD MLOAD DUP2 SSTORE ADD SWAP6 ADD SWAP4 ADD PUSH2 0x2040 JUMP JUMPDEST SWAP1 SWAP2 POP DUP4 PUSH0 MSTORE PUSH1 0x20 PUSH0 KECCAK256 PUSH1 0x1F DUP5 ADD PUSH1 0x5 SHR DUP2 ADD SWAP2 PUSH1 0x20 DUP6 LT PUSH2 0x20D9 JUMPI JUMPDEST SWAP1 PUSH1 0x1F DUP6 SWAP5 SWAP4 SWAP3 ADD PUSH1 0x5 SHR ADD SWAP1 JUMPDEST DUP2 DUP2 LT PUSH2 0x20CB JUMPI POP PUSH2 0x168A JUMP JUMPDEST PUSH0 DUP2 SSTORE DUP5 SWAP4 POP PUSH1 0x1 ADD PUSH2 0x20BE JUMP JUMPDEST SWAP1 SWAP2 POP DUP2 SWAP1 PUSH2 0x20B0 JUMP JUMPDEST ADD MLOAD SWAP1 POP DUP7 DUP1 PUSH2 0x1647 JUMP JUMPDEST PUSH0 DUP6 DUP2 MSTORE DUP3 DUP2 KECCAK256 SWAP4 POP PUSH1 0x1F NOT DUP6 AND SWAP1 JUMPDEST DUP2 DUP2 LT PUSH2 0x2139 JUMPI POP SWAP1 DUP5 PUSH1 0x1 SWAP6 SWAP5 SWAP4 SWAP3 LT PUSH2 0x2121 JUMPI JUMPDEST POP POP POP DUP2 SHL ADD SWAP1 SSTORE PUSH2 0x165B JUMP JUMPDEST ADD MLOAD PUSH0 NOT PUSH1 0xF8 DUP5 PUSH1 0x3 SHL AND SHR NOT AND SWAP1 SSTORE DUP7 DUP1 DUP1 PUSH2 0x2114 JUMP JUMPDEST SWAP3 SWAP4 PUSH1 0x20 PUSH1 0x1 DUP2 SWAP3 DUP8 DUP7 ADD MLOAD DUP2 SSTORE ADD SWAP6 ADD SWAP4 ADD PUSH2 0x20FE JUMP JUMPDEST SWAP1 SWAP2 POP DUP4 PUSH0 MSTORE PUSH1 0x20 PUSH0 KECCAK256 PUSH1 0x1F DUP5 ADD PUSH1 0x5 SHR DUP2 ADD SWAP2 PUSH1 0x20 DUP6 LT PUSH2 0x2197 JUMPI JUMPDEST SWAP1 PUSH1 0x1F DUP6 SWAP5 SWAP4 SWAP3 ADD PUSH1 0x5 SHR ADD SWAP1 JUMPDEST DUP2 DUP2 LT PUSH2 0x2189 JUMPI POP PUSH2 0x1631 JUMP JUMPDEST PUSH0 DUP2 SSTORE DUP5 SWAP4 POP PUSH1 0x1 ADD PUSH2 0x217C JUMP JUMPDEST SWAP1 SWAP2 POP DUP2 SWAP1 PUSH2 0x216E JUMP JUMPDEST ADD MLOAD SWAP1 POP DUP7 DUP1 PUSH2 0x15EE JUMP JUMPDEST PUSH0 DUP6 DUP2 MSTORE DUP3 DUP2 KECCAK256 SWAP4 POP PUSH1 0x1F NOT DUP6 AND SWAP1 JUMPDEST DUP2 DUP2 LT PUSH2 0x21F7 JUMPI POP SWAP1 DUP5 PUSH1 0x1 SWAP6 SWAP5 SWAP4 SWAP3 LT PUSH2 0x21DF JUMPI JUMPDEST POP POP POP DUP2 SHL ADD SWAP1 SSTORE PUSH2 0x1602 JUMP JUMPDEST ADD MLOAD PUSH0 NOT PUSH1 0xF8 DUP5 PUSH1 0x3 SHL AND SHR NOT AND SWAP1 SSTORE DUP7 DUP1 DUP1 PUSH2 0x21D2 JUMP JUMPDEST SWAP3 SWAP4 PUSH1 0x20 PUSH1 0x1 DUP2 SWAP3 DUP8 DUP7 ADD MLOAD DUP2 SSTORE ADD SWAP6 ADD SWAP4 ADD PUSH2 0x21BC JUMP JUMPDEST SWAP1 SWAP2 POP DUP4 PUSH0 MSTORE PUSH1 0x20 PUSH0 KECCAK256 PUSH1 0x1F DUP5 ADD PUSH1 0x5 SHR DUP2 ADD SWAP2 PUSH1 0x20 DUP6 LT PUSH2 0x2255 JUMPI JUMPDEST SWAP1 PUSH1 0x1F DUP6 SWAP5 SWAP4 SWAP3 ADD PUSH1 0x5 SHR ADD SWAP1 JUMPDEST DUP2 DUP2 LT PUSH2 0x2247 JUMPI POP PUSH2 0x15D8 JUMP JUMPDEST PUSH0 DUP2 SSTORE DUP5 SWAP4 POP PUSH1 0x1 ADD PUSH2 0x223A JUMP JUMPDEST SWAP1 SWAP2 POP DUP2 SWAP1 PUSH2 0x222C JUMP JUMPDEST ADD MLOAD SWAP1 POP DUP7 DUP1 PUSH2 0x1595 JUMP JUMPDEST PUSH0 DUP6 DUP2 MSTORE DUP3 DUP2 KECCAK256 SWAP4 POP PUSH1 0x1F NOT DUP6 AND SWAP1 JUMPDEST DUP2 DUP2 LT PUSH2 0x22B5 JUMPI POP SWAP1 DUP5 PUSH1 0x1 SWAP6 SWAP5 SWAP4 SWAP3 LT PUSH2 0x229D JUMPI JUMPDEST POP POP POP DUP2 SHL ADD SWAP1 SSTORE PUSH2 0x15A9 JUMP JUMPDEST ADD MLOAD PUSH0 NOT PUSH1 0xF8 DUP5 PUSH1 0x3 SHL AND SHR NOT AND SWAP1 SSTORE DUP7 DUP1 DUP1 PUSH2 0x2290 JUMP JUMPDEST SWAP3 SWAP4 PUSH1 0x20 PUSH1 0x1 DUP2 SWAP3 DUP8 DUP7 ADD MLOAD DUP2 SSTORE ADD SWAP6 ADD SWAP4 ADD PUSH2 0x227A JUMP JUMPDEST SWAP1 SWAP2 POP DUP4 PUSH0 MSTORE PUSH1 0x20 PUSH0 KECCAK256 PUSH1 0x1F DUP5 ADD PUSH1 0x5 SHR DUP2 ADD SWAP2 PUSH1 0x20 DUP6 LT PUSH2 0x2313 JUMPI JUMPDEST SWAP1 PUSH1 0x1F DUP6 SWAP5 SWAP4 SWAP3 ADD PUSH1 0x5 SHR ADD SWAP1 JUMPDEST DUP2 DUP2 LT PUSH2 0x2305 JUMPI POP PUSH2 0x157F JUMP JUMPDEST PUSH0 DUP2 SSTORE DUP5 SWAP4 POP PUSH1 0x1 ADD PUSH2 0x22F8 JUMP JUMPDEST SWAP1 SWAP2 POP DUP2 SWAP1 PUSH2 0x22EA JUMP JUMPDEST ADD MLOAD SWAP1 POP DUP6 DUP1 PUSH2 0x153C JUMP JUMPDEST DUP4 PUSH0 MSTORE DUP1 PUSH0 KECCAK256 SWAP1 PUSH0 JUMPDEST PUSH1 0x1F NOT DUP5 AND DUP2 LT PUSH2 0x2374 JUMPI POP PUSH1 0x1 SWAP4 SWAP5 SWAP6 SWAP7 DUP4 PUSH1 0x1F NOT DUP2 AND LT PUSH2 0x235C JUMPI JUMPDEST POP POP POP DUP2 SHL ADD DUP3 SSTORE PUSH2 0x1550 JUMP JUMPDEST ADD MLOAD PUSH0 NOT PUSH1 0xF8 DUP5 PUSH1 0x3 SHL AND SHR NOT AND SWAP1 SSTORE DUP6 DUP1 DUP1 PUSH2 0x234F JUMP JUMPDEST SWAP1 SWAP2 PUSH1 0x20 PUSH1 0x1 DUP2 SWAP3 DUP6 DUP12 ADD MLOAD DUP2 SSTORE ADD SWAP4 ADD SWAP2 ADD PUSH2 0x2331 JUMP JUMPDEST DUP4 PUSH0 MSTORE PUSH1 0x20 PUSH0 KECCAK256 PUSH1 0x1F DUP4 ADD PUSH1 0x5 SHR DUP2 ADD PUSH1 0x20 DUP5 LT PUSH2 0x23C6 JUMPI JUMPDEST PUSH1 0x1F DUP4 ADD PUSH1 0x5 SHR DUP3 ADD DUP2 LT PUSH2 0x23BB JUMPI POP POP PUSH2 0x1522 JUMP JUMPDEST PUSH0 DUP2 SSTORE PUSH1 0x1 ADD PUSH2 0x23A5 JUMP JUMPDEST POP DUP1 PUSH2 0x23A5 JUMP JUMPDEST CALLVALUE PUSH2 0x195 JUMPI PUSH0 CALLDATASIZE PUSH1 0x3 NOT ADD SLT PUSH2 0x195 JUMPI PUSH1 0x40 MLOAD DUP1 PUSH1 0x20 PUSH1 0x3 SLOAD SWAP2 DUP3 DUP2 MSTORE ADD SWAP1 PUSH1 0x3 PUSH0 MSTORE PUSH32 0xC2575A0E9E593C00F959F8C92F12DB2869C3395A3B0502D05E2516446F71F85B SWAP1 PUSH0 JUMPDEST DUP2 DUP2 LT PUSH2 0x242B JUMPI PUSH2 0x357 DUP6 PUSH2 0xC85 DUP2 DUP8 SUB DUP3 PUSH2 0x4D50 JUMP JUMPDEST DUP3 SLOAD PUSH1 0x1 PUSH1 0x1 PUSH1 0xA0 SHL SUB AND DUP5 MSTORE PUSH1 0x20 SWAP1 SWAP4 ADD SWAP3 PUSH1 0x1 SWAP3 DUP4 ADD SWAP3 ADD PUSH2 0x2414 JUMP JUMPDEST CALLVALUE PUSH2 0x195 JUMPI PUSH1 0x20 CALLDATASIZE PUSH1 0x3 NOT ADD SLT PUSH2 0x195 JUMPI PUSH1 0x1 PUSH1 0x1 PUSH1 0xA0 SHL SUB PUSH2 0x246B PUSH2 0x4D02 JUMP JUMPDEST AND PUSH0 MSTORE PUSH1 0x6 PUSH1 0x20 MSTORE PUSH1 0x40 PUSH0 KECCAK256 PUSH1 0x40 MLOAD PUSH2 0x2483 DUP2 PUSH2 0x4D34 JUMP JUMPDEST DUP2 SLOAD PUSH1 0x1 PUSH1 0x1 PUSH1 0xA0 SHL SUB SWAP1 DUP2 AND DUP3 MSTORE PUSH1 0x1 DUP4 ADD SLOAD AND PUSH1 0x20 DUP3 ADD MSTORE PUSH2 0x24A9 PUSH1 0x2 DUP4 ADD PUSH2 0x4F44 JUMP JUMPDEST PUSH1 0x40 DUP3 ADD SWAP1 DUP2 MSTORE SWAP2 PUSH2 0x24BD PUSH1 0x3 DUP3 ADD PUSH2 0x4F44 JUMP JUMPDEST PUSH1 0x60 DUP4 ADD SWAP1 DUP2 MSTORE SWAP1 PUSH2 0x24D1 PUSH1 0x4 DUP3 ADD PUSH2 0x4F44 JUMP JUMPDEST PUSH1 0x80 DUP5 ADD SWAP1 DUP2 MSTORE PUSH2 0x24E4 PUSH1 0x5 DUP4 ADD PUSH2 0x4F44 JUMP JUMPDEST PUSH1 0xA0 DUP6 ADD SWAP1 DUP2 MSTORE SWAP1 PUSH2 0x24F8 PUSH1 0x6 DUP5 ADD PUSH2 0x4F44 JUMP JUMPDEST PUSH1 0xC0 DUP7 ADD SWAP1 DUP2 MSTORE PUSH2 0x250B PUSH1 0x7 DUP6 ADD PUSH2 0x4F44 JUMP JUMPDEST SWAP4 PUSH1 0xE0 DUP8 ADD SWAP5 DUP6 MSTORE PUSH1 0x8 ADD SLOAD PUSH2 0x100 DUP8 ADD MSTORE PUSH1 0x1 PUSH1 0xA0 SHL PUSH1 0x1 SWAP1 SUB DUP7 MLOAD AND PUSH0 MSTORE PUSH1 0x5 PUSH1 0x20 MSTORE PUSH1 0x40 PUSH0 KECCAK256 SWAP6 PUSH1 0x40 MLOAD PUSH2 0x2541 DUP2 PUSH2 0x4D34 JUMP JUMPDEST PUSH2 0x254A DUP9 PUSH2 0x4F44 JUMP JUMPDEST DUP2 MSTORE PUSH2 0x2558 PUSH1 0x1 DUP10 ADD PUSH2 0x4F44 JUMP JUMPDEST PUSH1 0x20 DUP3 ADD SWAP1 DUP2 MSTORE SWAP8 PUSH2 0x256C PUSH1 0x2 DUP3 ADD PUSH2 0x4F44 JUMP JUMPDEST PUSH1 0x40 DUP4 ADD MSTORE PUSH2 0x257D PUSH1 0x3 DUP3 ADD PUSH2 0x4F44 JUMP JUMPDEST PUSH1 0x60 DUP4 ADD MSTORE PUSH2 0x258E PUSH1 0x4 DUP3 ADD PUSH2 0x4F44 JUMP JUMPDEST PUSH1 0x80 DUP4 ADD MSTORE PUSH2 0x259F PUSH1 0x5 DUP3 ADD PUSH2 0x4F44 JUMP JUMPDEST PUSH1 0xA0 DUP4 ADD MSTORE PUSH2 0x25B0 PUSH1 0x6 DUP3 ADD PUSH2 0x4F44 JUMP JUMPDEST PUSH1 0xC0 DUP4 ADD MSTORE PUSH1 0x1 PUSH1 0xA0 SHL PUSH1 0x1 SWAP1 SUB PUSH1 0x7 DUP3 ADD SLOAD AND PUSH1 0xE0 DUP4 ADD MSTORE PUSH1 0x8 ADD SLOAD SWAP1 PUSH2 0x100 ADD MSTORE PUSH1 0x1 PUSH1 0xA0 SHL PUSH1 0x1 SWAP1 SUB SWAP1 MLOAD AND SWAP6 MLOAD SWAP7 MLOAD SWAP5 MLOAD SWAP1 MLOAD SWAP2 MLOAD SWAP3 MLOAD SWAP4 MLOAD SWAP5 PUSH1 0x40 MLOAD SWAP8 DUP9 SWAP8 DUP9 MSTORE PUSH1 0x20 DUP9 ADD PUSH2 0x100 SWAP1 MSTORE PUSH2 0x100 DUP9 ADD PUSH2 0x260D SWAP2 PUSH2 0x4FE4 JUMP JUMPDEST DUP8 DUP2 SUB PUSH1 0x40 DUP10 ADD MSTORE PUSH2 0x261E SWAP2 PUSH2 0x4FE4 JUMP JUMPDEST DUP7 DUP2 SUB PUSH1 0x60 DUP9 ADD MSTORE PUSH2 0x262F SWAP2 PUSH2 0x4FE4 JUMP JUMPDEST DUP6 DUP2 SUB PUSH1 0x80 DUP8 ADD MSTORE PUSH2 0x2640 SWAP2 PUSH2 0x4FE4 JUMP JUMPDEST DUP5 DUP2 SUB PUSH1 0xA0 DUP7 ADD MSTORE PUSH2 0x2651 SWAP2 PUSH2 0x4FE4 JUMP JUMPDEST DUP4 DUP2 SUB PUSH1 0xC0 DUP6 ADD MSTORE PUSH2 0x2662 SWAP2 PUSH2 0x4FE4 JUMP JUMPDEST DUP3 DUP2 SUB PUSH1 0xE0 DUP5 ADD MSTORE PUSH2 0x357 SWAP2 PUSH2 0x4FE4 JUMP JUMPDEST CALLVALUE PUSH2 0x195 JUMPI PUSH0 CALLDATASIZE PUSH1 0x3 NOT ADD SLT PUSH2 0x195 JUMPI PUSH0 SLOAD PUSH1 0x40 MLOAD PUSH1 0x1 PUSH1 0x1 PUSH1 0xA0 SHL SUB SWAP1 SWAP2 AND DUP2 MSTORE PUSH1 0x20 SWAP1 RETURN JUMPDEST CALLVALUE PUSH2 0x195 JUMPI PUSH2 0x26A8 CALLDATASIZE PUSH2 0x5284 JUMP JUMPDEST SWAP5 SWAP6 SWAP4 SWAP1 SWAP6 SWAP3 SWAP2 SWAP3 CALLER PUSH0 MSTORE PUSH1 0x9 PUSH1 0x20 MSTORE PUSH1 0xFF PUSH1 0x40 PUSH0 KECCAK256 SLOAD AND PUSH2 0x2EB0 JUMPI CALLER PUSH0 MSTORE PUSH1 0x5 PUSH1 0x20 MSTORE PUSH1 0x40 PUSH0 KECCAK256 SWAP5 DUP1 MLOAD SWAP1 PUSH1 0x1 PUSH1 0x1 PUSH1 0x40 SHL SUB DUP3 GT PUSH2 0x668 JUMPI DUP2 SWAP1 PUSH2 0x26EE DUP9 SLOAD PUSH2 0x4F0C JUMP JUMPDEST PUSH1 0x1F DUP2 GT PUSH2 0x2E60 JUMPI JUMPDEST POP PUSH1 0x20 SWAP1 PUSH1 0x1F DUP4 GT PUSH1 0x1 EQ PUSH2 0x2DFD JUMPI PUSH0 SWAP3 PUSH2 0x2DF2 JUMPI JUMPDEST POP POP DUP2 PUSH1 0x1 SHL SWAP2 PUSH0 NOT SWAP1 PUSH1 0x3 SHL SHR NOT AND OR DUP6 SSTORE JUMPDEST DUP1 MLOAD PUSH1 0x1 DUP7 ADD SWAP2 PUSH1 0x1 PUSH1 0x1 PUSH1 0x40 SHL SUB DUP3 GT PUSH2 0x668 JUMPI DUP2 SWAP1 PUSH2 0x2742 DUP5 SLOAD PUSH2 0x4F0C JUMP JUMPDEST PUSH1 0x1F DUP2 GT PUSH2 0x2DA2 JUMPI JUMPDEST POP PUSH1 0x20 SWAP1 PUSH1 0x1F DUP4 GT PUSH1 0x1 EQ PUSH2 0x2D3F JUMPI PUSH0 SWAP3 PUSH2 0x2D34 JUMPI JUMPDEST POP POP DUP2 PUSH1 0x1 SHL SWAP2 PUSH0 NOT SWAP1 PUSH1 0x3 SHL SHR NOT AND OR SWAP1 SSTORE JUMPDEST DUP1 MLOAD PUSH1 0x2 DUP6 ADD SWAP2 PUSH1 0x1 PUSH1 0x1 PUSH1 0x40 SHL SUB DUP3 GT PUSH2 0x668 JUMPI DUP2 SWAP1 PUSH2 0x2796 DUP5 SLOAD PUSH2 0x4F0C JUMP JUMPDEST PUSH1 0x1F DUP2 GT PUSH2 0x2CE4 JUMPI JUMPDEST POP PUSH1 0x20 SWAP1 PUSH1 0x1F DUP4 GT PUSH1 0x1 EQ PUSH2 0x2C81 JUMPI PUSH0 SWAP3 PUSH2 0x2C76 JUMPI JUMPDEST POP POP DUP2 PUSH1 0x1 SHL SWAP2 PUSH0 NOT SWAP1 PUSH1 0x3 SHL SHR NOT AND OR SWAP1 SSTORE JUMPDEST DUP1 MLOAD PUSH1 0x3 DUP5 ADD SWAP2 PUSH1 0x1 PUSH1 0x1 PUSH1 0x40 SHL SUB DUP3 GT PUSH2 0x668 JUMPI DUP2 SWAP1 PUSH2 0x27EA DUP5 SLOAD PUSH2 0x4F0C JUMP JUMPDEST PUSH1 0x1F DUP2 GT PUSH2 0x2C26 JUMPI JUMPDEST POP PUSH1 0x20 SWAP1 PUSH1 0x1F DUP4 GT PUSH1 0x1 EQ PUSH2 0x2BC3 JUMPI PUSH0 SWAP3 PUSH2 0x2BB8 JUMPI JUMPDEST POP POP DUP2 PUSH1 0x1 SHL SWAP2 PUSH0 NOT SWAP1 PUSH1 0x3 SHL SHR NOT AND OR SWAP1 SSTORE JUMPDEST DUP1 MLOAD PUSH1 0x4 DUP4 ADD SWAP2 PUSH1 0x1 PUSH1 0x1 PUSH1 0x40 SHL SUB DUP3 GT PUSH2 0x668 JUMPI DUP2 SWAP1 PUSH2 0x283E DUP5 SLOAD PUSH2 0x4F0C JUMP JUMPDEST PUSH1 0x1F DUP2 GT PUSH2 0x2B68 JUMPI JUMPDEST POP PUSH1 0x20 SWAP1 PUSH1 0x1F DUP4 GT PUSH1 0x1 EQ PUSH2 0x2B05 JUMPI PUSH0 SWAP3 PUSH2 0x2AFA JUMPI JUMPDEST POP POP DUP2 PUSH1 0x1 SHL SWAP2 PUSH0 NOT SWAP1 PUSH1 0x3 SHL SHR NOT AND OR SWAP1 SSTORE JUMPDEST PUSH1 0x5 DUP2 ADD DUP4 MLOAD PUSH1 0x1 PUSH1 0x1 PUSH1 0x40 SHL SUB DUP2 GT PUSH2 0x668 JUMPI PUSH2 0x288F DUP3 SLOAD PUSH2 0x4F0C JUMP JUMPDEST PUSH1 0x1F DUP2 GT PUSH2 0x2AB5 JUMPI JUMPDEST POP PUSH1 0x20 SWAP5 PUSH1 0x1F DUP3 GT PUSH1 0x1 EQ PUSH2 0x2A54 JUMPI SWAP5 DUP2 SWAP3 SWAP4 SWAP5 SWAP6 PUSH0 SWAP3 PUSH2 0x2A49 JUMPI JUMPDEST POP POP DUP2 PUSH1 0x1 SHL SWAP2 PUSH0 NOT SWAP1 PUSH1 0x3 SHL SHR NOT AND OR SWAP1 SSTORE JUMPDEST PUSH1 0x6 DUP2 ADD DUP3 MLOAD PUSH1 0x1 PUSH1 0x1 PUSH1 0x40 SHL SUB DUP2 GT PUSH2 0x668 JUMPI PUSH2 0x28E6 DUP3 SLOAD PUSH2 0x4F0C JUMP JUMPDEST PUSH1 0x1F DUP2 GT PUSH2 0x2A04 JUMPI JUMPDEST POP PUSH1 0x20 PUSH1 0x1F DUP3 GT PUSH1 0x1 EQ PUSH2 0x29A3 JUMPI DUP2 SWAP3 SWAP4 SWAP5 PUSH0 SWAP3 PUSH2 0x2998 JUMPI JUMPDEST POP POP DUP2 PUSH1 0x1 SHL SWAP2 PUSH0 NOT SWAP1 PUSH1 0x3 SHL SHR NOT AND OR SWAP1 SSTORE JUMPDEST PUSH1 0x7 DUP2 ADD DUP1 SLOAD PUSH1 0x1 PUSH1 0x1 PUSH1 0xA0 SHL SUB NOT AND CALLER OR SWAP1 SSTORE TIMESTAMP PUSH1 0x8 SWAP1 SWAP2 ADD SSTORE PUSH1 0x2 SLOAD PUSH1 0x1 PUSH1 0x40 SHL DUP2 LT ISZERO PUSH2 0x668 JUMPI DUP1 PUSH1 0x1 PUSH2 0x2958 SWAP3 ADD PUSH1 0x2 SSTORE PUSH1 0x2 PUSH2 0x5008 JUMP JUMPDEST DUP2 SLOAD SWAP1 PUSH1 0x3 SHL SWAP1 CALLER DUP3 SHL SWAP2 PUSH1 0x1 DUP1 PUSH1 0xA0 SHL SUB SWAP1 SHL NOT AND OR SWAP1 SSTORE CALLER PUSH0 MSTORE PUSH1 0x9 PUSH1 0x20 MSTORE PUSH1 0x40 PUSH0 KECCAK256 PUSH1 0x1 PUSH1 0xFF NOT DUP3 SLOAD AND OR SWAP1 SSTORE PUSH2 0x2993 PUSH1 0xC SLOAD PUSH2 0x5368 JUMP JUMPDEST PUSH1 0xC SSTORE STOP JUMPDEST ADD MLOAD SWAP1 POP DUP5 DUP1 PUSH2 0x2908 JUMP JUMPDEST PUSH1 0x1F NOT DUP3 AND SWAP1 DUP4 PUSH0 MSTORE DUP1 PUSH0 KECCAK256 SWAP2 PUSH0 JUMPDEST DUP2 DUP2 LT PUSH2 0x29EC JUMPI POP SWAP6 DUP4 PUSH1 0x1 SWAP6 SWAP7 SWAP8 LT PUSH2 0x29D4 JUMPI JUMPDEST POP POP POP DUP2 SHL ADD SWAP1 SSTORE PUSH2 0x291C JUMP JUMPDEST ADD MLOAD PUSH0 NOT PUSH1 0xF8 DUP5 PUSH1 0x3 SHL AND SHR NOT AND SWAP1 SSTORE DUP5 DUP1 DUP1 PUSH2 0x29C7 JUMP JUMPDEST SWAP2 SWAP3 PUSH1 0x20 PUSH1 0x1 DUP2 SWAP3 DUP7 DUP12 ADD MLOAD DUP2 SSTORE ADD SWAP5 ADD SWAP3 ADD PUSH2 0x29B2 JUMP JUMPDEST DUP3 PUSH0 MSTORE PUSH1 0x20 PUSH0 KECCAK256 PUSH1 0x1F DUP4 ADD PUSH1 0x5 SHR DUP2 ADD SWAP2 PUSH1 0x20 DUP5 LT PUSH2 0x2A3F JUMPI JUMPDEST PUSH1 0x1F ADD PUSH1 0x5 SHR ADD SWAP1 JUMPDEST DUP2 DUP2 LT PUSH2 0x2A34 JUMPI POP PUSH2 0x28EF JUMP JUMPDEST PUSH0 DUP2 SSTORE PUSH1 0x1 ADD PUSH2 0x2A27 JUMP JUMPDEST SWAP1 SWAP2 POP DUP2 SWAP1 PUSH2 0x2A1E JUMP JUMPDEST ADD MLOAD SWAP1 POP DUP6 DUP1 PUSH2 0x28B4 JUMP JUMPDEST PUSH1 0x1F NOT DUP3 AND SWAP6 DUP4 PUSH0 MSTORE DUP1 PUSH0 KECCAK256 SWAP2 PUSH0 JUMPDEST DUP9 DUP2 LT PUSH2 0x2A9D JUMPI POP DUP4 PUSH1 0x1 SWAP6 SWAP7 SWAP8 SWAP9 LT PUSH2 0x2A85 JUMPI JUMPDEST POP POP POP DUP2 SHL ADD SWAP1 SSTORE PUSH2 0x28C8 JUMP JUMPDEST ADD MLOAD PUSH0 NOT PUSH1 0xF8 DUP5 PUSH1 0x3 SHL AND SHR NOT AND SWAP1 SSTORE DUP6 DUP1 DUP1 PUSH2 0x2A78 JUMP JUMPDEST SWAP2 SWAP3 PUSH1 0x20 PUSH1 0x1 DUP2 SWAP3 DUP7 DUP6 ADD MLOAD DUP2 SSTORE ADD SWAP5 ADD SWAP3 ADD PUSH2 0x2A63 JUMP JUMPDEST DUP3 PUSH0 MSTORE PUSH1 0x20 PUSH0 KECCAK256 PUSH1 0x1F DUP4 ADD PUSH1 0x5 SHR DUP2 ADD SWAP2 PUSH1 0x20 DUP5 LT PUSH2 0x2AF0 JUMPI JUMPDEST PUSH1 0x1F ADD PUSH1 0x5 SHR ADD SWAP1 JUMPDEST DUP2 DUP2 LT PUSH2 0x2AE5 JUMPI POP PUSH2 0x2898 JUMP JUMPDEST PUSH0 DUP2 SSTORE PUSH1 0x1 ADD PUSH2 0x2AD8 JUMP JUMPDEST SWAP1 SWAP2 POP DUP2 SWAP1 PUSH2 0x2ACF JUMP JUMPDEST ADD MLOAD SWAP1 POP DUP7 DUP1 PUSH2 0x285D JUMP JUMPDEST PUSH0 DUP6 DUP2 MSTORE DUP3 DUP2 KECCAK256 SWAP4 POP PUSH1 0x1F NOT DUP6 AND SWAP1 JUMPDEST DUP2 DUP2 LT PUSH2 0x2B50 JUMPI POP SWAP1 DUP5 PUSH1 0x1 SWAP6 SWAP5 SWAP4 SWAP3 LT PUSH2 0x2B38 JUMPI JUMPDEST POP POP POP DUP2 SHL ADD SWAP1 SSTORE PUSH2 0x2871 JUMP JUMPDEST ADD MLOAD PUSH0 NOT PUSH1 0xF8 DUP5 PUSH1 0x3 SHL AND SHR NOT AND SWAP1 SSTORE DUP7 DUP1 DUP1 PUSH2 0x2B2B JUMP JUMPDEST SWAP3 SWAP4 PUSH1 0x20 PUSH1 0x1 DUP2 SWAP3 DUP8 DUP7 ADD MLOAD DUP2 SSTORE ADD SWAP6 ADD SWAP4 ADD PUSH2 0x2B15 JUMP JUMPDEST SWAP1 SWAP2 POP DUP4 PUSH0 MSTORE PUSH1 0x20 PUSH0 KECCAK256 PUSH1 0x1F DUP5 ADD PUSH1 0x5 SHR DUP2 ADD SWAP2 PUSH1 0x20 DUP6 LT PUSH2 0x2BAE JUMPI JUMPDEST SWAP1 PUSH1 0x1F DUP6 SWAP5 SWAP4 SWAP3 ADD PUSH1 0x5 SHR ADD SWAP1 JUMPDEST DUP2 DUP2 LT PUSH2 0x2BA0 JUMPI POP PUSH2 0x2847 JUMP JUMPDEST PUSH0 DUP2 SSTORE DUP5 SWAP4 POP PUSH1 0x1 ADD PUSH2 0x2B93 JUMP JUMPDEST SWAP1 SWAP2 POP DUP2 SWAP1 PUSH2 0x2B85 JUMP JUMPDEST ADD MLOAD SWAP1 POP DUP8 DUP1 PUSH2 0x2809 JUMP JUMPDEST PUSH0 DUP6 DUP2 MSTORE DUP3 DUP2 KECCAK256 SWAP4 POP PUSH1 0x1F NOT DUP6 AND SWAP1 JUMPDEST DUP2 DUP2 LT PUSH2 0x2C0E JUMPI POP SWAP1 DUP5 PUSH1 0x1 SWAP6 SWAP5 SWAP4 SWAP3 LT PUSH2 0x2BF6 JUMPI JUMPDEST POP POP POP DUP2 SHL ADD SWAP1 SSTORE PUSH2 0x281D JUMP JUMPDEST ADD MLOAD PUSH0 NOT PUSH1 0xF8 DUP5 PUSH1 0x3 SHL AND SHR NOT AND SWAP1 SSTORE DUP8 DUP1 DUP1 PUSH2 0x2BE9 JUMP JUMPDEST SWAP3 SWAP4 PUSH1 0x20 PUSH1 0x1 DUP2 SWAP3 DUP8 DUP7 ADD MLOAD DUP2 SSTORE ADD SWAP6 ADD SWAP4 ADD PUSH2 0x2BD3 JUMP JUMPDEST SWAP1 SWAP2 POP DUP4 PUSH0 MSTORE PUSH1 0x20 PUSH0 KECCAK256 PUSH1 0x1F DUP5 ADD PUSH1 0x5 SHR DUP2 ADD SWAP2 PUSH1 0x20 DUP6 LT PUSH2 0x2C6C JUMPI JUMPDEST SWAP1 PUSH1 0x1F DUP6 SWAP5 SWAP4 SWAP3 ADD PUSH1 0x5 SHR ADD SWAP1 JUMPDEST DUP2 DUP2 LT PUSH2 0x2C5E JUMPI POP PUSH2 0x27F3 JUMP JUMPDEST PUSH0 DUP2 SSTORE DUP5 SWAP4 POP PUSH1 0x1 ADD PUSH2 0x2C51 JUMP JUMPDEST SWAP1 SWAP2 POP DUP2 SWAP1 PUSH2 0x2C43 JUMP JUMPDEST ADD MLOAD SWAP1 POP DUP9 DUP1 PUSH2 0x27B5 JUMP JUMPDEST PUSH0 DUP6 DUP2 MSTORE DUP3 DUP2 KECCAK256 SWAP4 POP PUSH1 0x1F NOT DUP6 AND SWAP1 JUMPDEST DUP2 DUP2 LT PUSH2 0x2CCC JUMPI POP SWAP1 DUP5 PUSH1 0x1 SWAP6 SWAP5 SWAP4 SWAP3 LT PUSH2 0x2CB4 JUMPI JUMPDEST POP POP POP DUP2 SHL ADD SWAP1 SSTORE PUSH2 0x27C9 JUMP JUMPDEST ADD MLOAD PUSH0 NOT PUSH1 0xF8 DUP5 PUSH1 0x3 SHL AND SHR NOT AND SWAP1 SSTORE DUP9 DUP1 DUP1 PUSH2 0x2CA7 JUMP JUMPDEST SWAP3 SWAP4 PUSH1 0x20 PUSH1 0x1 DUP2 SWAP3 DUP8 DUP7 ADD MLOAD DUP2 SSTORE ADD SWAP6 ADD SWAP4 ADD PUSH2 0x2C91 JUMP JUMPDEST SWAP1 SWAP2 POP DUP4 PUSH0 MSTORE PUSH1 0x20 PUSH0 KECCAK256 PUSH1 0x1F DUP5 ADD PUSH1 0x5 SHR DUP2 ADD SWAP2 PUSH1 0x20 DUP6 LT PUSH2 0x2D2A JUMPI JUMPDEST SWAP1 PUSH1 0x1F DUP6 SWAP5 SWAP4 SWAP3 ADD PUSH1 0x5 SHR ADD SWAP1 JUMPDEST DUP2 DUP2 LT PUSH2 0x2D1C JUMPI POP PUSH2 0x279F JUMP JUMPDEST PUSH0 DUP2 SSTORE DUP5 SWAP4 POP PUSH1 0x1 ADD PUSH2 0x2D0F JUMP JUMPDEST SWAP1 SWAP2 POP DUP2 SWAP1 PUSH2 0x2D01 JUMP JUMPDEST ADD MLOAD SWAP1 POP DUP10 DUP1 PUSH2 0x2761 JUMP JUMPDEST PUSH0 DUP6 DUP2 MSTORE DUP3 DUP2 KECCAK256 SWAP4 POP PUSH1 0x1F NOT DUP6 AND SWAP1 JUMPDEST DUP2 DUP2 LT PUSH2 0x2D8A JUMPI POP SWAP1 DUP5 PUSH1 0x1 SWAP6 SWAP5 SWAP4 SWAP3 LT PUSH2 0x2D72 JUMPI JUMPDEST POP POP POP DUP2 SHL ADD SWAP1 SSTORE PUSH2 0x2775 JUMP JUMPDEST ADD MLOAD PUSH0 NOT PUSH1 0xF8 DUP5 PUSH1 0x3 SHL AND SHR NOT AND SWAP1 SSTORE DUP10 DUP1 DUP1 PUSH2 0x2D65 JUMP JUMPDEST SWAP3 SWAP4 PUSH1 0x20 PUSH1 0x1 DUP2 SWAP3 DUP8 DUP7 ADD MLOAD DUP2 SSTORE ADD SWAP6 ADD SWAP4 ADD PUSH2 0x2D4F JUMP JUMPDEST SWAP1 SWAP2 POP DUP4 PUSH0 MSTORE PUSH1 0x20 PUSH0 KECCAK256 PUSH1 0x1F DUP5 ADD PUSH1 0x5 SHR DUP2 ADD SWAP2 PUSH1 0x20 DUP6 LT PUSH2 0x2DE8 JUMPI JUMPDEST SWAP1 PUSH1 0x1F DUP6 SWAP5 SWAP4 SWAP3 ADD PUSH1 0x5 SHR ADD SWAP1 JUMPDEST DUP2 DUP2 LT PUSH2 0x2DDA JUMPI POP PUSH2 0x274B JUMP JUMPDEST PUSH0 DUP2 SSTORE DUP5 SWAP4 POP PUSH1 0x1 ADD PUSH2 0x2DCD JUMP JUMPDEST SWAP1 SWAP2 POP DUP2 SWAP1 PUSH2 0x2DBF JUMP JUMPDEST ADD MLOAD SWAP1 POP DUP10 DUP1 PUSH2 0x270D JUMP JUMPDEST PUSH0 DUP10 DUP2 MSTORE DUP3 DUP2 KECCAK256 SWAP4 POP PUSH1 0x1F NOT DUP6 AND SWAP1 JUMPDEST DUP2 DUP2 LT PUSH2 0x2E48 JUMPI POP SWAP1 DUP5 PUSH1 0x1 SWAP6 SWAP5 SWAP4 SWAP3 LT PUSH2 0x2E30 JUMPI JUMPDEST POP POP POP DUP2 SHL ADD DUP6 SSTORE PUSH2 0x2721 JUMP JUMPDEST ADD MLOAD PUSH0 NOT PUSH1 0xF8 DUP5 PUSH1 0x3 SHL AND SHR NOT AND SWAP1 SSTORE DUP10 DUP1 DUP1 PUSH2 0x2E23 JUMP JUMPDEST SWAP3 SWAP4 PUSH1 0x20 PUSH1 0x1 DUP2 SWAP3 DUP8 DUP7 ADD MLOAD DUP2 SSTORE ADD SWAP6 ADD SWAP4 ADD PUSH2 0x2E0D JUMP JUMPDEST SWAP1 SWAP2 POP DUP8 PUSH0 MSTORE PUSH1 0x20 PUSH0 KECCAK256 PUSH1 0x1F DUP5 ADD PUSH1 0x5 SHR DUP2 ADD SWAP2 PUSH1 0x20 DUP6 LT PUSH2 0x2EA6 JUMPI JUMPDEST SWAP1 PUSH1 0x1F DUP6 SWAP5 SWAP4 SWAP3 ADD PUSH1 0x5 SHR ADD SWAP1 JUMPDEST DUP2 DUP2 LT PUSH2 0x2E98 JUMPI POP PUSH2 0x26F7 JUMP JUMPDEST PUSH0 DUP2 SSTORE DUP5 SWAP4 POP PUSH1 0x1 ADD PUSH2 0x2E8B JUMP JUMPDEST SWAP1 SWAP2 POP DUP2 SWAP1 PUSH2 0x2E7D JUMP JUMPDEST PUSH1 0x40 MLOAD PUSH3 0x461BCD PUSH1 0xE5 SHL DUP2 MSTORE PUSH1 0x20 PUSH1 0x4 DUP3 ADD MSTORE PUSH1 0x1B PUSH1 0x24 DUP3 ADD MSTORE PUSH32 0x416C72656164792061207265676973746572656420646F63746F720000000000 PUSH1 0x44 DUP3 ADD MSTORE PUSH1 0x64 SWAP1 REVERT JUMPDEST CALLVALUE PUSH2 0x195 JUMPI PUSH0 CALLDATASIZE PUSH1 0x3 NOT ADD SLT PUSH2 0x195 JUMPI PUSH1 0x20 PUSH1 0xC SLOAD PUSH1 0x40 MLOAD SWAP1 DUP2 MSTORE RETURN JUMPDEST CALLVALUE PUSH2 0x195 JUMPI PUSH1 0x20 CALLDATASIZE PUSH1 0x3 NOT ADD SLT PUSH2 0x195 JUMPI PUSH1 0x1 PUSH1 0x1 PUSH1 0xA0 SHL SUB PUSH2 0x2F33 PUSH2 0x4D02 JUMP JUMPDEST AND PUSH0 MSTORE PUSH1 0x5 PUSH1 0x20 MSTORE PUSH1 0x20 PUSH2 0x100 PUSH1 0x40 PUSH0 KECCAK256 PUSH1 0x8 PUSH1 0x40 MLOAD SWAP2 PUSH2 0x2F53 DUP4 PUSH2 0x4D34 JUMP JUMPDEST PUSH2 0x2F5C DUP2 PUSH2 0x4F44 JUMP JUMPDEST DUP4 MSTORE PUSH2 0x2F6A PUSH1 0x1 DUP3 ADD PUSH2 0x4F44 JUMP JUMPDEST DUP6 DUP5 ADD MSTORE PUSH2 0x2F7A PUSH1 0x2 DUP3 ADD PUSH2 0x4F44 JUMP JUMPDEST PUSH1 0x40 DUP5 ADD MSTORE PUSH2 0x2F8B PUSH1 0x3 DUP3 ADD PUSH2 0x4F44 JUMP JUMPDEST PUSH1 0x60 DUP5 ADD MSTORE PUSH2 0x2F9C PUSH1 0x4 DUP3 ADD PUSH2 0x4F44 JUMP JUMPDEST PUSH1 0x80 DUP5 ADD MSTORE PUSH2 0x2FAD PUSH1 0x5 DUP3 ADD PUSH2 0x4F44 JUMP JUMPDEST PUSH1 0xA0 DUP5 ADD MSTORE PUSH2 0x2FBE PUSH1 0x6 DUP3 ADD PUSH2 0x4F44 JUMP JUMPDEST PUSH1 0xC0 DUP5 ADD MSTORE PUSH1 0x7 DUP2 ADD SLOAD PUSH1 0x1 PUSH1 0x1 PUSH1 0xA0 SHL SUB AND PUSH1 0xE0 DUP5 ADD MSTORE ADD SLOAD SWAP2 ADD DUP2 SWAP1 MSTORE PUSH1 0x40 MLOAD SWAP1 DUP2 MSTORE RETURN JUMPDEST CALLVALUE PUSH2 0x195 JUMPI PUSH1 0x20 CALLDATASIZE PUSH1 0x3 NOT ADD SLT PUSH2 0x195 JUMPI PUSH1 0x1 PUSH1 0x1 PUSH1 0xA0 SHL SUB PUSH2 0x3006 PUSH2 0x4D02 JUMP JUMPDEST AND PUSH0 MSTORE PUSH1 0x6 PUSH1 0x20 MSTORE PUSH1 0x20 PUSH2 0x100 PUSH1 0x40 PUSH0 KECCAK256 PUSH1 0x8 PUSH1 0x40 MLOAD SWAP2 PUSH2 0x3026 DUP4 PUSH2 0x4D34 JUMP JUMPDEST DUP1 SLOAD PUSH1 0x1 PUSH1 0x1 PUSH1 0xA0 SHL SUB SWAP1 DUP2 AND DUP5 MSTORE PUSH1 0x1 DUP3 ADD SLOAD AND DUP6 DUP5 ADD MSTORE PUSH2 0x304B PUSH1 0x2 DUP3 ADD PUSH2 0x4F44 JUMP JUMPDEST PUSH1 0x40 DUP5 ADD MSTORE PUSH2 0x305C PUSH1 0x3 DUP3 ADD PUSH2 0x4F44 JUMP JUMPDEST PUSH1 0x60 DUP5 ADD MSTORE PUSH2 0x306D PUSH1 0x4 DUP3 ADD PUSH2 0x4F44 JUMP JUMPDEST PUSH1 0x80 DUP5 ADD MSTORE PUSH2 0x307E PUSH1 0x5 DUP3 ADD PUSH2 0x4F44 JUMP JUMPDEST PUSH1 0xA0 DUP5 ADD MSTORE PUSH2 0x308F PUSH1 0x6 DUP3 ADD PUSH2 0x4F44 JUMP JUMPDEST PUSH1 0xC0 DUP5 ADD MSTORE PUSH2 0x30A0 PUSH1 0x7 DUP3 ADD PUSH2 0x4F44 JUMP JUMPDEST PUSH1 0xE0 DUP5 ADD MSTORE ADD SLOAD SWAP2 DUP3 SWAP2 ADD MSTORE PUSH1 0x40 MLOAD SWAP1 DUP2 MSTORE RETURN JUMPDEST CALLVALUE PUSH2 0x195 JUMPI PUSH1 0x20 CALLDATASIZE PUSH1 0x3 NOT ADD SLT PUSH2 0x195 JUMPI PUSH2 0x30CD PUSH2 0x4D02 JUMP JUMPDEST CALLER PUSH0 MSTORE PUSH1 0x7 PUSH1 0x20 MSTORE PUSH1 0x40 PUSH0 KECCAK256 SWAP1 PUSH1 0x1 DUP1 PUSH1 0xA0 SHL SUB AND PUSH0 MSTORE PUSH1 0x20 MSTORE PUSH1 0x40 PUSH0 KECCAK256 PUSH1 0x1 PUSH1 0xFF NOT DUP3 SLOAD AND OR SWAP1 SSTORE PUSH2 0x3101 PUSH1 0xE SLOAD PUSH2 0x5368 JUMP JUMPDEST PUSH1 0xE SSTORE PUSH1 0x20 PUSH1 0x40 MLOAD PUSH1 0x1 DUP2 MSTORE RETURN JUMPDEST CALLVALUE PUSH2 0x195 JUMPI PUSH1 0x20 CALLDATASIZE PUSH1 0x3 NOT ADD SLT PUSH2 0x195 JUMPI PUSH1 0x1 PUSH1 0x1 PUSH1 0xA0 SHL SUB PUSH2 0x3130 PUSH2 0x4D02 JUMP JUMPDEST AND PUSH0 DUP2 DUP2 MSTORE PUSH1 0x7 PUSH1 0x20 SWAP1 DUP2 MSTORE PUSH1 0x40 DUP1 DUP4 KECCAK256 CALLER DUP5 MSTORE SWAP1 SWAP2 MSTORE SWAP1 KECCAK256 SLOAD PUSH2 0x3156 SWAP1 PUSH1 0xFF AND PUSH2 0x538A JUMP JUMPDEST PUSH0 MSTORE PUSH1 0x4 PUSH1 0x20 MSTORE PUSH1 0x40 PUSH0 KECCAK256 PUSH1 0x40 MLOAD PUSH2 0x316D DUP2 PUSH2 0x4D18 JUMP JUMPDEST PUSH2 0x3176 DUP3 PUSH2 0x4F44 JUMP JUMPDEST DUP2 MSTORE PUSH2 0x357 PUSH2 0x3187 PUSH1 0x1 DUP5 ADD PUSH2 0x4F44 JUMP JUMPDEST SWAP2 PUSH1 0x20 DUP2 ADD SWAP3 DUP4 MSTORE PUSH2 0x319B PUSH1 0x2 DUP6 ADD PUSH2 0x4F44 JUMP JUMPDEST SWAP4 PUSH1 0x40 DUP3 ADD SWAP5 DUP6 MSTORE PUSH2 0x31AF PUSH1 0x3 DUP3 ADD PUSH2 0x4F44 JUMP JUMPDEST SWAP2 PUSH1 0x60 DUP2 ADD SWAP3 DUP4 MSTORE PUSH2 0x31C3 PUSH1 0x4 DUP4 ADD PUSH2 0x4F44 JUMP JUMPDEST PUSH1 0x80 DUP3 ADD SWAP1 DUP2 MSTORE PUSH2 0x31D6 PUSH1 0x5 DUP5 ADD PUSH2 0x4F44 JUMP JUMPDEST SWAP2 PUSH1 0xA0 DUP2 ADD SWAP3 DUP4 MSTORE PUSH1 0xE PUSH2 0x31EC PUSH1 0x6 DUP7 ADD PUSH2 0x4F44 JUMP JUMPDEST SWAP5 PUSH1 0xC0 DUP4 ADD SWAP6 DUP7 MSTORE PUSH2 0x3200 PUSH1 0x7 DUP3 ADD PUSH2 0x4F44 JUMP JUMPDEST PUSH1 0xE0 DUP5 ADD MSTORE PUSH2 0x3211 PUSH1 0x8 DUP3 ADD PUSH2 0x4F44 JUMP JUMPDEST PUSH2 0x100 DUP5 ADD MSTORE PUSH2 0x3223 PUSH1 0x9 DUP3 ADD PUSH2 0x4F44 JUMP JUMPDEST PUSH2 0x120 DUP5 ADD MSTORE PUSH2 0x3235 PUSH1 0xA DUP3 ADD PUSH2 0x4F44 JUMP JUMPDEST PUSH2 0x140 DUP5 ADD MSTORE PUSH2 0x3247 PUSH1 0xB DUP3 ADD PUSH2 0x4F44 JUMP JUMPDEST PUSH2 0x160 DUP5 ADD MSTORE PUSH2 0x3259 PUSH1 0xC DUP3 ADD PUSH2 0x4F44 JUMP JUMPDEST PUSH2 0x180 DUP5 ADD MSTORE PUSH1 0xD DUP2 ADD SLOAD PUSH1 0x1 PUSH1 0x1 PUSH1 0xA0 SHL SUB AND PUSH2 0x1A0 DUP5 ADD MSTORE ADD SLOAD PUSH2 0x1C0 DUP3 ADD MSTORE MLOAD SWAP6 MLOAD SWAP7 MLOAD SWAP4 MLOAD SWAP1 MLOAD SWAP2 MLOAD SWAP3 MLOAD PUSH1 0x40 MLOAD SWAP8 DUP9 SWAP8 SWAP2 SWAP6 SWAP2 DUP9 PUSH2 0x5206 JUMP JUMPDEST CALLVALUE PUSH2 0x195 JUMPI PUSH2 0x32A5 CALLDATASIZE PUSH2 0x505F JUMP JUMPDEST SWAP11 SWAP12 SWAP10 SWAP1 SWAP12 SWAP9 SWAP2 SWAP9 SWAP8 SWAP3 SWAP8 SWAP7 SWAP4 SWAP7 SWAP6 SWAP5 SWAP6 CALLER PUSH0 MSTORE PUSH1 0x8 PUSH1 0x20 MSTORE PUSH1 0xFF PUSH1 0x40 PUSH0 KECCAK256 SLOAD AND ISZERO PUSH2 0x408D JUMPI CALLER PUSH0 MSTORE PUSH1 0x4 PUSH1 0x20 MSTORE PUSH1 0x40 PUSH0 KECCAK256 SWAP11 DUP1 MLOAD SWAP1 PUSH1 0x1 PUSH1 0x1 PUSH1 0x40 SHL SUB DUP3 GT PUSH2 0x668 JUMPI DUP13 DUP3 SWAP2 PUSH2 0x32F6 DUP3 SLOAD PUSH2 0x4F0C JUMP JUMPDEST PUSH1 0x1F DUP2 GT PUSH2 0x4033 JUMPI JUMPDEST POP PUSH1 0x20 SWAP2 PUSH1 0x1F DUP5 GT PUSH1 0x1 EQ PUSH2 0x3FD0 JUMPI POP PUSH0 SWAP3 PUSH2 0x3FC5 JUMPI JUMPDEST POP POP DUP2 PUSH1 0x1 SHL SWAP2 PUSH0 NOT SWAP1 PUSH1 0x3 SHL SHR NOT AND OR DUP12 SSTORE JUMPDEST DUP1 MLOAD PUSH1 0x1 DUP13 ADD SWAP2 PUSH1 0x1 PUSH1 0x1 PUSH1 0x40 SHL SUB DUP3 GT PUSH2 0x668 JUMPI DUP2 SWAP1 PUSH2 0x334B DUP5 SLOAD PUSH2 0x4F0C JUMP JUMPDEST PUSH1 0x1F DUP2 GT PUSH2 0x3F75 JUMPI JUMPDEST POP PUSH1 0x20 SWAP1 PUSH1 0x1F DUP4 GT PUSH1 0x1 EQ PUSH2 0x3F12 JUMPI PUSH0 SWAP3 PUSH2 0x3F07 JUMPI JUMPDEST POP POP DUP2 PUSH1 0x1 SHL SWAP2 PUSH0 NOT SWAP1 PUSH1 0x3 SHL SHR NOT AND OR SWAP1 SSTORE JUMPDEST DUP1 MLOAD PUSH1 0x2 DUP12 ADD SWAP2 PUSH1 0x1 PUSH1 0x1 PUSH1 0x40 SHL SUB DUP3 GT PUSH2 0x668 JUMPI DUP2 SWAP1 PUSH2 0x339F DUP5 SLOAD PUSH2 0x4F0C JUMP JUMPDEST PUSH1 0x1F DUP2 GT PUSH2 0x3EB7 JUMPI JUMPDEST POP PUSH1 0x20 SWAP1 PUSH1 0x1F DUP4 GT PUSH1 0x1 EQ PUSH2 0x3E54 JUMPI PUSH0 SWAP3 PUSH2 0x3E49 JUMPI JUMPDEST POP POP DUP2 PUSH1 0x1 SHL SWAP2 PUSH0 NOT SWAP1 PUSH1 0x3 SHL SHR NOT AND OR SWAP1 SSTORE JUMPDEST DUP1 MLOAD PUSH1 0x3 DUP11 ADD SWAP2 PUSH1 0x1 PUSH1 0x1 PUSH1 0x40 SHL SUB DUP3 GT PUSH2 0x668 JUMPI DUP2 SWAP1 PUSH2 0x33F3 DUP5 SLOAD PUSH2 0x4F0C JUMP JUMPDEST PUSH1 0x1F DUP2 GT PUSH2 0x3DF9 JUMPI JUMPDEST POP PUSH1 0x20 SWAP1 PUSH1 0x1F DUP4 GT PUSH1 0x1 EQ PUSH2 0x3D96 JUMPI PUSH0 SWAP3 PUSH2 0x3D8B JUMPI JUMPDEST POP POP DUP2 PUSH1 0x1 SHL SWAP2 PUSH0 NOT SWAP1 PUSH1 0x3 SHL SHR NOT AND OR SWAP1 SSTORE JUMPDEST DUP1 MLOAD PUSH1 0x4 DUP10 ADD SWAP2 PUSH1 0x1 PUSH1 0x1 PUSH1 0x40 SHL SUB DUP3 GT PUSH2 0x668 JUMPI DUP2 SWAP1 PUSH2 0x3447 DUP5 SLOAD PUSH2 0x4F0C JUMP JUMPDEST PUSH1 0x1F DUP2 GT PUSH2 0x3D3B JUMPI JUMPDEST POP PUSH1 0x20 SWAP1 PUSH1 0x1F DUP4 GT PUSH1 0x1 EQ PUSH2 0x3CD8 JUMPI PUSH0 SWAP3 PUSH2 0x3CCD JUMPI JUMPDEST POP POP DUP2 PUSH1 0x1 SHL SWAP2 PUSH0 NOT SWAP1 PUSH1 0x3 SHL SHR NOT AND OR SWAP1 SSTORE JUMPDEST DUP1 MLOAD PUSH1 0x5 DUP9 ADD SWAP2 PUSH1 0x1 PUSH1 0x1 PUSH1 0x40 SHL SUB DUP3 GT PUSH2 0x668 JUMPI DUP2 SWAP1 PUSH2 0x349B DUP5 SLOAD PUSH2 0x4F0C JUMP JUMPDEST PUSH1 0x1F DUP2 GT PUSH2 0x3C7D JUMPI JUMPDEST POP PUSH1 0x20 SWAP1 PUSH1 0x1F DUP4 GT PUSH1 0x1 EQ PUSH2 0x3C1A JUMPI PUSH0 SWAP3 PUSH2 0x3C0F JUMPI JUMPDEST POP POP DUP2 PUSH1 0x1 SHL SWAP2 PUSH0 NOT SWAP1 PUSH1 0x3 SHL SHR NOT AND OR SWAP1 SSTORE JUMPDEST DUP1 MLOAD PUSH1 0x6 DUP8 ADD SWAP2 PUSH1 0x1 PUSH1 0x1 PUSH1 0x40 SHL SUB DUP3 GT PUSH2 0x668 JUMPI DUP2 SWAP1 PUSH2 0x34EF DUP5 SLOAD PUSH2 0x4F0C JUMP JUMPDEST PUSH1 0x1F DUP2 GT PUSH2 0x3BBF JUMPI JUMPDEST POP PUSH1 0x20 SWAP1 PUSH1 0x1F DUP4 GT PUSH1 0x1 EQ PUSH2 0x3B5C JUMPI PUSH0 SWAP3 PUSH2 0x3B51 JUMPI JUMPDEST POP POP DUP2 PUSH1 0x1 SHL SWAP2 PUSH0 NOT SWAP1 PUSH1 0x3 SHL SHR NOT AND OR SWAP1 SSTORE JUMPDEST DUP1 MLOAD PUSH1 0x7 DUP7 ADD SWAP2 PUSH1 0x1 PUSH1 0x1 PUSH1 0x40 SHL SUB DUP3 GT PUSH2 0x668 JUMPI DUP2 SWAP1 PUSH2 0x3543 DUP5 SLOAD PUSH2 0x4F0C JUMP JUMPDEST PUSH1 0x1F DUP2 GT PUSH2 0x3B01 JUMPI JUMPDEST POP PUSH1 0x20 SWAP1 PUSH1 0x1F DUP4 GT PUSH1 0x1 EQ PUSH2 0x3A9E JUMPI PUSH0 SWAP3 PUSH2 0x3A93 JUMPI JUMPDEST POP POP DUP2 PUSH1 0x1 SHL SWAP2 PUSH0 NOT SWAP1 PUSH1 0x3 SHL SHR NOT AND OR SWAP1 SSTORE JUMPDEST DUP1 MLOAD PUSH1 0x8 DUP6 ADD SWAP2 PUSH1 0x1 PUSH1 0x1 PUSH1 0x40 SHL SUB DUP3 GT PUSH2 0x668 JUMPI DUP2 SWAP1 PUSH2 0x3597 DUP5 SLOAD PUSH2 0x4F0C JUMP JUMPDEST PUSH1 0x1F DUP2 GT PUSH2 0x3A43 JUMPI JUMPDEST POP PUSH1 0x20 SWAP1 PUSH1 0x1F DUP4 GT PUSH1 0x1 EQ PUSH2 0x39E0 JUMPI PUSH0 SWAP3 PUSH2 0x39D5 JUMPI JUMPDEST POP POP DUP2 PUSH1 0x1 SHL SWAP2 PUSH0 NOT SWAP1 PUSH1 0x3 SHL SHR NOT AND OR SWAP1 SSTORE JUMPDEST DUP1 MLOAD PUSH1 0x9 DUP5 ADD SWAP2 PUSH1 0x1 PUSH1 0x1 PUSH1 0x40 SHL SUB DUP3 GT PUSH2 0x668 JUMPI DUP2 SWAP1 PUSH2 0x35EB DUP5 SLOAD PUSH2 0x4F0C JUMP JUMPDEST PUSH1 0x1F DUP2 GT PUSH2 0x3985 JUMPI JUMPDEST POP PUSH1 0x20 SWAP1 PUSH1 0x1F DUP4 GT PUSH1 0x1 EQ PUSH2 0x3922 JUMPI PUSH0 SWAP3 PUSH2 0x3917 JUMPI JUMPDEST POP POP DUP2 PUSH1 0x1 SHL SWAP2 PUSH0 NOT SWAP1 PUSH1 0x3 SHL SHR NOT AND OR SWAP1 SSTORE JUMPDEST DUP1 MLOAD PUSH1 0xA DUP4 ADD SWAP2 PUSH1 0x1 PUSH1 0x1 PUSH1 0x40 SHL SUB DUP3 GT PUSH2 0x668 JUMPI DUP2 SWAP1 PUSH2 0x363F DUP5 SLOAD PUSH2 0x4F0C JUMP JUMPDEST PUSH1 0x1F DUP2 GT PUSH2 0x38C7 JUMPI JUMPDEST POP PUSH1 0x20 SWAP1 PUSH1 0x1F DUP4 GT PUSH1 0x1 EQ PUSH2 0x3864 JUMPI PUSH0 SWAP3 PUSH2 0x3859 JUMPI JUMPDEST POP POP DUP2 PUSH1 0x1 SHL SWAP2 PUSH0 NOT SWAP1 PUSH1 0x3 SHL SHR NOT AND OR SWAP1 SSTORE JUMPDEST PUSH1 0xB DUP2 ADD DUP4 MLOAD PUSH1 0x1 PUSH1 0x1 PUSH1 0x40 SHL SUB DUP2 GT PUSH2 0x668 JUMPI PUSH2 0x3690 DUP3 SLOAD PUSH2 0x4F0C JUMP JUMPDEST PUSH1 0x1F DUP2 GT PUSH2 0x3814 JUMPI JUMPDEST POP PUSH1 0x20 PUSH1 0x1F DUP3 GT PUSH1 0x1 EQ PUSH2 0x37AF JUMPI DUP2 SWAP1 PUSH1 0xC SWAP6 SWAP7 PUSH0 SWAP3 PUSH2 0x37A4 JUMPI JUMPDEST POP POP DUP2 PUSH1 0x1 SHL SWAP2 PUSH0 NOT SWAP1 PUSH1 0x3 SHL SHR NOT AND OR SWAP1 SSTORE JUMPDEST ADD DUP2 MLOAD PUSH1 0x1 PUSH1 0x1 PUSH1 0x40 SHL SUB DUP2 GT PUSH2 0x668 JUMPI PUSH2 0x36E3 DUP3 SLOAD PUSH2 0x4F0C JUMP JUMPDEST PUSH1 0x1F DUP2 GT PUSH2 0x375F JUMPI JUMPDEST POP PUSH1 0x20 SWAP3 PUSH1 0x1F DUP3 GT PUSH1 0x1 EQ PUSH2 0x371C JUMPI SWAP3 DUP2 SWAP3 SWAP4 PUSH0 SWAP3 PUSH2 0x5BC JUMPI POP POP PUSH0 NOT PUSH1 0x3 DUP4 SWAP1 SHL SHR NOT AND PUSH1 0x1 SWAP2 SWAP1 SWAP2 SHL OR SWAP1 SSTORE STOP JUMPDEST PUSH1 0x1F NOT DUP3 AND SWAP4 DUP4 PUSH0 MSTORE DUP1 PUSH0 KECCAK256 SWAP2 PUSH0 JUMPDEST DUP7 DUP2 LT PUSH2 0x3747 JUMPI POP DUP4 PUSH1 0x1 SWAP6 SWAP7 LT PUSH2 0x5F3 JUMPI POP POP POP DUP2 SHL ADD SWAP1 SSTORE STOP JUMPDEST SWAP2 SWAP3 PUSH1 0x20 PUSH1 0x1 DUP2 SWAP3 DUP7 DUP6 ADD MLOAD DUP2 SSTORE ADD SWAP5 ADD SWAP3 ADD PUSH2 0x372B JUMP JUMPDEST DUP3 PUSH0 MSTORE PUSH1 0x20 PUSH0 KECCAK256 PUSH1 0x1F DUP4 ADD PUSH1 0x5 SHR DUP2 ADD SWAP2 PUSH1 0x20 DUP5 LT PUSH2 0x379A JUMPI JUMPDEST PUSH1 0x1F ADD PUSH1 0x5 SHR ADD SWAP1 JUMPDEST DUP2 DUP2 LT PUSH2 0x378F JUMPI POP PUSH2 0x36EC JUMP JUMPDEST PUSH0 DUP2 SSTORE PUSH1 0x1 ADD PUSH2 0x3782 JUMP JUMPDEST SWAP1 SWAP2 POP DUP2 SWAP1 PUSH2 0x3779 JUMP JUMPDEST ADD MLOAD SWAP1 POP DUP7 DUP1 PUSH2 0x36B4 JUMP JUMPDEST PUSH1 0x1F NOT DUP3 AND SWAP6 DUP4 PUSH0 MSTORE DUP2 PUSH0 KECCAK256 SWAP7 PUSH0 JUMPDEST DUP2 DUP2 LT PUSH2 0x37FC JUMPI POP SWAP2 PUSH1 0xC SWAP7 SWAP8 SWAP2 DUP5 PUSH1 0x1 SWAP6 SWAP5 LT PUSH2 0x37E4 JUMPI JUMPDEST POP POP POP DUP2 SHL ADD SWAP1 SSTORE PUSH2 0x36C8 JUMP JUMPDEST ADD MLOAD PUSH0 NOT PUSH1 0xF8 DUP5 PUSH1 0x3 SHL AND SHR NOT AND SWAP1 SSTORE DUP7 DUP1 DUP1 PUSH2 0x37D7 JUMP JUMPDEST DUP4 DUP4 ADD MLOAD DUP10 SSTORE PUSH1 0x1 SWAP1 SWAP9 ADD SWAP8 PUSH1 0x20 SWAP4 DUP5 ADD SWAP4 ADD PUSH2 0x37BE JUMP JUMPDEST DUP3 PUSH0 MSTORE PUSH1 0x20 PUSH0 KECCAK256 PUSH1 0x1F DUP4 ADD PUSH1 0x5 SHR DUP2 ADD SWAP2 PUSH1 0x20 DUP5 LT PUSH2 0x384F JUMPI JUMPDEST PUSH1 0x1F ADD PUSH1 0x5 SHR ADD SWAP1 JUMPDEST DUP2 DUP2 LT PUSH2 0x3844 JUMPI POP PUSH2 0x3699 JUMP JUMPDEST PUSH0 DUP2 SSTORE PUSH1 0x1 ADD PUSH2 0x3837 JUMP JUMPDEST SWAP1 SWAP2 POP DUP2 SWAP1 PUSH2 0x382E JUMP JUMPDEST ADD MLOAD SWAP1 POP DUP7 DUP1 PUSH2 0x365E JUMP JUMPDEST PUSH0 DUP6 DUP2 MSTORE DUP3 DUP2 KECCAK256 SWAP4 POP PUSH1 0x1F NOT DUP6 AND SWAP1 JUMPDEST DUP2 DUP2 LT PUSH2 0x38AF JUMPI POP SWAP1 DUP5 PUSH1 0x1 SWAP6 SWAP5 SWAP4 SWAP3 LT PUSH2 0x3897 JUMPI JUMPDEST POP POP POP DUP2 SHL ADD SWAP1 SSTORE PUSH2 0x3672 JUMP JUMPDEST ADD MLOAD PUSH0 NOT PUSH1 0xF8 DUP5 PUSH1 0x3 SHL AND SHR NOT AND SWAP1 SSTORE DUP7 DUP1 DUP1 PUSH2 0x388A JUMP JUMPDEST SWAP3 SWAP4 PUSH1 0x20 PUSH1 0x1 DUP2 SWAP3 DUP8 DUP7 ADD MLOAD DUP2 SSTORE ADD SWAP6 ADD SWAP4 ADD PUSH2 0x3874 JUMP JUMPDEST SWAP1 SWAP2 POP DUP4 PUSH0 MSTORE PUSH1 0x20 PUSH0 KECCAK256 PUSH1 0x1F DUP5 ADD PUSH1 0x5 SHR DUP2 ADD SWAP2 PUSH1 0x20 DUP6 LT PUSH2 0x390D JUMPI JUMPDEST SWAP1 PUSH1 0x1F DUP6 SWAP5 SWAP4 SWAP3 ADD PUSH1 0x5 SHR ADD SWAP1 JUMPDEST DUP2 DUP2 LT PUSH2 0x38FF JUMPI POP PUSH2 0x3648 JUMP JUMPDEST PUSH0 DUP2 SSTORE DUP5 SWAP4 POP PUSH1 0x1 ADD PUSH2 0x38F2 JUMP JUMPDEST SWAP1 SWAP2 POP DUP2 SWAP1 PUSH2 0x38E4 JUMP JUMPDEST ADD MLOAD SWAP1 POP DUP8 DUP1 PUSH2 0x360A JUMP JUMPDEST PUSH0 DUP6 DUP2 MSTORE DUP3 DUP2 KECCAK256 SWAP4 POP PUSH1 0x1F NOT DUP6 AND SWAP1 JUMPDEST DUP2 DUP2 LT PUSH2 0x396D JUMPI POP SWAP1 DUP5 PUSH1 0x1 SWAP6 SWAP5 SWAP4 SWAP3 LT PUSH2 0x3955 JUMPI JUMPDEST POP POP POP DUP2 SHL ADD SWAP1 SSTORE PUSH2 0x361E JUMP JUMPDEST ADD MLOAD PUSH0 NOT PUSH1 0xF8 DUP5 PUSH1 0x3 SHL AND SHR NOT AND SWAP1 SSTORE DUP8 DUP1 DUP1 PUSH2 0x3948 JUMP JUMPDEST SWAP3 SWAP4 PUSH1 0x20 PUSH1 0x1 DUP2 SWAP3 DUP8 DUP7 ADD MLOAD DUP2 SSTORE ADD SWAP6 ADD SWAP4 ADD PUSH2 0x3932 JUMP JUMPDEST SWAP1 SWAP2 POP DUP4 PUSH0 MSTORE PUSH1 0x20 PUSH0 KECCAK256 PUSH1 0x1F DUP5 ADD PUSH1 0x5 SHR DUP2 ADD SWAP2 PUSH1 0x20 DUP6 LT PUSH2 0x39CB JUMPI JUMPDEST SWAP1 PUSH1 0x1F DUP6 SWAP5 SWAP4 SWAP3 ADD PUSH1 0x5 SHR ADD SWAP1 JUMPDEST DUP2 DUP2 LT PUSH2 0x39BD JUMPI POP PUSH2 0x35F4 JUMP JUMPDEST PUSH0 DUP2 SSTORE DUP5 SWAP4 POP PUSH1 0x1 ADD PUSH2 0x39B0 JUMP JUMPDEST SWAP1 SWAP2 POP DUP2 SWAP1 PUSH2 0x39A2 JUMP JUMPDEST ADD MLOAD SWAP1 POP DUP9 DUP1 PUSH2 0x35B6 JUMP JUMPDEST PUSH0 DUP6 DUP2 MSTORE DUP3 DUP2 KECCAK256 SWAP4 POP PUSH1 0x1F NOT DUP6 AND SWAP1 JUMPDEST DUP2 DUP2 LT PUSH2 0x3A2B JUMPI POP SWAP1 DUP5 PUSH1 0x1 SWAP6 SWAP5 SWAP4 SWAP3 LT PUSH2 0x3A13 JUMPI JUMPDEST POP POP POP DUP2 SHL ADD SWAP1 SSTORE PUSH2 0x35CA JUMP JUMPDEST ADD MLOAD PUSH0 NOT PUSH1 0xF8 DUP5 PUSH1 0x3 SHL AND SHR NOT AND SWAP1 SSTORE DUP9 DUP1 DUP1 PUSH2 0x3A06 JUMP JUMPDEST SWAP3 SWAP4 PUSH1 0x20 PUSH1 0x1 DUP2 SWAP3 DUP8 DUP7 ADD MLOAD DUP2 SSTORE ADD SWAP6 ADD SWAP4 ADD PUSH2 0x39F0 JUMP JUMPDEST SWAP1 SWAP2 POP DUP4 PUSH0 MSTORE PUSH1 0x20 PUSH0 KECCAK256 PUSH1 0x1F DUP5 ADD PUSH1 0x5 SHR DUP2 ADD SWAP2 PUSH1 0x20 DUP6 LT PUSH2 0x3A89 JUMPI JUMPDEST SWAP1 PUSH1 0x1F DUP6 SWAP5 SWAP4 SWAP3 ADD PUSH1 0x5 SHR ADD SWAP1 JUMPDEST DUP2 DUP2 LT PUSH2 0x3A7B JUMPI POP PUSH2 0x35A0 JUMP JUMPDEST PUSH0 DUP2 SSTORE DUP5 SWAP4 POP PUSH1 0x1 ADD PUSH2 0x3A6E JUMP JUMPDEST SWAP1 SWAP2 POP DUP2 SWAP1 PUSH2 0x3A60 JUMP JUMPDEST ADD MLOAD SWAP1 POP DUP10 DUP1 PUSH2 0x3562 JUMP JUMPDEST PUSH0 DUP6 DUP2 MSTORE DUP3 DUP2 KECCAK256 SWAP4 POP PUSH1 0x1F NOT DUP6 AND SWAP1 JUMPDEST DUP2 DUP2 LT PUSH2 0x3AE9 JUMPI POP SWAP1 DUP5 PUSH1 0x1 SWAP6 SWAP5 SWAP4 SWAP3 LT PUSH2 0x3AD1 JUMPI JUMPDEST POP POP POP DUP2 SHL ADD SWAP1 SSTORE PUSH2 0x3576 JUMP JUMPDEST ADD MLOAD PUSH0 NOT PUSH1 0xF8 DUP5 PUSH1 0x3 SHL AND SHR NOT AND SWAP1 SSTORE DUP10 DUP1 DUP1 PUSH2 0x3AC4 JUMP JUMPDEST SWAP3 SWAP4 PUSH1 0x20 PUSH1 0x1 DUP2 SWAP3 DUP8 DUP7 ADD MLOAD DUP2 SSTORE ADD SWAP6 ADD SWAP4 ADD PUSH2 0x3AAE JUMP JUMPDEST SWAP1 SWAP2 POP DUP4 PUSH0 MSTORE PUSH1 0x20 PUSH0 KECCAK256 PUSH1 0x1F DUP5 ADD PUSH1 0x5 SHR DUP2 ADD SWAP2 PUSH1 0x20 DUP6 LT PUSH2 0x3B47 JUMPI JUMPDEST SWAP1 PUSH1 0x1F DUP6 SWAP5 SWAP4 SWAP3 ADD PUSH1 0x5 SHR ADD SWAP1 JUMPDEST DUP2 DUP2 LT PUSH2 0x3B39 JUMPI POP PUSH2 0x354C JUMP JUMPDEST PUSH0 DUP2 SSTORE DUP5 SWAP4 POP PUSH1 0x1 ADD PUSH2 0x3B2C JUMP JUMPDEST SWAP1 SWAP2 POP DUP2 SWAP1 PUSH2 0x3B1E JUMP JUMPDEST ADD MLOAD SWAP1 POP DUP11 DUP1 PUSH2 0x350E JUMP JUMPDEST PUSH0 DUP6 DUP2 MSTORE DUP3 DUP2 KECCAK256 SWAP4 POP PUSH1 0x1F NOT DUP6 AND SWAP1 JUMPDEST DUP2 DUP2 LT PUSH2 0x3BA7 JUMPI POP SWAP1 DUP5 PUSH1 0x1 SWAP6 SWAP5 SWAP4 SWAP3 LT PUSH2 0x3B8F JUMPI JUMPDEST POP POP POP DUP2 SHL ADD SWAP1 SSTORE PUSH2 0x3522 JUMP JUMPDEST ADD MLOAD PUSH0 NOT PUSH1 0xF8 DUP5 PUSH1 0x3 SHL AND SHR NOT AND SWAP1 SSTORE DUP11 DUP1 DUP1 PUSH2 0x3B82 JUMP JUMPDEST SWAP3 SWAP4 PUSH1 0x20 PUSH1 0x1 DUP2 SWAP3 DUP8 DUP7 ADD MLOAD DUP2 SSTORE ADD SWAP6 ADD SWAP4 ADD PUSH2 0x3B6C JUMP JUMPDEST SWAP1 SWAP2 POP DUP4 PUSH0 MSTORE PUSH1 0x20 PUSH0 KECCAK256 PUSH1 0x1F DUP5 ADD PUSH1 0x5 SHR DUP2 ADD SWAP2 PUSH1 0x20 DUP6 LT PUSH2 0x3C05 JUMPI JUMPDEST SWAP1 PUSH1 0x1F DUP6 SWAP5 SWAP4 SWAP3 ADD PUSH1 0x5 SHR ADD SWAP1 JUMPDEST DUP2 DUP2 LT PUSH2 0x3BF7 JUMPI POP PUSH2 0x34F8 JUMP JUMPDEST PUSH0 DUP2 SSTORE DUP5 SWAP4 POP PUSH1 0x1 ADD PUSH2 0x3BEA JUMP JUMPDEST SWAP1 SWAP2 POP DUP2 SWAP1 PUSH2 0x3BDC JUMP JUMPDEST ADD MLOAD SWAP1 POP DUP12 DUP1 PUSH2 0x34BA JUMP JUMPDEST PUSH0 DUP6 DUP2 MSTORE DUP3 DUP2 KECCAK256 SWAP4 POP PUSH1 0x1F NOT DUP6 AND SWAP1 JUMPDEST DUP2 DUP2 LT PUSH2 0x3C65 JUMPI POP SWAP1 DUP5 PUSH1 0x1 SWAP6 SWAP5 SWAP4 SWAP3 LT PUSH2 0x3C4D JUMPI JUMPDEST POP POP POP DUP2 SHL ADD SWAP1 SSTORE PUSH2 0x34CE JUMP JUMPDEST ADD MLOAD PUSH0 NOT PUSH1 0xF8 DUP5 PUSH1 0x3 SHL AND SHR NOT AND SWAP1 SSTORE DUP12 DUP1 DUP1 PUSH2 0x3C40 JUMP JUMPDEST SWAP3 SWAP4 PUSH1 0x20 PUSH1 0x1 DUP2 SWAP3 DUP8 DUP7 ADD MLOAD DUP2 SSTORE ADD SWAP6 ADD SWAP4 ADD PUSH2 0x3C2A JUMP JUMPDEST SWAP1 SWAP2 POP DUP4 PUSH0 MSTORE PUSH1 0x20 PUSH0 KECCAK256 PUSH1 0x1F DUP5 ADD PUSH1 0x5 SHR DUP2 ADD SWAP2 PUSH1 0x20 DUP6 LT PUSH2 0x3CC3 JUMPI JUMPDEST SWAP1 PUSH1 0x1F DUP6 SWAP5 SWAP4 SWAP3 ADD PUSH1 0x5 SHR ADD SWAP1 JUMPDEST DUP2 DUP2 LT PUSH2 0x3CB5 JUMPI POP PUSH2 0x34A4 JUMP JUMPDEST PUSH0 DUP2 SSTORE DUP5 SWAP4 POP PUSH1 0x1 ADD PUSH2 0x3CA8 JUMP JUMPDEST SWAP1 SWAP2 POP DUP2 SWAP1 PUSH2 0x3C9A JUMP JUMPDEST ADD MLOAD SWAP1 POP DUP13 DUP1 PUSH2 0x3466 JUMP JUMPDEST PUSH0 DUP6 DUP2 MSTORE DUP3 DUP2 KECCAK256 SWAP4 POP PUSH1 0x1F NOT DUP6 AND SWAP1 JUMPDEST DUP2 DUP2 LT PUSH2 0x3D23 JUMPI POP SWAP1 DUP5 PUSH1 0x1 SWAP6 SWAP5 SWAP4 SWAP3 LT PUSH2 0x3D0B JUMPI JUMPDEST POP POP POP DUP2 SHL ADD SWAP1 SSTORE PUSH2 0x347A JUMP JUMPDEST ADD MLOAD PUSH0 NOT PUSH1 0xF8 DUP5 PUSH1 0x3 SHL AND SHR NOT AND SWAP1 SSTORE DUP13 DUP1 DUP1 PUSH2 0x3CFE JUMP JUMPDEST SWAP3 SWAP4 PUSH1 0x20 PUSH1 0x1 DUP2 SWAP3 DUP8 DUP7 ADD MLOAD DUP2 SSTORE ADD SWAP6 ADD SWAP4 ADD PUSH2 0x3CE8 JUMP JUMPDEST SWAP1 SWAP2 POP DUP4 PUSH0 MSTORE PUSH1 0x20 PUSH0 KECCAK256 PUSH1 0x1F DUP5 ADD PUSH1 0x5 SHR DUP2 ADD SWAP2 PUSH1 0x20 DUP6 LT PUSH2 0x3D81 JUMPI JUMPDEST SWAP1 PUSH1 0x1F DUP6 SWAP5 SWAP4 SWAP3 ADD PUSH1 0x5 SHR ADD SWAP1 JUMPDEST DUP2 DUP2 LT PUSH2 0x3D73 JUMPI POP PUSH2 0x3450 JUMP JUMPDEST PUSH0 DUP2 SSTORE DUP5 SWAP4 POP PUSH1 0x1 ADD PUSH2 0x3D66 JUMP JUMPDEST SWAP1 SWAP2 POP DUP2 SWAP1 PUSH2 0x3D58 JUMP JUMPDEST ADD MLOAD SWAP1 POP DUP14 DUP1 PUSH2 0x3412 JUMP JUMPDEST PUSH0 DUP6 DUP2 MSTORE DUP3 DUP2 KECCAK256 SWAP4 POP PUSH1 0x1F NOT DUP6 AND SWAP1 JUMPDEST DUP2 DUP2 LT PUSH2 0x3DE1 JUMPI POP SWAP1 DUP5 PUSH1 0x1 SWAP6 SWAP5 SWAP4 SWAP3 LT PUSH2 0x3DC9 JUMPI JUMPDEST POP POP POP DUP2 SHL ADD SWAP1 SSTORE PUSH2 0x3426 JUMP JUMPDEST ADD MLOAD PUSH0 NOT PUSH1 0xF8 DUP5 PUSH1 0x3 SHL AND SHR NOT AND SWAP1 SSTORE DUP14 DUP1 DUP1 PUSH2 0x3DBC JUMP JUMPDEST SWAP3 SWAP4 PUSH1 0x20 PUSH1 0x1 DUP2 SWAP3 DUP8 DUP7 ADD MLOAD DUP2 SSTORE ADD SWAP6 ADD SWAP4 ADD PUSH2 0x3DA6 JUMP JUMPDEST SWAP1 SWAP2 POP DUP4 PUSH0 MSTORE PUSH1 0x20 PUSH0 KECCAK256 PUSH1 0x1F DUP5 ADD PUSH1 0x5 SHR DUP2 ADD SWAP2 PUSH1 0x20 DUP6 LT PUSH2 0x3E3F JUMPI JUMPDEST SWAP1 PUSH1 0x1F DUP6 SWAP5 SWAP4 SWAP3 ADD PUSH1 0x5 SHR ADD SWAP1 JUMPDEST DUP2 DUP2 LT PUSH2 0x3E31 JUMPI POP PUSH2 0x33FC JUMP JUMPDEST PUSH0 DUP2 SSTORE DUP5 SWAP4 POP PUSH1 0x1 ADD PUSH2 0x3E24 JUMP JUMPDEST SWAP1 SWAP2 POP DUP2 SWAP1 PUSH2 0x3E16 JUMP JUMPDEST ADD MLOAD SWAP1 POP DUP15 DUP1 PUSH2 0x33BE JUMP JUMPDEST PUSH0 DUP6 DUP2 MSTORE DUP3 DUP2 KECCAK256 SWAP4 POP PUSH1 0x1F NOT DUP6 AND SWAP1 JUMPDEST DUP2 DUP2 LT PUSH2 0x3E9F JUMPI POP SWAP1 DUP5 PUSH1 0x1 SWAP6 SWAP5 SWAP4 SWAP3 LT PUSH2 0x3E87 JUMPI JUMPDEST POP POP POP DUP2 SHL ADD SWAP1 SSTORE PUSH2 0x33D2 JUMP JUMPDEST ADD MLOAD PUSH0 NOT PUSH1 0xF8 DUP5 PUSH1 0x3 SHL AND SHR NOT AND SWAP1 SSTORE DUP15 DUP1 DUP1 PUSH2 0x3E7A JUMP JUMPDEST SWAP3 SWAP4 PUSH1 0x20 PUSH1 0x1 DUP2 SWAP3 DUP8 DUP7 ADD MLOAD DUP2 SSTORE ADD SWAP6 ADD SWAP4 ADD PUSH2 0x3E64 JUMP JUMPDEST SWAP1 SWAP2 POP DUP4 PUSH0 MSTORE PUSH1 0x20 PUSH0 KECCAK256 PUSH1 0x1F DUP5 ADD PUSH1 0x5 SHR DUP2 ADD SWAP2 PUSH1 0x20 DUP6 LT PUSH2 0x3EFD JUMPI JUMPDEST SWAP1 PUSH1 0x1F DUP6 SWAP5 SWAP4 SWAP3 ADD PUSH1 0x5 SHR ADD SWAP1 JUMPDEST DUP2 DUP2 LT PUSH2 0x3EEF JUMPI POP PUSH2 0x33A8 JUMP JUMPDEST PUSH0 DUP2 SSTORE DUP5 SWAP4 POP PUSH1 0x1 ADD PUSH2 0x3EE2 JUMP JUMPDEST SWAP1 SWAP2 POP DUP2 SWAP1 PUSH2 0x3ED4 JUMP JUMPDEST ADD MLOAD SWAP1 POP DUP16 DUP1 PUSH2 0x336A JUMP JUMPDEST PUSH0 DUP6 DUP2 MSTORE DUP3 DUP2 KECCAK256 SWAP4 POP PUSH1 0x1F NOT DUP6 AND SWAP1 JUMPDEST DUP2 DUP2 LT PUSH2 0x3F5D JUMPI POP SWAP1 DUP5 PUSH1 0x1 SWAP6 SWAP5 SWAP4 SWAP3 LT PUSH2 0x3F45 JUMPI JUMPDEST POP POP POP DUP2 SHL ADD SWAP1 SSTORE PUSH2 0x337E JUMP JUMPDEST ADD MLOAD PUSH0 NOT PUSH1 0xF8 DUP5 PUSH1 0x3 SHL AND SHR NOT AND SWAP1 SSTORE DUP16 DUP1 DUP1 PUSH2 0x3F38 JUMP JUMPDEST SWAP3 SWAP4 PUSH1 0x20 PUSH1 0x1 DUP2 SWAP3 DUP8 DUP7 ADD MLOAD DUP2 SSTORE ADD SWAP6 ADD SWAP4 ADD PUSH2 0x3F22 JUMP JUMPDEST SWAP1 SWAP2 POP DUP4 PUSH0 MSTORE PUSH1 0x20 PUSH0 KECCAK256 PUSH1 0x1F DUP5 ADD PUSH1 0x5 SHR DUP2 ADD SWAP2 PUSH1 0x20 DUP6 LT PUSH2 0x3FBB JUMPI JUMPDEST SWAP1 PUSH1 0x1F DUP6 SWAP5 SWAP4 SWAP3 ADD PUSH1 0x5 SHR ADD SWAP1 JUMPDEST DUP2 DUP2 LT PUSH2 0x3FAD JUMPI POP PUSH2 0x3354 JUMP JUMPDEST PUSH0 DUP2 SSTORE DUP5 SWAP4 POP PUSH1 0x1 ADD PUSH2 0x3FA0 JUMP JUMPDEST SWAP1 SWAP2 POP DUP2 SWAP1 PUSH2 0x3F92 JUMP JUMPDEST ADD MLOAD SWAP1 POP DUP16 DUP1 PUSH2 0x3316 JUMP JUMPDEST PUSH0 SWAP1 DUP2 MSTORE DUP3 DUP2 KECCAK256 SWAP4 POP PUSH1 0x1F NOT DUP6 AND SWAP1 JUMPDEST DUP2 DUP2 LT PUSH2 0x401B JUMPI POP SWAP1 DUP5 PUSH1 0x1 SWAP6 SWAP5 SWAP4 SWAP3 LT PUSH2 0x4003 JUMPI JUMPDEST POP POP POP DUP2 SHL ADD DUP12 SSTORE PUSH2 0x332A JUMP JUMPDEST ADD MLOAD PUSH0 NOT PUSH1 0xF8 DUP5 PUSH1 0x3 SHL AND SHR NOT AND SWAP1 SSTORE DUP16 DUP1 DUP1 PUSH2 0x3FF6 JUMP JUMPDEST SWAP3 SWAP4 PUSH1 0x20 PUSH1 0x1 DUP2 SWAP3 DUP8 DUP7 ADD MLOAD DUP2 SSTORE ADD SWAP6 ADD SWAP4 ADD PUSH2 0x3FE0 JUMP JUMPDEST SWAP2 SWAP1 SWAP3 POP PUSH0 MSTORE PUSH1 0x20 PUSH0 KECCAK256 PUSH1 0x1F DUP5 ADD PUSH1 0x5 SHR DUP2 ADD SWAP2 PUSH1 0x20 DUP6 LT PUSH2 0x4083 JUMPI JUMPDEST SWAP2 DUP16 SWAP3 SWAP2 PUSH1 0x1F DUP7 SWAP6 SWAP4 ADD PUSH1 0x5 SHR ADD SWAP1 JUMPDEST DUP2 DUP2 LT PUSH2 0x406D JUMPI POP PUSH2 0x32FF JUMP JUMPDEST SWAP1 SWAP3 POP PUSH1 0x1 SWAP2 SWAP4 POP PUSH0 DUP2 SSTORE ADD SWAP2 DUP15 SWAP2 DUP5 SWAP4 PUSH2 0x4060 JUMP JUMPDEST SWAP1 SWAP2 POP DUP2 SWAP1 PUSH2 0x4050 JUMP JUMPDEST PUSH1 0x40 MLOAD PUSH3 0x461BCD PUSH1 0xE5 SHL DUP2 MSTORE PUSH1 0x20 PUSH1 0x4 DUP3 ADD MSTORE PUSH1 0x18 PUSH1 0x24 DUP3 ADD MSTORE PUSH32 0x4E6F74206120726567697374657265642070617469656E740000000000000000 PUSH1 0x44 DUP3 ADD MSTORE PUSH1 0x64 SWAP1 REVERT JUMPDEST CALLVALUE PUSH2 0x195 JUMPI PUSH1 0x20 CALLDATASIZE PUSH1 0x3 NOT ADD SLT PUSH2 0x195 JUMPI PUSH1 0x1 PUSH1 0x1 PUSH1 0xA0 SHL SUB PUSH2 0x40F3 PUSH2 0x4D02 JUMP JUMPDEST AND PUSH0 DUP2 DUP2 MSTORE PUSH1 0x7 PUSH1 0x20 SWAP1 DUP2 MSTORE PUSH1 0x40 DUP1 DUP4 KECCAK256 CALLER DUP5 MSTORE SWAP1 SWAP2 MSTORE SWAP1 KECCAK256 SLOAD PUSH2 0x4119 SWAP1 PUSH1 0xFF AND PUSH2 0x538A JUMP JUMPDEST PUSH0 MSTORE PUSH1 0x4 PUSH1 0x20 MSTORE PUSH2 0x426A PUSH1 0x40 PUSH0 KECCAK256 PUSH2 0x357 PUSH1 0x40 MLOAD SWAP2 PUSH2 0x4137 DUP4 PUSH2 0x4D18 JUMP JUMPDEST PUSH2 0x4140 DUP2 PUSH2 0x4F44 JUMP JUMPDEST DUP4 MSTORE PUSH2 0x414E PUSH1 0x1 DUP3 ADD PUSH2 0x4F44 JUMP JUMPDEST PUSH1 0x20 DUP5 ADD MSTORE PUSH2 0x415F PUSH1 0x2 DUP3 ADD PUSH2 0x4F44 JUMP JUMPDEST PUSH1 0x40 DUP5 ADD MSTORE PUSH2 0x4170 PUSH1 0x3 DUP3 ADD PUSH2 0x4F44 JUMP JUMPDEST PUSH1 0x60 DUP5 ADD MSTORE PUSH2 0x4181 PUSH1 0x4 DUP3 ADD PUSH2 0x4F44 JUMP JUMPDEST PUSH1 0x80 DUP5 ADD MSTORE PUSH2 0x4192 PUSH1 0x5 DUP3 ADD PUSH2 0x4F44 JUMP JUMPDEST PUSH1 0xA0 DUP5 ADD MSTORE PUSH2 0x41A3 PUSH1 0x6 DUP3 ADD PUSH2 0x4F44 JUMP JUMPDEST PUSH1 0xC0 DUP5 ADD MSTORE PUSH2 0x42A2 PUSH2 0x41B7 PUSH1 0x7 DUP4 ADD PUSH2 0x4F44 JUMP JUMPDEST PUSH1 0xE0 DUP6 ADD SWAP1 DUP2 MSTORE PUSH2 0x4294 PUSH2 0x41CD PUSH1 0x8 DUP6 ADD PUSH2 0x4F44 JUMP JUMPDEST SWAP6 PUSH2 0x100 DUP2 ADD SWAP7 DUP8 MSTORE PUSH2 0x4286 PUSH2 0x41E5 PUSH1 0x9 DUP8 ADD PUSH2 0x4F44 JUMP JUMPDEST SWAP4 PUSH2 0x120 DUP4 ADD SWAP5 DUP6 MSTORE PUSH2 0x4278 PUSH2 0x41FD PUSH1 0xA DUP10 ADD PUSH2 0x4F44 JUMP JUMPDEST SWAP2 PUSH2 0x140 DUP6 ADD SWAP3 DUP4 MSTORE PUSH2 0x4212 PUSH1 0xB DUP11 ADD PUSH2 0x4F44 JUMP JUMPDEST SWAP5 PUSH2 0x160 DUP2 ADD SWAP6 DUP7 MSTORE PUSH2 0x1C0 PUSH1 0xE PUSH2 0x422C PUSH1 0xC DUP14 ADD PUSH2 0x4F44 JUMP JUMPDEST SWAP12 DUP13 PUSH2 0x180 DUP6 ADD MSTORE PUSH1 0x1 DUP1 PUSH1 0xA0 SHL SUB PUSH1 0xD DUP3 ADD SLOAD AND PUSH2 0x1A0 DUP6 ADD MSTORE ADD SLOAD SWAP2 ADD MSTORE MLOAD SWAP10 MLOAD SWAP6 MLOAD SWAP2 MLOAD SWAP4 MLOAD SWAP6 PUSH1 0x40 MLOAD SWAP12 DUP13 SWAP12 PUSH1 0xC0 DUP14 MSTORE PUSH1 0xC0 DUP14 ADD SWAP1 PUSH2 0x4FE4 JUMP JUMPDEST SWAP1 DUP12 DUP3 SUB PUSH1 0x20 DUP14 ADD MSTORE PUSH2 0x4FE4 JUMP JUMPDEST SWAP1 DUP10 DUP3 SUB PUSH1 0x40 DUP12 ADD MSTORE PUSH2 0x4FE4 JUMP JUMPDEST SWAP1 DUP8 DUP3 SUB PUSH1 0x60 DUP10 ADD MSTORE PUSH2 0x4FE4 JUMP JUMPDEST SWAP1 DUP6 DUP3 SUB PUSH1 0x80 DUP8 ADD MSTORE PUSH2 0x4FE4 JUMP JUMPDEST SWAP1 DUP4 DUP3 SUB PUSH1 0xA0 DUP6 ADD MSTORE PUSH2 0x4FE4 JUMP JUMPDEST CALLVALUE PUSH2 0x195 JUMPI PUSH0 CALLDATASIZE PUSH1 0x3 NOT ADD SLT PUSH2 0x195 JUMPI PUSH1 0x40 MLOAD DUP1 PUSH1 0x20 PUSH1 0x1 SLOAD SWAP2 DUP3 DUP2 MSTORE ADD SWAP1 PUSH1 0x1 PUSH0 MSTORE PUSH32 0xB10E2D527612073B26EECDFD717E6A320CF44B4AFAC2B0732D9FCBE2B7FA0CF6 SWAP1 PUSH0 JUMPDEST DUP2 DUP2 LT PUSH2 0x430E JUMPI PUSH2 0x357 DUP6 PUSH2 0xC85 DUP2 DUP8 SUB DUP3 PUSH2 0x4D50 JUMP JUMPDEST DUP3 SLOAD PUSH1 0x1 PUSH1 0x1 PUSH1 0xA0 SHL SUB AND DUP5 MSTORE PUSH1 0x20 SWAP1 SWAP4 ADD SWAP3 PUSH1 0x1 SWAP3 DUP4 ADD SWAP3 ADD PUSH2 0x42F7 JUMP JUMPDEST CALLVALUE PUSH2 0x195 JUMPI PUSH1 0x20 CALLDATASIZE PUSH1 0x3 NOT ADD SLT PUSH2 0x195 JUMPI PUSH1 0x4 CALLDATALOAD PUSH1 0x2 SLOAD DUP2 LT ISZERO PUSH2 0x195 JUMPI PUSH1 0x2 SLOAD DUP2 LT ISZERO PUSH2 0x235 JUMPI PUSH1 0x2 PUSH0 MSTORE PUSH32 0x405787FA12A823E0F2B7631CC41B3BA8828B3321CA811111FA75CD3AA3BB5ACE ADD SLOAD PUSH1 0x40 MLOAD PUSH1 0x1 PUSH1 0x1 PUSH1 0xA0 SHL SUB SWAP1 SWAP2 AND DUP2 MSTORE PUSH1 0x20 SWAP1 RETURN JUMPDEST CALLVALUE PUSH2 0x195 JUMPI PUSH1 0x20 CALLDATASIZE PUSH1 0x3 NOT ADD SLT PUSH2 0x195 JUMPI PUSH1 0x1 PUSH1 0x1 PUSH1 0xA0 SHL SUB PUSH2 0x43B2 PUSH2 0x4D02 JUMP JUMPDEST AND PUSH0 MSTORE PUSH1 0x4 PUSH1 0x20 MSTORE PUSH1 0x40 PUSH0 KECCAK256 PUSH2 0x43C7 DUP2 PUSH2 0x4F44 JUMP JUMPDEST SWAP1 PUSH2 0x43D4 PUSH1 0x1 DUP3 ADD PUSH2 0x4F44 JUMP JUMPDEST SWAP1 PUSH2 0x43E1 PUSH1 0x2 DUP3 ADD PUSH2 0x4F44 JUMP JUMPDEST PUSH2 0x43ED PUSH1 0x3 DUP4 ADD PUSH2 0x4F44 JUMP JUMPDEST PUSH2 0x43F9 PUSH1 0x4 DUP5 ADD PUSH2 0x4F44 JUMP JUMPDEST PUSH2 0x4405 PUSH1 0x5 DUP6 ADD PUSH2 0x4F44 JUMP JUMPDEST PUSH2 0x4411 PUSH1 0x6 DUP7 ADD PUSH2 0x4F44 JUMP JUMPDEST PUSH2 0x441D PUSH1 0x7 DUP8 ADD PUSH2 0x4F44 JUMP JUMPDEST PUSH2 0x4429 PUSH1 0x8 DUP9 ADD PUSH2 0x4F44 JUMP JUMPDEST SWAP1 PUSH2 0x4436 PUSH1 0x9 DUP10 ADD PUSH2 0x4F44 JUMP JUMPDEST SWAP3 PUSH2 0x4443 PUSH1 0xA DUP11 ADD PUSH2 0x4F44 JUMP JUMPDEST SWAP5 PUSH2 0x4450 PUSH1 0xB DUP12 ADD PUSH2 0x4F44 JUMP JUMPDEST SWAP7 PUSH2 0x445D PUSH1 0xC DUP13 ADD PUSH2 0x4F44 JUMP JUMPDEST SWAP9 PUSH1 0x1 PUSH1 0xA0 SHL PUSH1 0x1 SWAP1 SUB PUSH1 0xD DUP14 ADD SLOAD AND SWAP12 PUSH1 0xE ADD SLOAD SWAP11 PUSH1 0x40 MLOAD SWAP15 DUP16 SWAP15 DUP16 SWAP2 PUSH2 0x1E0 DUP4 MSTORE PUSH2 0x1E0 DUP4 ADD PUSH2 0x448E SWAP2 PUSH2 0x4FE4 JUMP JUMPDEST DUP3 DUP2 SUB PUSH1 0x20 DUP5 ADD MSTORE PUSH2 0x449F SWAP2 PUSH2 0x4FE4 JUMP JUMPDEST SWAP1 DUP1 DUP3 SUB SWAP1 PUSH1 0x40 ADD MSTORE PUSH2 0x44B1 SWAP2 PUSH2 0x4FE4 JUMP JUMPDEST DUP14 DUP2 SUB PUSH1 0x60 DUP16 ADD MSTORE PUSH2 0x44C2 SWAP2 PUSH2 0x4FE4 JUMP JUMPDEST DUP13 DUP2 SUB PUSH1 0x80 DUP15 ADD MSTORE PUSH2 0x44D3 SWAP2 PUSH2 0x4FE4 JUMP JUMPDEST DUP12 DUP2 SUB PUSH1 0xA0 DUP14 ADD MSTORE PUSH2 0x44E4 SWAP2 PUSH2 0x4FE4 JUMP JUMPDEST DUP11 DUP2 SUB PUSH1 0xC0 DUP13 ADD MSTORE PUSH2 0x44F5 SWAP2 PUSH2 0x4FE4 JUMP JUMPDEST DUP10 DUP2 SUB PUSH1 0xE0 DUP12 ADD MSTORE PUSH2 0x4506 SWAP2 PUSH2 0x4FE4 JUMP JUMPDEST DUP9 DUP2 SUB PUSH2 0x100 DUP11 ADD MSTORE PUSH2 0x4518 SWAP2 PUSH2 0x4FE4 JUMP JUMPDEST DUP8 DUP2 SUB PUSH2 0x120 DUP10 ADD MSTORE PUSH2 0x452A SWAP2 PUSH2 0x4FE4 JUMP JUMPDEST DUP7 DUP2 SUB PUSH2 0x140 DUP9 ADD MSTORE PUSH2 0x453C SWAP2 PUSH2 0x4FE4 JUMP JUMPDEST DUP6 DUP2 SUB PUSH2 0x160 DUP8 ADD MSTORE PUSH2 0x454E SWAP2 PUSH2 0x4FE4 JUMP JUMPDEST DUP5 DUP2 SUB PUSH2 0x180 DUP7 ADD MSTORE PUSH2 0x4560 SWAP2 PUSH2 0x4FE4 JUMP JUMPDEST SWAP2 PUSH2 0x1A0 DUP5 ADD MSTORE PUSH2 0x1C0 DUP4 ADD MSTORE SUB SWAP1 RETURN JUMPDEST CALLVALUE PUSH2 0x195 JUMPI PUSH2 0x457F CALLDATASIZE PUSH2 0x4DC6 JUMP JUMPDEST SWAP1 CALLER PUSH0 MSTORE PUSH1 0x9 PUSH1 0x20 MSTORE PUSH1 0xFF PUSH1 0x40 PUSH0 KECCAK256 SLOAD AND ISZERO PUSH2 0x4CB1 JUMPI PUSH1 0x1 PUSH1 0x1 PUSH1 0xA0 SHL SUB AND PUSH0 DUP2 DUP2 MSTORE PUSH1 0x6 PUSH1 0x20 MSTORE PUSH1 0x40 SWAP1 KECCAK256 DUP1 SLOAD PUSH1 0x1 PUSH1 0x1 PUSH1 0xA0 SHL SUB NOT SWAP1 DUP2 AND CALLER OR DUP3 SSTORE PUSH1 0x1 DUP3 ADD DUP1 SLOAD SWAP1 SWAP2 AND DUP4 OR SWAP1 SSTORE DUP3 MLOAD DUP1 MLOAD SWAP2 SWAP4 SWAP2 PUSH1 0x2 DUP6 ADD SWAP2 PUSH1 0x1 PUSH1 0x1 PUSH1 0x40 SHL SUB DUP3 GT PUSH2 0x668 JUMPI DUP2 SWAP1 PUSH2 0x45F0 DUP5 SLOAD PUSH2 0x4F0C JUMP JUMPDEST PUSH1 0x1F DUP2 GT PUSH2 0x4C61 JUMPI JUMPDEST POP PUSH1 0x20 SWAP1 PUSH1 0x1F DUP4 GT PUSH1 0x1 EQ PUSH2 0x4BFE JUMPI PUSH0 SWAP3 PUSH2 0x4BF3 JUMPI JUMPDEST POP POP DUP2 PUSH1 0x1 SHL SWAP2 PUSH0 NOT SWAP1 PUSH1 0x3 SHL SHR NOT AND OR SWAP1 SSTORE JUMPDEST PUSH1 0x20 DUP2 ADD MLOAD DUP1 MLOAD PUSH1 0x3 DUP6 ADD SWAP2 PUSH1 0x1 PUSH1 0x1 PUSH1 0x40 SHL SUB DUP3 GT PUSH2 0x668 JUMPI DUP2 SWAP1 PUSH2 0x4649 DUP5 SLOAD PUSH2 0x4F0C JUMP JUMPDEST PUSH1 0x1F DUP2 GT PUSH2 0x4BA3 JUMPI JUMPDEST POP PUSH1 0x20 SWAP1 PUSH1 0x1F DUP4 GT PUSH1 0x1 EQ PUSH2 0x4B40 JUMPI PUSH0 SWAP3 PUSH2 0x4B35 JUMPI JUMPDEST POP POP DUP2 PUSH1 0x1 SHL SWAP2 PUSH0 NOT SWAP1 PUSH1 0x3 SHL SHR NOT AND OR SWAP1 SSTORE JUMPDEST PUSH1 0x80 DUP2 ADD MLOAD DUP1 MLOAD PUSH1 0x6 DUP6 ADD SWAP2 PUSH1 0x1 PUSH1 0x1 PUSH1 0x40 SHL SUB DUP3 GT PUSH2 0x668 JUMPI DUP2 SWAP1 PUSH2 0x46A2 DUP5 SLOAD PUSH2 0x4F0C JUMP JUMPDEST PUSH1 0x1F DUP2 GT PUSH2 0x4AE5 JUMPI JUMPDEST POP PUSH1 0x20 SWAP1 PUSH1 0x1F DUP4 GT PUSH1 0x1 EQ PUSH2 0x4A82 JUMPI PUSH0 SWAP3 PUSH2 0x4A77 JUMPI JUMPDEST POP POP DUP2 PUSH1 0x1 SHL SWAP2 PUSH0 NOT SWAP1 PUSH1 0x3 SHL SHR NOT AND OR SWAP1 SSTORE JUMPDEST PUSH1 0x40 DUP2 ADD MLOAD DUP1 MLOAD PUSH1 0x4 DUP6 ADD SWAP2 PUSH1 0x1 PUSH1 0x1 PUSH1 0x40 SHL SUB DUP3 GT PUSH2 0x668 JUMPI DUP2 SWAP1 PUSH2 0x46FB DUP5 SLOAD PUSH2 0x4F0C JUMP JUMPDEST PUSH1 0x1F DUP2 GT PUSH2 0x4A27 JUMPI JUMPDEST POP PUSH1 0x20 SWAP1 PUSH1 0x1F DUP4 GT PUSH1 0x1 EQ PUSH2 0x49C4 JUMPI PUSH0 SWAP3 PUSH2 0x49B9 JUMPI JUMPDEST POP POP DUP2 PUSH1 0x1 SHL SWAP2 PUSH0 NOT SWAP1 PUSH1 0x3 SHL SHR NOT AND OR SWAP1 SSTORE JUMPDEST PUSH1 0x60 DUP2 ADD MLOAD DUP1 MLOAD PUSH1 0x5 DUP6 ADD SWAP2 PUSH1 0x1 PUSH1 0x1 PUSH1 0x40 SHL SUB DUP3 GT PUSH2 0x668 JUMPI PUSH2 0x4752 DUP4 SLOAD PUSH2 0x4F0C JUMP JUMPDEST PUSH1 0x1F DUP2 GT PUSH2 0x4974 JUMPI JUMPDEST POP PUSH1 0x20 SWAP1 PUSH1 0x1F DUP4 GT PUSH1 0x1 EQ PUSH2 0x490D JUMPI PUSH1 0xA0 SWAP5 SWAP4 SWAP3 SWAP2 PUSH0 SWAP2 DUP4 PUSH2 0x4902 JUMPI JUMPDEST POP POP DUP2 PUSH1 0x1 SHL SWAP2 PUSH0 NOT SWAP1 PUSH1 0x3 SHL SHR NOT AND OR SWAP1 SSTORE JUMPDEST ADD MLOAD SWAP2 PUSH1 0x7 DUP2 ADD DUP4 MLOAD PUSH1 0x1 PUSH1 0x1 PUSH1 0x40 SHL SUB DUP2 GT PUSH2 0x668 JUMPI PUSH2 0x47AD DUP3 SLOAD PUSH2 0x4F0C JUMP JUMPDEST PUSH1 0x1F DUP2 GT PUSH2 0x48BD JUMPI JUMPDEST POP PUSH1 0x20 SWAP5 PUSH1 0x1F DUP3 GT PUSH1 0x1 EQ PUSH2 0x485C JUMPI SWAP5 DUP2 SWAP3 SWAP4 SWAP5 SWAP6 PUSH0 SWAP3 PUSH2 0x4851 JUMPI JUMPDEST POP POP DUP2 PUSH1 0x1 SHL SWAP2 PUSH0 NOT SWAP1 PUSH1 0x3 SHL SHR NOT AND OR SWAP1 SSTORE JUMPDEST PUSH1 0x8 TIMESTAMP SWAP2 ADD SSTORE PUSH1 0x3 SLOAD PUSH1 0x1 PUSH1 0x40 SHL DUP2 LT ISZERO PUSH2 0x668 JUMPI DUP1 PUSH1 0x1 PUSH2 0x480D SWAP3 ADD PUSH1 0x3 SSTORE PUSH1 0x3 PUSH2 0x5008 JUMP JUMPDEST DUP2 SLOAD PUSH1 0x1 PUSH1 0x1 PUSH1 0xA0 SHL SUB PUSH1 0x3 SWAP3 SWAP1 SWAP3 SHL SWAP2 DUP3 SHL NOT AND SWAP1 DUP4 SWAP1 SHL OR SWAP1 SSTORE PUSH1 0xD SLOAD PUSH2 0x4835 SWAP1 PUSH2 0x5368 JUMP JUMPDEST PUSH1 0xD SSTORE PUSH0 MSTORE PUSH1 0xA PUSH1 0x20 MSTORE PUSH1 0x40 PUSH0 KECCAK256 PUSH2 0x484D DUP2 SLOAD PUSH2 0x5368 JUMP JUMPDEST SWAP1 SSTORE STOP JUMPDEST ADD MLOAD SWAP1 POP DUP6 DUP1 PUSH2 0x47D2 JUMP JUMPDEST PUSH1 0x1F NOT DUP3 AND SWAP6 DUP4 PUSH0 MSTORE DUP1 PUSH0 KECCAK256 SWAP2 PUSH0 JUMPDEST DUP9 DUP2 LT PUSH2 0x48A5 JUMPI POP DUP4 PUSH1 0x1 SWAP6 SWAP7 SWAP8 SWAP9 LT PUSH2 0x488D JUMPI JUMPDEST POP POP POP DUP2 SHL ADD SWAP1 SSTORE PUSH2 0x47E6 JUMP JUMPDEST ADD MLOAD PUSH0 NOT PUSH1 0xF8 DUP5 PUSH1 0x3 SHL AND SHR NOT AND SWAP1 SSTORE DUP6 DUP1 DUP1 PUSH2 0x4880 JUMP JUMPDEST SWAP2 SWAP3 PUSH1 0x20 PUSH1 0x1 DUP2 SWAP3 DUP7 DUP6 ADD MLOAD DUP2 SSTORE ADD SWAP5 ADD SWAP3 ADD PUSH2 0x486B JUMP JUMPDEST DUP3 PUSH0 MSTORE PUSH1 0x20 PUSH0 KECCAK256 PUSH1 0x1F DUP4 ADD PUSH1 0x5 SHR DUP2 ADD SWAP2 PUSH1 0x20 DUP5 LT PUSH2 0x48F8 JUMPI JUMPDEST PUSH1 0x1F ADD PUSH1 0x5 SHR ADD SWAP1 JUMPDEST DUP2 DUP2 LT PUSH2 0x48ED JUMPI POP PUSH2 0x47B6 JUMP JUMPDEST PUSH0 DUP2 SSTORE PUSH1 0x1 ADD PUSH2 0x48E0 JUMP JUMPDEST SWAP1 SWAP2 POP DUP2 SWAP1 PUSH2 0x48D7 JUMP JUMPDEST ADD MLOAD SWAP1 POP DUP8 DUP1 PUSH2 0x4778 JUMP JUMPDEST SWAP1 PUSH1 0x1F NOT DUP4 AND SWAP2 DUP5 PUSH0 MSTORE DUP2 PUSH0 KECCAK256 SWAP3 PUSH0 JUMPDEST DUP2 DUP2 LT PUSH2 0x495C JUMPI POP SWAP2 PUSH1 0x1 SWAP4 SWAP2 DUP6 PUSH1 0xA0 SWAP9 SWAP8 SWAP7 SWAP5 LT PUSH2 0x4944 JUMPI JUMPDEST POP POP POP DUP2 SHL ADD SWAP1 SSTORE PUSH2 0x478C JUMP JUMPDEST ADD MLOAD PUSH0 NOT PUSH1 0xF8 DUP5 PUSH1 0x3 SHL AND SHR NOT AND SWAP1 SSTORE DUP8 DUP1 DUP1 PUSH2 0x4937 JUMP JUMPDEST SWAP3 SWAP4 PUSH1 0x20 PUSH1 0x1 DUP2 SWAP3 DUP8 DUP7 ADD MLOAD DUP2 SSTORE ADD SWAP6 ADD SWAP4 ADD PUSH2 0x491D JUMP JUMPDEST DUP4 PUSH0 MSTORE PUSH1 0x20 PUSH0 KECCAK256 PUSH1 0x1F DUP5 ADD PUSH1 0x5 SHR DUP2 ADD SWAP2 PUSH1 0x20 DUP6 LT PUSH2 0x49AF JUMPI JUMPDEST PUSH1 0x1F ADD PUSH1 0x5 SHR ADD SWAP1 JUMPDEST DUP2 DUP2 LT PUSH2 0x49A4 JUMPI POP PUSH2 0x475B JUMP JUMPDEST PUSH0 DUP2 SSTORE PUSH1 0x1 ADD PUSH2 0x4997 JUMP JUMPDEST SWAP1 SWAP2 POP DUP2 SWAP1 PUSH2 0x498E JUMP JUMPDEST ADD MLOAD SWAP1 POP DUP7 DUP1 PUSH2 0x471A JUMP JUMPDEST PUSH0 DUP6 DUP2 MSTORE DUP3 DUP2 KECCAK256 SWAP4 POP PUSH1 0x1F NOT DUP6 AND SWAP1 JUMPDEST DUP2 DUP2 LT PUSH2 0x4A0F JUMPI POP SWAP1 DUP5 PUSH1 0x1 SWAP6 SWAP5 SWAP4 SWAP3 LT PUSH2 0x49F7 JUMPI JUMPDEST POP POP POP DUP2 SHL ADD SWAP1 SSTORE PUSH2 0x472E JUMP JUMPDEST ADD MLOAD PUSH0 NOT PUSH1 0xF8 DUP5 PUSH1 0x3 SHL AND SHR NOT AND SWAP1 SSTORE DUP7 DUP1 DUP1 PUSH2 0x49EA JUMP JUMPDEST SWAP3 SWAP4 PUSH1 0x20 PUSH1 0x1 DUP2 SWAP3 DUP8 DUP7 ADD MLOAD DUP2 SSTORE ADD SWAP6 ADD SWAP4 ADD PUSH2 0x49D4 JUMP JUMPDEST SWAP1 SWAP2 POP DUP4 PUSH0 MSTORE PUSH1 0x20 PUSH0 KECCAK256 PUSH1 0x1F DUP5 ADD PUSH1 0x5 SHR DUP2 ADD SWAP2 PUSH1 0x20 DUP6 LT PUSH2 0x4A6D JUMPI JUMPDEST SWAP1 PUSH1 0x1F DUP6 SWAP5 SWAP4 SWAP3 ADD PUSH1 0x5 SHR ADD SWAP1 JUMPDEST DUP2 DUP2 LT PUSH2 0x4A5F JUMPI POP PUSH2 0x4704 JUMP JUMPDEST PUSH0 DUP2 SSTORE DUP5 SWAP4 POP PUSH1 0x1 ADD PUSH2 0x4A52 JUMP JUMPDEST SWAP1 SWAP2 POP DUP2 SWAP1 PUSH2 0x4A44 JUMP JUMPDEST ADD MLOAD SWAP1 POP DUP7 DUP1 PUSH2 0x46C1 JUMP JUMPDEST PUSH0 DUP6 DUP2 MSTORE DUP3 DUP2 KECCAK256 SWAP4 POP PUSH1 0x1F NOT DUP6 AND SWAP1 JUMPDEST DUP2 DUP2 LT PUSH2 0x4ACD JUMPI POP SWAP1 DUP5 PUSH1 0x1 SWAP6 SWAP5 SWAP4 SWAP3 LT PUSH2 0x4AB5 JUMPI JUMPDEST POP POP POP DUP2 SHL ADD SWAP1 SSTORE PUSH2 0x46D5 JUMP JUMPDEST ADD MLOAD PUSH0 NOT PUSH1 0xF8 DUP5 PUSH1 0x3 SHL AND SHR NOT AND SWAP1 SSTORE DUP7 DUP1 DUP1 PUSH2 0x4AA8 JUMP JUMPDEST SWAP3 SWAP4 PUSH1 0x20 PUSH1 0x1 DUP2 SWAP3 DUP8 DUP7 ADD MLOAD DUP2 SSTORE ADD SWAP6 ADD SWAP4 ADD PUSH2 0x4A92 JUMP JUMPDEST SWAP1 SWAP2 POP DUP4 PUSH0 MSTORE PUSH1 0x20 PUSH0 KECCAK256 PUSH1 0x1F DUP5 ADD PUSH1 0x5 SHR DUP2 ADD SWAP2 PUSH1 0x20 DUP6 LT PUSH2 0x4B2B JUMPI JUMPDEST SWAP1 PUSH1 0x1F DUP6 SWAP5 SWAP4 SWAP3 ADD PUSH1 0x5 SHR ADD SWAP1 JUMPDEST DUP2 DUP2 LT PUSH2 0x4B1D JUMPI POP PUSH2 0x46AB JUMP JUMPDEST PUSH0 DUP2 SSTORE DUP5 SWAP4 POP PUSH1 0x1 ADD PUSH2 0x4B10 JUMP JUMPDEST SWAP1 SWAP2 POP DUP2 SWAP1 PUSH2 0x4B02 JUMP JUMPDEST ADD MLOAD SWAP1 POP DUP7 DUP1 PUSH2 0x4668 JUMP JUMPDEST PUSH0 DUP6 DUP2 MSTORE DUP3 DUP2 KECCAK256 SWAP4 POP PUSH1 0x1F NOT DUP6 AND SWAP1 JUMPDEST DUP2 DUP2 LT PUSH2 0x4B8B JUMPI POP SWAP1 DUP5 PUSH1 0x1 SWAP6 SWAP5 SWAP4 SWAP3 LT PUSH2 0x4B73 JUMPI JUMPDEST POP POP POP DUP2 SHL ADD SWAP1 SSTORE PUSH2 0x467C JUMP JUMPDEST ADD MLOAD PUSH0 NOT PUSH1 0xF8 DUP5 PUSH1 0x3 SHL AND SHR NOT AND SWAP1 SSTORE DUP7 DUP1 DUP1 PUSH2 0x4B66 JUMP JUMPDEST SWAP3 SWAP4 PUSH1 0x20 PUSH1 0x1 DUP2 SWAP3 DUP8 DUP7 ADD MLOAD DUP2 SSTORE ADD SWAP6 ADD SWAP4 ADD PUSH2 0x4B50 JUMP JUMPDEST SWAP1 SWAP2 POP DUP4 PUSH0 MSTORE PUSH1 0x20 PUSH0 KECCAK256 PUSH1 0x1F DUP5 ADD PUSH1 0x5 SHR DUP2 ADD SWAP2 PUSH1 0x20 DUP6 LT PUSH2 0x4BE9 JUMPI JUMPDEST SWAP1 PUSH1 0x1F DUP6 SWAP5 SWAP4 SWAP3 ADD PUSH1 0x5 SHR ADD SWAP1 JUMPDEST DUP2 DUP2 LT PUSH2 0x4BDB JUMPI POP PUSH2 0x4652 JUMP JUMPDEST PUSH0 DUP2 SSTORE DUP5 SWAP4 POP PUSH1 0x1 ADD PUSH2 0x4BCE JUMP JUMPDEST SWAP1 SWAP2 POP DUP2 SWAP1 PUSH2 0x4BC0 JUMP JUMPDEST ADD MLOAD SWAP1 POP DUP7 DUP1 PUSH2 0x460F JUMP JUMPDEST PUSH0 DUP6 DUP2 MSTORE DUP3 DUP2 KECCAK256 SWAP4 POP PUSH1 0x1F NOT DUP6 AND SWAP1 JUMPDEST DUP2 DUP2 LT PUSH2 0x4C49 JUMPI POP SWAP1 DUP5 PUSH1 0x1 SWAP6 SWAP5 SWAP4 SWAP3 LT PUSH2 0x4C31 JUMPI JUMPDEST POP POP POP DUP2 SHL ADD SWAP1 SSTORE PUSH2 0x4623 JUMP JUMPDEST ADD MLOAD PUSH0 NOT PUSH1 0xF8 DUP5 PUSH1 0x3 SHL AND SHR NOT AND SWAP1 SSTORE DUP7 DUP1 DUP1 PUSH2 0x4C24 JUMP JUMPDEST SWAP3 SWAP4 PUSH1 0x20 PUSH1 0x1 DUP2 SWAP3 DUP8 DUP7 ADD MLOAD DUP2 SSTORE ADD SWAP6 ADD SWAP4 ADD PUSH2 0x4C0E JUMP JUMPDEST SWAP1 SWAP2 POP DUP4 PUSH0 MSTORE PUSH1 0x20 PUSH0 KECCAK256 PUSH1 0x1F DUP5 ADD PUSH1 0x5 SHR DUP2 ADD SWAP2 PUSH1 0x20 DUP6 LT PUSH2 0x4CA7 JUMPI JUMPDEST SWAP1 PUSH1 0x1F DUP6 SWAP5 SWAP4 SWAP3 ADD PUSH1 0x5 SHR ADD SWAP1 JUMPDEST DUP2 DUP2 LT PUSH2 0x4C99 JUMPI POP PUSH2 0x45F9 JUMP JUMPDEST PUSH0 DUP2 SSTORE DUP5 SWAP4 POP PUSH1 0x1 ADD PUSH2 0x4C8C JUMP JUMPDEST SWAP1 SWAP2 POP DUP2 SWAP1 PUSH2 0x4C7E JUMP JUMPDEST PUSH1 0x40 MLOAD PUSH3 0x461BCD PUSH1 0xE5 SHL DUP2 MSTORE PUSH1 0x20 PUSH1 0x4 DUP3 ADD MSTORE PUSH1 0x24 DUP1 DUP3 ADD MSTORE PUSH32 0x4F6E6C7920646F63746F72732063616E20637265617465206170706F696E746D PUSH1 0x44 DUP3 ADD MSTORE PUSH4 0x656E7473 PUSH1 0xE0 SHL PUSH1 0x64 DUP3 ADD MSTORE PUSH1 0x84 SWAP1 REVERT JUMPDEST PUSH1 0x4 CALLDATALOAD SWAP1 PUSH1 0x1 PUSH1 0x1 PUSH1 0xA0 SHL SUB DUP3 AND DUP3 SUB PUSH2 0x195 JUMPI JUMP JUMPDEST PUSH2 0x1E0 DUP2 ADD SWAP1 DUP2 LT PUSH1 0x1 PUSH1 0x1 PUSH1 0x40 SHL SUB DUP3 GT OR PUSH2 0x668 JUMPI PUSH1 0x40 MSTORE JUMP JUMPDEST PUSH2 0x120 DUP2 ADD SWAP1 DUP2 LT PUSH1 0x1 PUSH1 0x1 PUSH1 0x40 SHL SUB DUP3 GT OR PUSH2 0x668 JUMPI PUSH1 0x40 MSTORE JUMP JUMPDEST SWAP1 PUSH1 0x1F DUP1 NOT SWAP2 ADD AND DUP2 ADD SWAP1 DUP2 LT PUSH1 0x1 PUSH1 0x1 PUSH1 0x40 SHL SUB DUP3 GT OR PUSH2 0x668 JUMPI PUSH1 0x40 MSTORE JUMP JUMPDEST DUP2 PUSH1 0x1F DUP3 ADD SLT ISZERO PUSH2 0x195 JUMPI DUP1 CALLDATALOAD SWAP1 PUSH1 0x1 PUSH1 0x1 PUSH1 0x40 SHL SUB DUP3 GT PUSH2 0x668 JUMPI PUSH1 0x40 MLOAD SWAP3 PUSH2 0x4DA5 PUSH1 0x1F DUP5 ADD PUSH1 0x1F NOT AND PUSH1 0x20 ADD DUP6 PUSH2 0x4D50 JUMP JUMPDEST DUP3 DUP5 MSTORE PUSH1 0x20 DUP4 DUP4 ADD ADD GT PUSH2 0x195 JUMPI DUP2 PUSH0 SWAP3 PUSH1 0x20 DUP1 SWAP4 ADD DUP4 DUP7 ADD CALLDATACOPY DUP4 ADD ADD MSTORE SWAP1 JUMP JUMPDEST SWAP1 PUSH1 0x40 PUSH1 0x3 NOT DUP4 ADD SLT PUSH2 0x195 JUMPI PUSH1 0x4 CALLDATALOAD PUSH1 0x1 PUSH1 0x1 PUSH1 0xA0 SHL SUB DUP2 AND DUP2 SUB PUSH2 0x195 JUMPI SWAP2 PUSH1 0x24 CALLDATALOAD PUSH1 0x1 PUSH1 0x1 PUSH1 0x40 SHL SUB DUP2 GT PUSH2 0x195 JUMPI PUSH1 0xC0 DUP2 DUP4 SUB PUSH1 0x3 NOT ADD SLT PUSH2 0x195 JUMPI PUSH1 0x40 MLOAD SWAP2 PUSH1 0xC0 DUP4 ADD DUP4 DUP2 LT PUSH1 0x1 PUSH1 0x1 PUSH1 0x40 SHL SUB DUP3 GT OR PUSH2 0x668 JUMPI PUSH1 0x40 MSTORE DUP2 PUSH1 0x4 ADD CALLDATALOAD PUSH1 0x1 PUSH1 0x1 PUSH1 0x40 SHL SUB DUP2 GT PUSH2 0x195 JUMPI DUP2 PUSH1 0x4 PUSH2 0x4E45 SWAP3 DUP6 ADD ADD PUSH2 0x4D71 JUMP JUMPDEST DUP4 MSTORE PUSH1 0x24 DUP3 ADD CALLDATALOAD PUSH1 0x1 PUSH1 0x1 PUSH1 0x40 SHL SUB DUP2 GT PUSH2 0x195 JUMPI DUP2 PUSH1 0x4 PUSH2 0x4E69 SWAP3 DUP6 ADD ADD PUSH2 0x4D71 JUMP JUMPDEST PUSH1 0x20 DUP5 ADD MSTORE PUSH1 0x44 DUP3 ADD CALLDATALOAD PUSH1 0x1 PUSH1 0x1 PUSH1 0x40 SHL SUB DUP2 GT PUSH2 0x195 JUMPI DUP2 PUSH1 0x4 PUSH2 0x4E90 SWAP3 DUP6 ADD ADD PUSH2 0x4D71 JUMP JUMPDEST PUSH1 0x40 DUP5 ADD MSTORE PUSH1 0x64 DUP3 ADD CALLDATALOAD PUSH1 0x1 PUSH1 0x1 PUSH1 0x40 SHL SUB DUP2 GT PUSH2 0x195 JUMPI DUP2 PUSH1 0x4 PUSH2 0x4EB7 SWAP3 DUP6 ADD ADD PUSH2 0x4D71 JUMP JUMPDEST PUSH1 0x60 DUP5 ADD MSTORE PUSH1 0x84 DUP3 ADD CALLDATALOAD PUSH1 0x1 PUSH1 0x1 PUSH1 0x40 SHL SUB DUP2 GT PUSH2 0x195 JUMPI DUP2 PUSH1 0x4 PUSH2 0x4EDE SWAP3 DUP6 ADD ADD PUSH2 0x4D71 JUMP JUMPDEST PUSH1 0x80 DUP5 ADD MSTORE PUSH1 0xA4 DUP3 ADD CALLDATALOAD SWAP2 PUSH1 0x1 PUSH1 0x1 PUSH1 0x40 SHL SUB DUP4 GT PUSH2 0x195 JUMPI PUSH2 0x4F04 SWAP3 ADD PUSH1 0x4 ADD PUSH2 0x4D71 JUMP JUMPDEST PUSH1 0xA0 DUP3 ADD MSTORE SWAP1 JUMP JUMPDEST SWAP1 PUSH1 0x1 DUP3 DUP2 SHR SWAP3 AND DUP1 ISZERO PUSH2 0x4F3A JUMPI JUMPDEST PUSH1 0x20 DUP4 LT EQ PUSH2 0x4F26 JUMPI JUMP JUMPDEST PUSH4 0x4E487B71 PUSH1 0xE0 SHL PUSH0 MSTORE PUSH1 0x22 PUSH1 0x4 MSTORE PUSH1 0x24 PUSH0 REVERT JUMPDEST SWAP2 PUSH1 0x7F AND SWAP2 PUSH2 0x4F1B JUMP JUMPDEST SWAP1 PUSH1 0x40 MLOAD SWAP2 DUP3 PUSH0 DUP3 SLOAD SWAP3 PUSH2 0x4F57 DUP5 PUSH2 0x4F0C JUMP JUMPDEST DUP1 DUP5 MSTORE SWAP4 PUSH1 0x1 DUP2 AND SWAP1 DUP2 ISZERO PUSH2 0x4FC2 JUMPI POP PUSH1 0x1 EQ PUSH2 0x4F7E JUMPI JUMPDEST POP PUSH2 0x4F7C SWAP3 POP SUB DUP4 PUSH2 0x4D50 JUMP JUMPDEST JUMP JUMPDEST SWAP1 POP PUSH0 SWAP3 SWAP2 SWAP3 MSTORE PUSH1 0x20 PUSH0 KECCAK256 SWAP1 PUSH0 SWAP2 JUMPDEST DUP2 DUP4 LT PUSH2 0x4FA6 JUMPI POP POP SWAP1 PUSH1 0x20 PUSH2 0x4F7C SWAP3 DUP3 ADD ADD PUSH0 PUSH2 0x4F6F JUMP JUMPDEST PUSH1 0x20 SWAP2 SWAP4 POP DUP1 PUSH1 0x1 SWAP2 SLOAD DUP4 DUP6 DUP10 ADD ADD MSTORE ADD SWAP2 ADD SWAP1 SWAP2 DUP5 SWAP3 PUSH2 0x4F8D JUMP JUMPDEST SWAP1 POP PUSH1 0x20 SWAP3 POP PUSH2 0x4F7C SWAP5 SWAP2 POP PUSH1 0xFF NOT AND DUP3 DUP5 ADD MSTORE ISZERO ISZERO PUSH1 0x5 SHL DUP3 ADD ADD PUSH0 PUSH2 0x4F6F JUMP JUMPDEST DUP1 MLOAD DUP1 DUP4 MSTORE PUSH1 0x20 SWAP3 SWAP2 DUP2 SWAP1 DUP5 ADD DUP5 DUP5 ADD MCOPY PUSH0 DUP3 DUP3 ADD DUP5 ADD MSTORE PUSH1 0x1F ADD PUSH1 0x1F NOT AND ADD ADD SWAP1 JUMP JUMPDEST DUP1 SLOAD DUP3 LT ISZERO PUSH2 0x235 JUMPI PUSH0 MSTORE PUSH1 0x20 PUSH0 KECCAK256 ADD SWAP1 PUSH0 SWAP1 JUMP JUMPDEST PUSH1 0x20 PUSH1 0x40 DUP2 DUP4 ADD SWAP3 DUP3 DUP2 MSTORE DUP5 MLOAD DUP1 SWAP5 MSTORE ADD SWAP3 ADD SWAP1 PUSH0 JUMPDEST DUP2 DUP2 LT PUSH2 0x5040 JUMPI POP POP POP SWAP1 JUMP JUMPDEST DUP3 MLOAD PUSH1 0x1 PUSH1 0x1 PUSH1 0xA0 SHL SUB AND DUP5 MSTORE PUSH1 0x20 SWAP4 DUP5 ADD SWAP4 SWAP1 SWAP3 ADD SWAP2 PUSH1 0x1 ADD PUSH2 0x5033 JUMP JUMPDEST PUSH2 0x1A0 PUSH1 0x3 NOT DUP3 ADD SLT PUSH2 0x195 JUMPI PUSH1 0x4 CALLDATALOAD PUSH1 0x1 PUSH1 0x1 PUSH1 0x40 SHL SUB DUP2 GT PUSH2 0x195 JUMPI DUP2 PUSH2 0x508A SWAP2 PUSH1 0x4 ADD PUSH2 0x4D71 JUMP JUMPDEST SWAP2 PUSH1 0x24 CALLDATALOAD PUSH1 0x1 PUSH1 0x1 PUSH1 0x40 SHL SUB DUP2 GT PUSH2 0x195 JUMPI DUP3 PUSH2 0x50A9 SWAP2 PUSH1 0x4 ADD PUSH2 0x4D71 JUMP JUMPDEST SWAP2 PUSH1 0x44 CALLDATALOAD PUSH1 0x1 PUSH1 0x1 PUSH1 0x40 SHL SUB DUP2 GT PUSH2 0x195 JUMPI DUP2 PUSH2 0x50C8 SWAP2 PUSH1 0x4 ADD PUSH2 0x4D71 JUMP JUMPDEST SWAP2 PUSH1 0x64 CALLDATALOAD PUSH1 0x1 PUSH1 0x1 PUSH1 0x40 SHL SUB DUP2 GT PUSH2 0x195 JUMPI DUP3 PUSH2 0x50E7 SWAP2 PUSH1 0x4 ADD PUSH2 0x4D71 JUMP JUMPDEST SWAP2 PUSH1 0x84 CALLDATALOAD PUSH1 0x1 PUSH1 0x1 PUSH1 0x40 SHL SUB DUP2 GT PUSH2 0x195 JUMPI DUP2 PUSH2 0x5106 SWAP2 PUSH1 0x4 ADD PUSH2 0x4D71 JUMP JUMPDEST SWAP2 PUSH1 0xA4 CALLDATALOAD PUSH1 0x1 PUSH1 0x1 PUSH1 0x40 SHL SUB DUP2 GT PUSH2 0x195 JUMPI DUP3 PUSH2 0x5125 SWAP2 PUSH1 0x4 ADD PUSH2 0x4D71 JUMP JUMPDEST SWAP2 PUSH1 0xC4 CALLDATALOAD PUSH1 0x1 PUSH1 0x1 PUSH1 0x40 SHL SUB DUP2 GT PUSH2 0x195 JUMPI DUP2 PUSH2 0x5144 SWAP2 PUSH1 0x4 ADD PUSH2 0x4D71 JUMP JUMPDEST SWAP2 PUSH1 0xE4 CALLDATALOAD PUSH1 0x1 PUSH1 0x1 PUSH1 0x40 SHL SUB DUP2 GT PUSH2 0x195 JUMPI DUP3 PUSH2 0x5163 SWAP2 PUSH1 0x4 ADD PUSH2 0x4D71 JUMP JUMPDEST SWAP2 PUSH2 0x104 CALLDATALOAD PUSH1 0x1 PUSH1 0x1 PUSH1 0x40 SHL SUB DUP2 GT PUSH2 0x195 JUMPI DUP2 PUSH2 0x5183 SWAP2 PUSH1 0x4 ADD PUSH2 0x4D71 JUMP JUMPDEST SWAP2 PUSH2 0x124 CALLDATALOAD PUSH1 0x1 PUSH1 0x1 PUSH1 0x40 SHL SUB DUP2 GT PUSH2 0x195 JUMPI DUP3 PUSH2 0x51A3 SWAP2 PUSH1 0x4 ADD PUSH2 0x4D71 JUMP JUMPDEST SWAP2 PUSH2 0x144 CALLDATALOAD PUSH1 0x1 PUSH1 0x1 PUSH1 0x40 SHL SUB DUP2 GT PUSH2 0x195 JUMPI DUP2 PUSH2 0x51C3 SWAP2 PUSH1 0x4 ADD PUSH2 0x4D71 JUMP JUMPDEST SWAP2 PUSH2 0x164 CALLDATALOAD PUSH1 0x1 PUSH1 0x1 PUSH1 0x40 SHL SUB DUP2 GT PUSH2 0x195 JUMPI DUP3 PUSH2 0x51E3 SWAP2 PUSH1 0x4 ADD PUSH2 0x4D71 JUMP JUMPDEST SWAP2 PUSH2 0x184 CALLDATALOAD SWAP1 PUSH1 0x1 PUSH1 0x1 PUSH1 0x40 SHL SUB DUP3 GT PUSH2 0x195 JUMPI PUSH2 0x5203 SWAP2 PUSH1 0x4 ADD PUSH2 0x4D71 JUMP JUMPDEST SWAP1 JUMP JUMPDEST SWAP6 SWAP3 PUSH2 0x5276 SWAP5 PUSH2 0x524C PUSH2 0x525A SWAP3 PUSH2 0x523E PUSH2 0x5268 SWAP7 PUSH2 0x5230 PUSH2 0x5203 SWAP14 SWAP12 SWAP8 PUSH1 0xE0 DUP15 DUP2 DUP2 MSTORE ADD SWAP1 PUSH2 0x4FE4 JUMP JUMPDEST DUP13 DUP2 SUB PUSH1 0x20 DUP15 ADD MSTORE SWAP1 PUSH2 0x4FE4 JUMP JUMPDEST SWAP1 DUP11 DUP3 SUB PUSH1 0x40 DUP13 ADD MSTORE PUSH2 0x4FE4 JUMP JUMPDEST SWAP1 DUP9 DUP3 SUB PUSH1 0x60 DUP11 ADD MSTORE PUSH2 0x4FE4 JUMP JUMPDEST SWAP1 DUP7 DUP3 SUB PUSH1 0x80 DUP9 ADD MSTORE PUSH2 0x4FE4 JUMP JUMPDEST SWAP1 DUP5 DUP3 SUB PUSH1 0xA0 DUP7 ADD MSTORE PUSH2 0x4FE4 JUMP JUMPDEST SWAP2 PUSH1 0xC0 DUP2 DUP5 SUB SWAP2 ADD MSTORE PUSH2 0x4FE4 JUMP JUMPDEST PUSH1 0xE0 PUSH1 0x3 NOT DUP3 ADD SLT PUSH2 0x195 JUMPI PUSH1 0x4 CALLDATALOAD PUSH1 0x1 PUSH1 0x1 PUSH1 0x40 SHL SUB DUP2 GT PUSH2 0x195 JUMPI DUP2 PUSH2 0x52AE SWAP2 PUSH1 0x4 ADD PUSH2 0x4D71 JUMP JUMPDEST SWAP2 PUSH1 0x24 CALLDATALOAD PUSH1 0x1 PUSH1 0x1 PUSH1 0x40 SHL SUB DUP2 GT PUSH2 0x195 JUMPI DUP3 PUSH2 0x52CD SWAP2 PUSH1 0x4 ADD PUSH2 0x4D71 JUMP JUMPDEST SWAP2 PUSH1 0x44 CALLDATALOAD PUSH1 0x1 PUSH1 0x1 PUSH1 0x40 SHL SUB DUP2 GT PUSH2 0x195 JUMPI DUP2 PUSH2 0x52EC SWAP2 PUSH1 0x4 ADD PUSH2 0x4D71 JUMP JUMPDEST SWAP2 PUSH1 0x64 CALLDATALOAD PUSH1 0x1 PUSH1 0x1 PUSH1 0x40 SHL SUB DUP2 GT PUSH2 0x195 JUMPI DUP3 PUSH2 0x530B SWAP2 PUSH1 0x4 ADD PUSH2 0x4D71 JUMP JUMPDEST SWAP2 PUSH1 0x84 CALLDATALOAD PUSH1 0x1 PUSH1 0x1 PUSH1 0x40 SHL SUB DUP2 GT PUSH2 0x195 JUMPI DUP2 PUSH2 0x532A SWAP2 PUSH1 0x4 ADD PUSH2 0x4D71 JUMP JUMPDEST SWAP2 PUSH1 0xA4 CALLDATALOAD PUSH1 0x1 PUSH1 0x1 PUSH1 0x40 SHL SUB DUP2 GT PUSH2 0x195 JUMPI DUP3 PUSH2 0x5349 SWAP2 PUSH1 0x4 ADD PUSH2 0x4D71 JUMP JUMPDEST SWAP2 PUSH1 0xC4 CALLDATALOAD SWAP1 PUSH1 0x1 PUSH1 0x1 PUSH1 0x40 SHL SUB DUP3 GT PUSH2 0x195 JUMPI PUSH2 0x5203 SWAP2 PUSH1 0x4 ADD PUSH2 0x4D71 JUMP JUMPDEST PUSH0 NOT DUP2 EQ PUSH2 0x5376 JUMPI PUSH1 0x1 ADD SWAP1 JUMP JUMPDEST PUSH4 0x4E487B71 PUSH1 0xE0 SHL PUSH0 MSTORE PUSH1 0x11 PUSH1 0x4 MSTORE PUSH1 0x24 PUSH0 REVERT JUMPDEST ISZERO PUSH2 0x5391 JUMPI JUMP JUMPDEST PUSH1 0x40 MLOAD PUSH3 0x461BCD PUSH1 0xE5 SHL DUP2 MSTORE PUSH1 0x20 PUSH1 0x4 DUP3 ADD MSTORE PUSH1 0xD PUSH1 0x24 DUP3 ADD MSTORE PUSH13 0x1058D8D95CDCC819195B9A5959 PUSH1 0x9A SHL PUSH1 0x44 DUP3 ADD MSTORE PUSH1 0x64 SWAP1 REVERT JUMPDEST ISZERO PUSH2 0x53CD JUMPI JUMP JUMPDEST PUSH1 0x40 MLOAD PUSH3 0x461BCD PUSH1 0xE5 SHL DUP2 MSTORE PUSH1 0x20 PUSH1 0x4 DUP3 ADD MSTORE PUSH1 0x17 PUSH1 0x24 DUP3 ADD MSTORE PUSH32 0x4E6F742061207265676973746572656420646F63746F72000000000000000000 PUSH1 0x44 DUP3 ADD MSTORE PUSH1 0x64 SWAP1 REVERT INVALID LOG2 PUSH5 0x6970667358 0x22 SLT KECCAK256 0xD8 0xAE PUSH26 0x6B452F4CCB21294EF6116D5C26AEFD38CB0DDF357166BE705D35 DUP6 DUP6 ADDRESS PUSH5 0x736F6C6343 STOP ADDMOD SHR STOP CALLER "}}}